{
  "contractName": "Decaf",
  "abi": [
    {
      "inputs": [
        {
          "internalType": "address",
          "name": "",
          "type": "address"
        },
        {
          "internalType": "uint256",
          "name": "",
          "type": "uint256"
        }
      ],
      "name": "documentsIssued",
      "outputs": [
        {
          "internalType": "address",
          "name": "from",
          "type": "address"
        },
        {
          "internalType": "address",
          "name": "to",
          "type": "address"
        },
        {
          "internalType": "string",
          "name": "fileName",
          "type": "string"
        },
        {
          "internalType": "string",
          "name": "ipfsHash",
          "type": "string"
        }
      ],
      "stateMutability": "view",
      "type": "function",
      "constant": true
    },
    {
      "inputs": [
        {
          "internalType": "address",
          "name": "",
          "type": "address"
        },
        {
          "internalType": "uint256",
          "name": "",
          "type": "uint256"
        }
      ],
      "name": "documentsReceived",
      "outputs": [
        {
          "internalType": "address",
          "name": "from",
          "type": "address"
        },
        {
          "internalType": "address",
          "name": "to",
          "type": "address"
        },
        {
          "internalType": "string",
          "name": "fileName",
          "type": "string"
        },
        {
          "internalType": "string",
          "name": "ipfsHash",
          "type": "string"
        }
      ],
      "stateMutability": "view",
      "type": "function",
      "constant": true
    },
    {
      "inputs": [
        {
          "internalType": "address",
          "name": "",
          "type": "address"
        },
        {
          "internalType": "uint256",
          "name": "",
          "type": "uint256"
        }
      ],
      "name": "documentsSigned",
      "outputs": [
        {
          "internalType": "bytes",
          "name": "signature",
          "type": "bytes"
        },
        {
          "internalType": "address",
          "name": "signer",
          "type": "address"
        },
        {
          "internalType": "address",
          "name": "receiver",
          "type": "address"
        },
        {
          "internalType": "bytes",
          "name": "mssgHash",
          "type": "bytes"
        }
      ],
      "stateMutability": "view",
      "type": "function",
      "constant": true
    },
    {
      "inputs": [
        {
          "internalType": "address",
          "name": "",
          "type": "address"
        },
        {
          "internalType": "uint256",
          "name": "",
          "type": "uint256"
        }
      ],
      "name": "documentsSignedReceived",
      "outputs": [
        {
          "internalType": "bytes",
          "name": "signature",
          "type": "bytes"
        },
        {
          "internalType": "address",
          "name": "signer",
          "type": "address"
        },
        {
          "internalType": "address",
          "name": "receiver",
          "type": "address"
        },
        {
          "internalType": "bytes",
          "name": "mssgHash",
          "type": "bytes"
        }
      ],
      "stateMutability": "view",
      "type": "function",
      "constant": true
    },
    {
      "inputs": [
        {
          "internalType": "address",
          "name": "to",
          "type": "address"
        },
        {
          "internalType": "string",
          "name": "fileName",
          "type": "string"
        },
        {
          "internalType": "string",
          "name": "ipfsHash",
          "type": "string"
        }
      ],
      "name": "issueDocument",
      "outputs": [],
      "stateMutability": "nonpayable",
      "type": "function"
    },
    {
      "inputs": [
        {
          "internalType": "bytes",
          "name": "signature",
          "type": "bytes"
        },
        {
          "internalType": "bytes",
          "name": "mssgHash",
          "type": "bytes"
        },
        {
          "internalType": "address",
          "name": "receiver",
          "type": "address"
        }
      ],
      "name": "signDocument",
      "outputs": [],
      "stateMutability": "nonpayable",
      "type": "function"
    },
    {
      "inputs": [],
      "name": "getDocumentsIssued",
      "outputs": [
        {
          "components": [
            {
              "internalType": "address",
              "name": "from",
              "type": "address"
            },
            {
              "internalType": "address",
              "name": "to",
              "type": "address"
            },
            {
              "internalType": "string",
              "name": "fileName",
              "type": "string"
            },
            {
              "internalType": "string",
              "name": "ipfsHash",
              "type": "string"
            }
          ],
          "internalType": "struct Decaf.Document[]",
          "name": "",
          "type": "tuple[]"
        }
      ],
      "stateMutability": "view",
      "type": "function",
      "constant": true
    },
    {
      "inputs": [],
      "name": "getDocumentsReceived",
      "outputs": [
        {
          "components": [
            {
              "internalType": "address",
              "name": "from",
              "type": "address"
            },
            {
              "internalType": "address",
              "name": "to",
              "type": "address"
            },
            {
              "internalType": "string",
              "name": "fileName",
              "type": "string"
            },
            {
              "internalType": "string",
              "name": "ipfsHash",
              "type": "string"
            }
          ],
          "internalType": "struct Decaf.Document[]",
          "name": "",
          "type": "tuple[]"
        }
      ],
      "stateMutability": "view",
      "type": "function",
      "constant": true
    },
    {
      "inputs": [],
      "name": "getDocumentsSigned",
      "outputs": [
        {
          "components": [
            {
              "internalType": "bytes",
              "name": "signature",
              "type": "bytes"
            },
            {
              "internalType": "address",
              "name": "signer",
              "type": "address"
            },
            {
              "internalType": "address",
              "name": "receiver",
              "type": "address"
            },
            {
              "internalType": "bytes",
              "name": "mssgHash",
              "type": "bytes"
            }
          ],
          "internalType": "struct Decaf.DocumentSigned[]",
          "name": "",
          "type": "tuple[]"
        }
      ],
      "stateMutability": "view",
      "type": "function",
      "constant": true
    },
    {
      "inputs": [],
      "name": "getDocumentsSignedReceived",
      "outputs": [
        {
          "components": [
            {
              "internalType": "bytes",
              "name": "signature",
              "type": "bytes"
            },
            {
              "internalType": "address",
              "name": "signer",
              "type": "address"
            },
            {
              "internalType": "address",
              "name": "receiver",
              "type": "address"
            },
            {
              "internalType": "bytes",
              "name": "mssgHash",
              "type": "bytes"
            }
          ],
          "internalType": "struct Decaf.DocumentSigned[]",
          "name": "",
          "type": "tuple[]"
        }
      ],
      "stateMutability": "view",
      "type": "function",
      "constant": true
    }
  ],
  "bytecode": "0x608060405234801561001057600080fd5b50612367806100206000396000f3fe608060405234801561001057600080fd5b50600436106100bb576000357c0100000000000000000000000000000000000000000000000000000000900480639dafb60a116100835780639dafb60a1461017c578063ac011370146101af578063ac296834146101e2578063e11609c614610200578063e6ed799f1461021e576100bb565b80630de35f55146100c057806343bdc07e146100dc5780634a94f0ad146100fa5780636aa091131461012d57806399fe9d2114610160575b600080fd5b6100da60048036038101906100d59190611bd3565b61023c565b005b6100e4610531565b6040516100f19190611e21565b60405180910390f35b610114600480360381019061010f9190611e79565b61079c565b6040516101249493929190611f1d565b60405180910390f35b61014760048036038101906101429190611e79565b610939565b6040516101579493929190611fba565b60405180910390f35b61017a600480360381019061017591906120ae565b610ad6565b005b61019660048036038101906101919190611e79565b610dcc565b6040516101a69493929190611f1d565b60405180910390f35b6101c960048036038101906101c49190611e79565b610f69565b6040516101d99493929190611fba565b60405180910390f35b6101ea611106565b6040516101f79190611e21565b60405180910390f35b610208611372565b60405161021591906122af565b60405180910390f35b6102266115de565b60405161023391906122af565b60405180910390f35b61024461184a565b33816000019073ffffffffffffffffffffffffffffffffffffffff16908173ffffffffffffffffffffffffffffffffffffffff168152505083816020019073ffffffffffffffffffffffffffffffffffffffff16908173ffffffffffffffffffffffffffffffffffffffff16815250508281604001819052508181606001819052506000803373ffffffffffffffffffffffffffffffffffffffff1673ffffffffffffffffffffffffffffffffffffffff16815260200190815260200160002081908060018154018082558091505060019003906000526020600020906004020160009091909190915060008201518160000160006101000a81548173ffffffffffffffffffffffffffffffffffffffff021916908373ffffffffffffffffffffffffffffffffffffffff16021790555060208201518160010160006101000a81548173ffffffffffffffffffffffffffffffffffffffff021916908373ffffffffffffffffffffffffffffffffffffffff16021790555060408201518160020190805190602001906103d892919061189e565b5060608201518160030190805190602001906103f592919061189e565b505050600160008573ffffffffffffffffffffffffffffffffffffffff1673ffffffffffffffffffffffffffffffffffffffff16815260200190815260200160002081908060018154018082558091505060019003906000526020600020906004020160009091909190915060008201518160000160006101000a81548173ffffffffffffffffffffffffffffffffffffffff021916908373ffffffffffffffffffffffffffffffffffffffff16021790555060208201518160010160006101000a81548173ffffffffffffffffffffffffffffffffffffffff021916908373ffffffffffffffffffffffffffffffffffffffff160217905550604082015181600201908051906020019061050b92919061189e565b50606082015181600301908051906020019061052892919061189e565b50505050505050565b60606000803373ffffffffffffffffffffffffffffffffffffffff1673ffffffffffffffffffffffffffffffffffffffff168152602001908152602001600020805480602002602001604051908101604052809291908181526020016000905b8282101561079357838290600052602060002090600402016040518060800160405290816000820160009054906101000a900473ffffffffffffffffffffffffffffffffffffffff1673ffffffffffffffffffffffffffffffffffffffff1673ffffffffffffffffffffffffffffffffffffffff1681526020016001820160009054906101000a900473ffffffffffffffffffffffffffffffffffffffff1673ffffffffffffffffffffffffffffffffffffffff1673ffffffffffffffffffffffffffffffffffffffff16815260200160028201805461067090612300565b80601f016020809104026020016040519081016040528092919081815260200182805461069c90612300565b80156106e95780601f106106be576101008083540402835291602001916106e9565b820191906000526020600020905b8154815290600101906020018083116106cc57829003601f168201915b5050505050815260200160038201805461070290612300565b80601f016020809104026020016040519081016040528092919081815260200182805461072e90612300565b801561077b5780601f106107505761010080835404028352916020019161077b565b820191906000526020600020905b81548152906001019060200180831161075e57829003601f168201915b50505050508152505081526020019060010190610591565b50505050905090565b600360205281600052604060002081815481106107b857600080fd5b9060005260206000209060040201600091509150508060000180546107dc90612300565b80601f016020809104026020016040519081016040528092919081815260200182805461080890612300565b80156108555780601f1061082a57610100808354040283529160200191610855565b820191906000526020600020905b81548152906001019060200180831161083857829003601f168201915b5050505050908060010160009054906101000a900473ffffffffffffffffffffffffffffffffffffffff16908060020160009054906101000a900473ffffffffffffffffffffffffffffffffffffffff16908060030180546108b690612300565b80601f01602080910402602001604051908101604052809291908181526020018280546108e290612300565b801561092f5780601f106109045761010080835404028352916020019161092f565b820191906000526020600020905b81548152906001019060200180831161091257829003601f168201915b5050505050905084565b6000602052816000526040600020818154811061095557600080fd5b9060005260206000209060040201600091509150508060000160009054906101000a900473ffffffffffffffffffffffffffffffffffffffff16908060010160009054906101000a900473ffffffffffffffffffffffffffffffffffffffff16908060020180546109c590612300565b80601f01602080910402602001604051908101604052809291908181526020018280546109f190612300565b8015610a3e5780601f10610a1357610100808354040283529160200191610a3e565b820191906000526020600020905b815481529060010190602001808311610a2157829003601f168201915b505050505090806003018054610a5390612300565b80601f0160208091040260200160405190810160405280929190818152602001828054610a7f90612300565b8015610acc5780601f10610aa157610100808354040283529160200191610acc565b820191906000526020600020905b815481529060010190602001808311610aaf57829003601f168201915b5050505050905084565b610ade611924565b33816020019073ffffffffffffffffffffffffffffffffffffffff16908173ffffffffffffffffffffffffffffffffffffffff168152505083816000018190525082816060018190525081816040019073ffffffffffffffffffffffffffffffffffffffff16908173ffffffffffffffffffffffffffffffffffffffff1681525050600260003373ffffffffffffffffffffffffffffffffffffffff1673ffffffffffffffffffffffffffffffffffffffff1681526020019081526020016000208190806001815401808255809150506001900390600052602060002090600402016000909190919091506000820151816000019080519060200190610be5929190611978565b5060208201518160010160006101000a81548173ffffffffffffffffffffffffffffffffffffffff021916908373ffffffffffffffffffffffffffffffffffffffff16021790555060408201518160020160006101000a81548173ffffffffffffffffffffffffffffffffffffffff021916908373ffffffffffffffffffffffffffffffffffffffff1602179055506060820151816003019080519060200190610c90929190611978565b505050600360008373ffffffffffffffffffffffffffffffffffffffff1673ffffffffffffffffffffffffffffffffffffffff1681526020019081526020016000208190806001815401808255809150506001900390600052602060002090600402016000909190919091506000820151816000019080519060200190610d18929190611978565b5060208201518160010160006101000a81548173ffffffffffffffffffffffffffffffffffffffff021916908373ffffffffffffffffffffffffffffffffffffffff16021790555060408201518160020160006101000a81548173ffffffffffffffffffffffffffffffffffffffff021916908373ffffffffffffffffffffffffffffffffffffffff1602179055506060820151816003019080519060200190610dc3929190611978565b50505050505050565b60026020528160005260406000208181548110610de857600080fd5b906000526020600020906004020160009150915050806000018054610e0c90612300565b80601f0160208091040260200160405190810160405280929190818152602001828054610e3890612300565b8015610e855780601f10610e5a57610100808354040283529160200191610e85565b820191906000526020600020905b815481529060010190602001808311610e6857829003601f168201915b5050505050908060010160009054906101000a900473ffffffffffffffffffffffffffffffffffffffff16908060020160009054906101000a900473ffffffffffffffffffffffffffffffffffffffff1690806003018054610ee690612300565b80601f0160208091040260200160405190810160405280929190818152602001828054610f1290612300565b8015610f5f5780601f10610f3457610100808354040283529160200191610f5f565b820191906000526020600020905b815481529060010190602001808311610f4257829003601f168201915b5050505050905084565b60016020528160005260406000208181548110610f8557600080fd5b9060005260206000209060040201600091509150508060000160009054906101000a900473ffffffffffffffffffffffffffffffffffffffff16908060010160009054906101000a900473ffffffffffffffffffffffffffffffffffffffff1690806002018054610ff590612300565b80601f016020809104026020016040519081016040528092919081815260200182805461102190612300565b801561106e5780601f106110435761010080835404028352916020019161106e565b820191906000526020600020905b81548152906001019060200180831161105157829003601f168201915b50505050509080600301805461108390612300565b80601f01602080910402602001604051908101604052809291908181526020018280546110af90612300565b80156110fc5780601f106110d1576101008083540402835291602001916110fc565b820191906000526020600020905b8154815290600101906020018083116110df57829003601f168201915b5050505050905084565b6060600160003373ffffffffffffffffffffffffffffffffffffffff1673ffffffffffffffffffffffffffffffffffffffff168152602001908152602001600020805480602002602001604051908101604052809291908181526020016000905b8282101561136957838290600052602060002090600402016040518060800160405290816000820160009054906101000a900473ffffffffffffffffffffffffffffffffffffffff1673ffffffffffffffffffffffffffffffffffffffff1673ffffffffffffffffffffffffffffffffffffffff1681526020016001820160009054906101000a900473ffffffffffffffffffffffffffffffffffffffff1673ffffffffffffffffffffffffffffffffffffffff1673ffffffffffffffffffffffffffffffffffffffff16815260200160028201805461124690612300565b80601f016020809104026020016040519081016040528092919081815260200182805461127290612300565b80156112bf5780601f10611294576101008083540402835291602001916112bf565b820191906000526020600020905b8154815290600101906020018083116112a257829003601f168201915b505050505081526020016003820180546112d890612300565b80601f016020809104026020016040519081016040528092919081815260200182805461130490612300565b80156113515780601f1061132657610100808354040283529160200191611351565b820191906000526020600020905b81548152906001019060200180831161133457829003601f168201915b50505050508152505081526020019060010190611167565b50505050905090565b6060600360003373ffffffffffffffffffffffffffffffffffffffff1673ffffffffffffffffffffffffffffffffffffffff168152602001908152602001600020805480602002602001604051908101604052809291908181526020016000905b828210156115d5578382906000526020600020906004020160405180608001604052908160008201805461140690612300565b80601f016020809104026020016040519081016040528092919081815260200182805461143290612300565b801561147f5780601f106114545761010080835404028352916020019161147f565b820191906000526020600020905b81548152906001019060200180831161146257829003601f168201915b505050505081526020016001820160009054906101000a900473ffffffffffffffffffffffffffffffffffffffff1673ffffffffffffffffffffffffffffffffffffffff1673ffffffffffffffffffffffffffffffffffffffff1681526020016002820160009054906101000a900473ffffffffffffffffffffffffffffffffffffffff1673ffffffffffffffffffffffffffffffffffffffff1673ffffffffffffffffffffffffffffffffffffffff16815260200160038201805461154490612300565b80601f016020809104026020016040519081016040528092919081815260200182805461157090612300565b80156115bd5780601f10611592576101008083540402835291602001916115bd565b820191906000526020600020905b8154815290600101906020018083116115a057829003601f168201915b505050505081525050815260200190600101906113d3565b50505050905090565b6060600260003373ffffffffffffffffffffffffffffffffffffffff1673ffffffffffffffffffffffffffffffffffffffff168152602001908152602001600020805480602002602001604051908101604052809291908181526020016000905b82821015611841578382906000526020600020906004020160405180608001604052908160008201805461167290612300565b80601f016020809104026020016040519081016040528092919081815260200182805461169e90612300565b80156116eb5780601f106116c0576101008083540402835291602001916116eb565b820191906000526020600020905b8154815290600101906020018083116116ce57829003601f168201915b505050505081526020016001820160009054906101000a900473ffffffffffffffffffffffffffffffffffffffff1673ffffffffffffffffffffffffffffffffffffffff1673ffffffffffffffffffffffffffffffffffffffff1681526020016002820160009054906101000a900473ffffffffffffffffffffffffffffffffffffffff1673ffffffffffffffffffffffffffffffffffffffff1673ffffffffffffffffffffffffffffffffffffffff1681526020016003820180546117b090612300565b80601f01602080910402602001604051908101604052809291908181526020018280546117dc90612300565b80156118295780601f106117fe57610100808354040283529160200191611829565b820191906000526020600020905b81548152906001019060200180831161180c57829003601f168201915b5050505050815250508152602001906001019061163f565b50505050905090565b6040518060800160405280600073ffffffffffffffffffffffffffffffffffffffff168152602001600073ffffffffffffffffffffffffffffffffffffffff16815260200160608152602001606081525090565b8280546118aa90612300565b90600052602060002090601f0160209004810192826118cc5760008555611913565b82601f106118e557805160ff1916838001178555611913565b82800160010185558215611913579182015b828111156119125782518255916020019190600101906118f7565b5b50905061192091906119fe565b5090565b604051806080016040528060608152602001600073ffffffffffffffffffffffffffffffffffffffff168152602001600073ffffffffffffffffffffffffffffffffffffffff168152602001606081525090565b82805461198490612300565b90600052602060002090601f0160209004810192826119a657600085556119ed565b82601f106119bf57805160ff19168380011785556119ed565b828001600101855582156119ed579182015b828111156119ec5782518255916020019190600101906119d1565b5b5090506119fa91906119fe565b5090565b5b80821115611a175760008160009055506001016119ff565b5090565b6000604051905090565b600080fd5b600080fd5b600073ffffffffffffffffffffffffffffffffffffffff82169050919050565b6000611a5a82611a2f565b9050919050565b611a6a81611a4f565b8114611a7557600080fd5b50565b600081359050611a8781611a61565b92915050565b600080fd5b600080fd5b6000601f19601f8301169050919050565b7f4e487b7100000000000000000000000000000000000000000000000000000000600052604160045260246000fd5b611ae082611a97565b810181811067ffffffffffffffff82111715611aff57611afe611aa8565b5b80604052505050565b6000611b12611a1b565b9050611b1e8282611ad7565b919050565b600067ffffffffffffffff821115611b3e57611b3d611aa8565b5b611b4782611a97565b9050602081019050919050565b82818337600083830152505050565b6000611b76611b7184611b23565b611b08565b905082815260208101848484011115611b9257611b91611a92565b5b611b9d848285611b54565b509392505050565b600082601f830112611bba57611bb9611a8d565b5b8135611bca848260208601611b63565b91505092915050565b600080600060608486031215611bec57611beb611a25565b5b6000611bfa86828701611a78565b935050602084013567ffffffffffffffff811115611c1b57611c1a611a2a565b5b611c2786828701611ba5565b925050604084013567ffffffffffffffff811115611c4857611c47611a2a565b5b611c5486828701611ba5565b9150509250925092565b600081519050919050565b600082825260208201905092915050565b6000819050602082019050919050565b611c9381611a4f565b82525050565b600081519050919050565b600082825260208201905092915050565b60005b83811015611cd3578082015181840152602081019050611cb8565b83811115611ce2576000848401525b50505050565b6000611cf382611c99565b611cfd8185611ca4565b9350611d0d818560208601611cb5565b611d1681611a97565b840191505092915050565b6000608083016000830151611d396000860182611c8a565b506020830151611d4c6020860182611c8a565b5060408301518482036040860152611d648282611ce8565b91505060608301518482036060860152611d7e8282611ce8565b9150508091505092915050565b6000611d978383611d21565b905092915050565b6000602082019050919050565b6000611db782611c5e565b611dc18185611c69565b935083602082028501611dd385611c7a565b8060005b85811015611e0f5784840389528151611df08582611d8b565b9450611dfb83611d9f565b925060208a01995050600181019050611dd7565b50829750879550505050505092915050565b60006020820190508181036000830152611e3b8184611dac565b905092915050565b6000819050919050565b611e5681611e43565b8114611e6157600080fd5b50565b600081359050611e7381611e4d565b92915050565b60008060408385031215611e9057611e8f611a25565b5b6000611e9e85828601611a78565b9250506020611eaf85828601611e64565b9150509250929050565b600081519050919050565b600082825260208201905092915050565b6000611ee082611eb9565b611eea8185611ec4565b9350611efa818560208601611cb5565b611f0381611a97565b840191505092915050565b611f1781611a4f565b82525050565b60006080820190508181036000830152611f378187611ed5565b9050611f466020830186611f0e565b611f536040830185611f0e565b8181036060830152611f658184611ed5565b905095945050505050565b600082825260208201905092915050565b6000611f8c82611c99565b611f968185611f70565b9350611fa6818560208601611cb5565b611faf81611a97565b840191505092915050565b6000608082019050611fcf6000830187611f0e565b611fdc6020830186611f0e565b8181036040830152611fee8185611f81565b905081810360608301526120028184611f81565b905095945050505050565b600067ffffffffffffffff82111561202857612027611aa8565b5b61203182611a97565b9050602081019050919050565b600061205161204c8461200d565b611b08565b90508281526020810184848401111561206d5761206c611a92565b5b612078848285611b54565b509392505050565b600082601f83011261209557612094611a8d565b5b81356120a584826020860161203e565b91505092915050565b6000806000606084860312156120c7576120c6611a25565b5b600084013567ffffffffffffffff8111156120e5576120e4611a2a565b5b6120f186828701612080565b935050602084013567ffffffffffffffff81111561211257612111611a2a565b5b61211e86828701612080565b925050604061212f86828701611a78565b9150509250925092565b600081519050919050565b600082825260208201905092915050565b6000819050602082019050919050565b600082825260208201905092915050565b600061218182611eb9565b61218b8185612165565b935061219b818560208601611cb5565b6121a481611a97565b840191505092915050565b600060808301600083015184820360008601526121cc8282612176565b91505060208301516121e16020860182611c8a565b5060408301516121f46040860182611c8a565b506060830151848203606086015261220c8282612176565b9150508091505092915050565b600061222583836121af565b905092915050565b6000602082019050919050565b600061224582612139565b61224f8185612144565b93508360208202850161226185612155565b8060005b8581101561229d578484038952815161227e8582612219565b94506122898361222d565b925060208a01995050600181019050612265565b50829750879550505050505092915050565b600060208201905081810360008301526122c9818461223a565b905092915050565b7f4e487b7100000000000000000000000000000000000000000000000000000000600052602260045260246000fd5b6000600282049050600182168061231857607f821691505b60208210810361232b5761232a6122d1565b5b5091905056fea2646970667358221220da10bd75343d3c573901fcf776639c2822d5755f0f0db07fe73c5f784b573e9164736f6c634300080d0033",
  "immutableReferences": {},
  "source": "// SPDX-License-Identifier: MIT\npragma solidity >=0.8.1;\npragma abicoder v2;\n\ncontract Decaf {\n    struct Document {\n        address from;\n        address to;\n        string fileName;\n        string ipfsHash;\n    }\n\n    struct DocumentSigned {\n        bytes signature;\n        address signer;\n        address receiver;\n        bytes mssgHash;\n    }\n\n    mapping(address => Document[]) public documentsIssued;\n    mapping(address => Document[]) public documentsReceived;\n    \n    mapping(address => DocumentSigned[]) public documentsSigned;\n    mapping(address => DocumentSigned[]) public documentsSignedReceived;\n\n\n    function issueDocument(\n        address to,\n        string memory fileName,\n        string memory ipfsHash\n    ) public {\n        Document memory document;\n        document.from = msg.sender;\n        document.to = to;\n        document.fileName = fileName;\n        document.ipfsHash = ipfsHash;\n\n        documentsIssued[msg.sender].push(document);\n        documentsReceived[to].push(document);\n    }\n\n    function signDocument(bytes memory signature, bytes memory mssgHash, address receiver)\n        public\n    {\n        DocumentSigned memory document;\n        document.signer = msg.sender;\n        document.signature = signature;\n        document.mssgHash = mssgHash;\n        document.receiver = receiver;\n        documentsSigned[msg.sender].push(document);\n        documentsSignedReceived[receiver].push(document);\n    }\n\n    function getDocumentsIssued() public view returns (Document[] memory) {\n        return documentsIssued[msg.sender];\n    }\n\n    function getDocumentsReceived() public view returns (Document[] memory) {\n        return documentsReceived[msg.sender];\n    }\n\n    function getDocumentsSigned()\n        public\n        view\n        returns (DocumentSigned[] memory)\n    {\n        return documentsSigned[msg.sender];\n    }\n\n\n    function getDocumentsSignedReceived()\n        public\n        view\n        returns (DocumentSigned[] memory)\n    {\n        return documentsSignedReceived[msg.sender];\n    }\n\n}\n",
  "sourcePath": "/Users/shreyasmore/Desktop/Final_Project/DECAF/DECAF-React/contracts/Decaf.sol",
  "compiler": {
    "name": "solc",
    "version": "0.8.13+commit.abaa5c0e.Emscripten.clang"
  },
  "schemaVersion": "3.4.4",
  "updatedAt": "2022-03-18T07:58:47.734Z",
  "networkType": "ethereum",
  "devdoc": {
    "kind": "dev",
    "methods": {},
    "version": 1
  },
  "userdoc": {
    "kind": "user",
    "methods": {},
    "version": 1
  }
}