{
  "contractName": "Decaf",
  "abi": [
    {
      "inputs": [
        {
          "internalType": "address",
          "name": "",
          "type": "address"
        },
        {
          "internalType": "uint256",
          "name": "",
          "type": "uint256"
        }
      ],
      "name": "documentsIssued",
      "outputs": [
        {
          "internalType": "address",
          "name": "from",
          "type": "address"
        },
        {
          "internalType": "address",
          "name": "to",
          "type": "address"
        },
        {
          "internalType": "string",
          "name": "fileName",
          "type": "string"
        },
        {
          "internalType": "string",
          "name": "ipfsHash",
          "type": "string"
        },
        {
          "internalType": "bool",
          "name": "access",
          "type": "bool"
        }
      ],
      "stateMutability": "view",
      "type": "function"
    },
    {
      "inputs": [
        {
          "internalType": "address",
          "name": "",
          "type": "address"
        },
        {
          "internalType": "uint256",
          "name": "",
          "type": "uint256"
        }
      ],
      "name": "documentsReceived",
      "outputs": [
        {
          "internalType": "address",
          "name": "from",
          "type": "address"
        },
        {
          "internalType": "address",
          "name": "to",
          "type": "address"
        },
        {
          "internalType": "string",
          "name": "fileName",
          "type": "string"
        },
        {
          "internalType": "string",
          "name": "ipfsHash",
          "type": "string"
        },
        {
          "internalType": "bool",
          "name": "access",
          "type": "bool"
        }
      ],
      "stateMutability": "view",
      "type": "function"
    },
    {
      "inputs": [
        {
          "internalType": "address",
          "name": "",
          "type": "address"
        },
        {
          "internalType": "uint256",
          "name": "",
          "type": "uint256"
        }
      ],
      "name": "documentsSigned",
      "outputs": [
        {
          "internalType": "bytes",
          "name": "signature",
          "type": "bytes"
        },
        {
          "internalType": "address",
          "name": "signer",
          "type": "address"
        },
        {
          "internalType": "address",
          "name": "receiver",
          "type": "address"
        },
        {
          "internalType": "bytes",
          "name": "mssgHash",
          "type": "bytes"
        }
      ],
      "stateMutability": "view",
      "type": "function"
    },
    {
      "inputs": [
        {
          "internalType": "address",
          "name": "",
          "type": "address"
        },
        {
          "internalType": "uint256",
          "name": "",
          "type": "uint256"
        }
      ],
      "name": "documentsSignedReceived",
      "outputs": [
        {
          "internalType": "bytes",
          "name": "signature",
          "type": "bytes"
        },
        {
          "internalType": "address",
          "name": "signer",
          "type": "address"
        },
        {
          "internalType": "address",
          "name": "receiver",
          "type": "address"
        },
        {
          "internalType": "bytes",
          "name": "mssgHash",
          "type": "bytes"
        }
      ],
      "stateMutability": "view",
      "type": "function"
    },
    {
      "inputs": [
        {
          "internalType": "address",
          "name": "to",
          "type": "address"
        },
        {
          "internalType": "string",
          "name": "fileName",
          "type": "string"
        },
        {
          "internalType": "string",
          "name": "ipfsHash",
          "type": "string"
        }
      ],
      "name": "issueDocument",
      "outputs": [],
      "stateMutability": "nonpayable",
      "type": "function"
    },
    {
      "inputs": [
        {
          "internalType": "bytes",
          "name": "signature",
          "type": "bytes"
        },
        {
          "internalType": "bytes",
          "name": "mssgHash",
          "type": "bytes"
        },
        {
          "internalType": "address",
          "name": "receiver",
          "type": "address"
        }
      ],
      "name": "signDocument",
      "outputs": [],
      "stateMutability": "nonpayable",
      "type": "function"
    },
    {
      "inputs": [],
      "name": "getDocumentsIssued",
      "outputs": [
        {
          "components": [
            {
              "internalType": "address",
              "name": "from",
              "type": "address"
            },
            {
              "internalType": "address",
              "name": "to",
              "type": "address"
            },
            {
              "internalType": "string",
              "name": "fileName",
              "type": "string"
            },
            {
              "internalType": "string",
              "name": "ipfsHash",
              "type": "string"
            },
            {
              "internalType": "bool",
              "name": "access",
              "type": "bool"
            }
          ],
          "internalType": "struct Decaf.Document[]",
          "name": "",
          "type": "tuple[]"
        }
      ],
      "stateMutability": "view",
      "type": "function"
    },
    {
      "inputs": [],
      "name": "getDocumentsReceived",
      "outputs": [
        {
          "components": [
            {
              "internalType": "address",
              "name": "from",
              "type": "address"
            },
            {
              "internalType": "address",
              "name": "to",
              "type": "address"
            },
            {
              "internalType": "string",
              "name": "fileName",
              "type": "string"
            },
            {
              "internalType": "string",
              "name": "ipfsHash",
              "type": "string"
            },
            {
              "internalType": "bool",
              "name": "access",
              "type": "bool"
            }
          ],
          "internalType": "struct Decaf.Document[]",
          "name": "",
          "type": "tuple[]"
        }
      ],
      "stateMutability": "view",
      "type": "function"
    },
    {
      "inputs": [
        {
          "internalType": "address",
          "name": "user",
          "type": "address"
        },
        {
          "components": [
            {
              "internalType": "address",
              "name": "from",
              "type": "address"
            },
            {
              "internalType": "address",
              "name": "to",
              "type": "address"
            },
            {
              "internalType": "string",
              "name": "fileName",
              "type": "string"
            },
            {
              "internalType": "string",
              "name": "ipfsHash",
              "type": "string"
            },
            {
              "internalType": "bool",
              "name": "access",
              "type": "bool"
            }
          ],
          "internalType": "struct Decaf.Document",
          "name": "doc",
          "type": "tuple"
        }
      ],
      "name": "revokeDocument",
      "outputs": [],
      "stateMutability": "nonpayable",
      "type": "function"
    },
    {
      "inputs": [],
      "name": "getDocumentsSigned",
      "outputs": [
        {
          "components": [
            {
              "internalType": "bytes",
              "name": "signature",
              "type": "bytes"
            },
            {
              "internalType": "address",
              "name": "signer",
              "type": "address"
            },
            {
              "internalType": "address",
              "name": "receiver",
              "type": "address"
            },
            {
              "internalType": "bytes",
              "name": "mssgHash",
              "type": "bytes"
            }
          ],
          "internalType": "struct Decaf.DocumentSigned[]",
          "name": "",
          "type": "tuple[]"
        }
      ],
      "stateMutability": "view",
      "type": "function"
    },
    {
      "inputs": [],
      "name": "getDocumentsSignedReceived",
      "outputs": [
        {
          "components": [
            {
              "internalType": "bytes",
              "name": "signature",
              "type": "bytes"
            },
            {
              "internalType": "address",
              "name": "signer",
              "type": "address"
            },
            {
              "internalType": "address",
              "name": "receiver",
              "type": "address"
            },
            {
              "internalType": "bytes",
              "name": "mssgHash",
              "type": "bytes"
            }
          ],
          "internalType": "struct Decaf.DocumentSigned[]",
          "name": "",
          "type": "tuple[]"
        }
      ],
      "stateMutability": "view",
      "type": "function"
    }
  ],
  "bytecode": "0x608060405234801561001057600080fd5b506138a0806100206000396000f3fe608060405234801561001057600080fd5b50600436106100c6576000357c01000000000000000000000000000000000000000000000000000000009004806399fe9d211161008e57806399fe9d21146101885780639dafb60a146101a4578063ac011370146101d7578063ac2968341461020b578063e11609c614610229578063e6ed799f14610247576100c6565b80630de35f55146100cb57806343bdc07e146100e75780634a94f0ad14610105578063603128e3146101385780636aa0911314610154575b600080fd5b6100e560048036038101906100e09190612dcb565b610265565b005b6100ef6105ab565b6040516100fc9190613047565b60405180910390f35b61011f600480360381019061011a919061309f565b610831565b60405161012f9493929190613143565b60405180910390f35b610152600480360381019061014d9190613290565b6109ce565b005b61016e6004803603810190610169919061309f565b6119b5565b60405161017f959493929190613345565b60405180910390f35b6101a2600480360381019061019d9190613447565b611b65565b005b6101be60048036038101906101b9919061309f565b611e5b565b6040516101ce9493929190613143565b60405180910390f35b6101f160048036038101906101ec919061309f565b611ff8565b604051610202959493929190613345565b60405180910390f35b6102136121a8565b6040516102209190613047565b60405180910390f35b61023161242f565b60405161023e9190613648565b60405180910390f35b61024f61269b565b60405161025c9190613648565b60405180910390f35b61026d6129f9565b33816000019073ffffffffffffffffffffffffffffffffffffffff16908173ffffffffffffffffffffffffffffffffffffffff168152505083816020019073ffffffffffffffffffffffffffffffffffffffff16908173ffffffffffffffffffffffffffffffffffffffff168152505082816040018190525081816060018190525060018160800190151590811515815250506000803373ffffffffffffffffffffffffffffffffffffffff1673ffffffffffffffffffffffffffffffffffffffff16815260200190815260200160002081908060018154018082558091505060019003906000526020600020906005020160009091909190915060008201518160000160006101000a81548173ffffffffffffffffffffffffffffffffffffffff021916908373ffffffffffffffffffffffffffffffffffffffff16021790555060208201518160010160006101000a81548173ffffffffffffffffffffffffffffffffffffffff021916908373ffffffffffffffffffffffffffffffffffffffff1602179055506040820151816002019080519060200190610412929190612a56565b50606082015181600301908051906020019061042f929190612a56565b5060808201518160040160006101000a81548160ff0219169083151502179055505050600160008573ffffffffffffffffffffffffffffffffffffffff1673ffffffffffffffffffffffffffffffffffffffff16815260200190815260200160002081908060018154018082558091505060019003906000526020600020906005020160009091909190915060008201518160000160006101000a81548173ffffffffffffffffffffffffffffffffffffffff021916908373ffffffffffffffffffffffffffffffffffffffff16021790555060208201518160010160006101000a81548173ffffffffffffffffffffffffffffffffffffffff021916908373ffffffffffffffffffffffffffffffffffffffff1602179055506040820151816002019080519060200190610565929190612a56565b506060820151816003019080519060200190610582929190612a56565b5060808201518160040160006101000a81548160ff021916908315150217905550505050505050565b60606000803373ffffffffffffffffffffffffffffffffffffffff1673ffffffffffffffffffffffffffffffffffffffff168152602001908152602001600020805480602002602001604051908101604052809291908181526020016000905b8282101561082857838290600052602060002090600502016040518060a00160405290816000820160009054906101000a900473ffffffffffffffffffffffffffffffffffffffff1673ffffffffffffffffffffffffffffffffffffffff1673ffffffffffffffffffffffffffffffffffffffff1681526020016001820160009054906101000a900473ffffffffffffffffffffffffffffffffffffffff1673ffffffffffffffffffffffffffffffffffffffff1673ffffffffffffffffffffffffffffffffffffffff1681526020016002820180546106ea90613699565b80601f016020809104026020016040519081016040528092919081815260200182805461071690613699565b80156107635780601f1061073857610100808354040283529160200191610763565b820191906000526020600020905b81548152906001019060200180831161074657829003601f168201915b5050505050815260200160038201805461077c90613699565b80601f01602080910402602001604051908101604052809291908181526020018280546107a890613699565b80156107f55780601f106107ca576101008083540402835291602001916107f5565b820191906000526020600020905b8154815290600101906020018083116107d857829003601f168201915b505050505081526020016004820160009054906101000a900460ff1615151515815250508152602001906001019061060b565b50505050905090565b6003602052816000526040600020818154811061084d57600080fd5b90600052602060002090600402016000915091505080600001805461087190613699565b80601f016020809104026020016040519081016040528092919081815260200182805461089d90613699565b80156108ea5780601f106108bf576101008083540402835291602001916108ea565b820191906000526020600020905b8154815290600101906020018083116108cd57829003601f168201915b5050505050908060010160009054906101000a900473ffffffffffffffffffffffffffffffffffffffff16908060020160009054906101000a900473ffffffffffffffffffffffffffffffffffffffff169080600301805461094b90613699565b80601f016020809104026020016040519081016040528092919081815260200182805461097790613699565b80156109c45780601f10610999576101008083540402835291602001916109c4565b820191906000526020600020905b8154815290600101906020018083116109a757829003601f168201915b5050505050905084565b60008060003373ffffffffffffffffffffffffffffffffffffffff1673ffffffffffffffffffffffffffffffffffffffff168152602001908152602001600020805480602002602001604051908101604052809291908181526020016000905b82821015610c4b57838290600052602060002090600502016040518060a00160405290816000820160009054906101000a900473ffffffffffffffffffffffffffffffffffffffff1673ffffffffffffffffffffffffffffffffffffffff1673ffffffffffffffffffffffffffffffffffffffff1681526020016001820160009054906101000a900473ffffffffffffffffffffffffffffffffffffffff1673ffffffffffffffffffffffffffffffffffffffff1673ffffffffffffffffffffffffffffffffffffffff168152602001600282018054610b0d90613699565b80601f0160208091040260200160405190810160405280929190818152602001828054610b3990613699565b8015610b865780601f10610b5b57610100808354040283529160200191610b86565b820191906000526020600020905b815481529060010190602001808311610b6957829003601f168201915b50505050508152602001600382018054610b9f90613699565b80601f0160208091040260200160405190810160405280929190818152602001828054610bcb90613699565b8015610c185780601f10610bed57610100808354040283529160200191610c18565b820191906000526020600020905b815481529060010190602001808311610bfb57829003601f168201915b505050505081526020016004820160009054906101000a900460ff16151515158152505081526020019060010190610a2e565b5050505090506000600160008573ffffffffffffffffffffffffffffffffffffffff1673ffffffffffffffffffffffffffffffffffffffff168152602001908152602001600020805480602002602001604051908101604052809291908181526020016000905b82821015610ecf57838290600052602060002090600502016040518060a00160405290816000820160009054906101000a900473ffffffffffffffffffffffffffffffffffffffff1673ffffffffffffffffffffffffffffffffffffffff1673ffffffffffffffffffffffffffffffffffffffff1681526020016001820160009054906101000a900473ffffffffffffffffffffffffffffffffffffffff1673ffffffffffffffffffffffffffffffffffffffff1673ffffffffffffffffffffffffffffffffffffffff168152602001600282018054610d9190613699565b80601f0160208091040260200160405190810160405280929190818152602001828054610dbd90613699565b8015610e0a5780601f10610ddf57610100808354040283529160200191610e0a565b820191906000526020600020905b815481529060010190602001808311610ded57829003601f168201915b50505050508152602001600382018054610e2390613699565b80601f0160208091040260200160405190810160405280929190818152602001828054610e4f90613699565b8015610e9c5780601f10610e7157610100808354040283529160200191610e9c565b820191906000526020600020905b815481529060010190602001808311610e7f57829003601f168201915b505050505081526020016004820160009054906101000a900460ff16151515158152505081526020019060010190610cb2565b50505050905060008060008673ffffffffffffffffffffffffffffffffffffffff1673ffffffffffffffffffffffffffffffffffffffff168152602001908152602001600020805480602002602001604051908101604052809291908181526020016000905b8282101561115257838290600052602060002090600502016040518060a00160405290816000820160009054906101000a900473ffffffffffffffffffffffffffffffffffffffff1673ffffffffffffffffffffffffffffffffffffffff1673ffffffffffffffffffffffffffffffffffffffff1681526020016001820160009054906101000a900473ffffffffffffffffffffffffffffffffffffffff1673ffffffffffffffffffffffffffffffffffffffff1673ffffffffffffffffffffffffffffffffffffffff16815260200160028201805461101490613699565b80601f016020809104026020016040519081016040528092919081815260200182805461104090613699565b801561108d5780601f106110625761010080835404028352916020019161108d565b820191906000526020600020905b81548152906001019060200180831161107057829003601f168201915b505050505081526020016003820180546110a690613699565b80601f01602080910402602001604051908101604052809291908181526020018280546110d290613699565b801561111f5780601f106110f45761010080835404028352916020019161111f565b820191906000526020600020905b81548152906001019060200180831161110257829003601f168201915b505050505081526020016004820160009054906101000a900460ff16151515158152505081526020019060010190610f35565b50505050905060005b835181101561121b5761118884828151811061117a576111796136ca565b5b602002602001015186612907565b156112085760008060003373ffffffffffffffffffffffffffffffffffffffff1673ffffffffffffffffffffffffffffffffffffffff16815260200190815260200160002082815481106111df576111de6136ca565b5b906000526020600020906005020160040160006101000a81548160ff0219169083151502179055505b808061121390613728565b91505061115b565b5060005b82518110156113495761124c83828151811061123e5761123d6136ca565b5b60200260200101518661298c565b1561133657600160008773ffffffffffffffffffffffffffffffffffffffff1673ffffffffffffffffffffffffffffffffffffffff16815260200190815260200160002081815481106112a2576112a16136ca565b5b9060005260206000209060050201600080820160006101000a81549073ffffffffffffffffffffffffffffffffffffffff02191690556001820160006101000a81549073ffffffffffffffffffffffffffffffffffffffff021916905560028201600061130f9190612adc565b60038201600061131f9190612adc565b6004820160006101000a81549060ff021916905550505b808061134190613728565b91505061121f565b5060005b815181101561155a5761137a82828151811061136c5761136b6136ca565b5b60200260200101518661298c565b156115475760046000808873ffffffffffffffffffffffffffffffffffffffff1673ffffffffffffffffffffffffffffffffffffffff16815260200190815260200160002082815481106113d1576113d06136ca565b5b906000526020600020906005020160010160009054906101000a900473ffffffffffffffffffffffffffffffffffffffff169080600181540180825580915050600190039060005260206000200160009091909190916101000a81548173ffffffffffffffffffffffffffffffffffffffff021916908373ffffffffffffffffffffffffffffffffffffffff1602179055506000808773ffffffffffffffffffffffffffffffffffffffff1673ffffffffffffffffffffffffffffffffffffffff16815260200190815260200160002081815481106114b3576114b26136ca565b5b9060005260206000209060050201600080820160006101000a81549073ffffffffffffffffffffffffffffffffffffffff02191690556001820160006101000a81549073ffffffffffffffffffffffffffffffffffffffff02191690556002820160006115209190612adc565b6003820160006115309190612adc565b6004820160006101000a81549060ff021916905550505b808061155290613728565b91505061134d565b5060005b6004805490508110156119ad5760006001600060048481548110611585576115846136ca565b5b9060005260206000200160009054906101000a900473ffffffffffffffffffffffffffffffffffffffff1673ffffffffffffffffffffffffffffffffffffffff1673ffffffffffffffffffffffffffffffffffffffff168152602001908152602001600020805480602002602001604051908101604052809291908181526020016000905b8282101561182757838290600052602060002090600502016040518060a00160405290816000820160009054906101000a900473ffffffffffffffffffffffffffffffffffffffff1673ffffffffffffffffffffffffffffffffffffffff1673ffffffffffffffffffffffffffffffffffffffff1681526020016001820160009054906101000a900473ffffffffffffffffffffffffffffffffffffffff1673ffffffffffffffffffffffffffffffffffffffff1673ffffffffffffffffffffffffffffffffffffffff1681526020016002820180546116e990613699565b80601f016020809104026020016040519081016040528092919081815260200182805461171590613699565b80156117625780601f1061173757610100808354040283529160200191611762565b820191906000526020600020905b81548152906001019060200180831161174557829003601f168201915b5050505050815260200160038201805461177b90613699565b80601f01602080910402602001604051908101604052809291908181526020018280546117a790613699565b80156117f45780601f106117c9576101008083540402835291602001916117f4565b820191906000526020600020905b8154815290600101906020018083116117d757829003601f168201915b505050505081526020016004820160009054906101000a900460ff1615151515815250508152602001906001019061160a565b50505050905060005b81518110156119985761185d82828151811061184f5761184e6136ca565b5b60200260200101518861298c565b1561198557600160006004858154811061187a576118796136ca565b5b9060005260206000200160009054906101000a900473ffffffffffffffffffffffffffffffffffffffff1673ffffffffffffffffffffffffffffffffffffffff1673ffffffffffffffffffffffffffffffffffffffff16815260200190815260200160002081815481106118f1576118f06136ca565b5b9060005260206000209060050201600080820160006101000a81549073ffffffffffffffffffffffffffffffffffffffff02191690556001820160006101000a81549073ffffffffffffffffffffffffffffffffffffffff021916905560028201600061195e9190612adc565b60038201600061196e9190612adc565b6004820160006101000a81549060ff021916905550505b808061199090613728565b915050611830565b505080806119a590613728565b91505061155e565b505050505050565b600060205281600052604060002081815481106119d157600080fd5b9060005260206000209060050201600091509150508060000160009054906101000a900473ffffffffffffffffffffffffffffffffffffffff16908060010160009054906101000a900473ffffffffffffffffffffffffffffffffffffffff1690806002018054611a4190613699565b80601f0160208091040260200160405190810160405280929190818152602001828054611a6d90613699565b8015611aba5780601f10611a8f57610100808354040283529160200191611aba565b820191906000526020600020905b815481529060010190602001808311611a9d57829003601f168201915b505050505090806003018054611acf90613699565b80601f0160208091040260200160405190810160405280929190818152602001828054611afb90613699565b8015611b485780601f10611b1d57610100808354040283529160200191611b48565b820191906000526020600020905b815481529060010190602001808311611b2b57829003601f168201915b5050505050908060040160009054906101000a900460ff16905085565b611b6d612b1c565b33816020019073ffffffffffffffffffffffffffffffffffffffff16908173ffffffffffffffffffffffffffffffffffffffff168152505083816000018190525082816060018190525081816040019073ffffffffffffffffffffffffffffffffffffffff16908173ffffffffffffffffffffffffffffffffffffffff1681525050600260003373ffffffffffffffffffffffffffffffffffffffff1673ffffffffffffffffffffffffffffffffffffffff1681526020019081526020016000208190806001815401808255809150506001900390600052602060002090600402016000909190919091506000820151816000019080519060200190611c74929190612b70565b5060208201518160010160006101000a81548173ffffffffffffffffffffffffffffffffffffffff021916908373ffffffffffffffffffffffffffffffffffffffff16021790555060408201518160020160006101000a81548173ffffffffffffffffffffffffffffffffffffffff021916908373ffffffffffffffffffffffffffffffffffffffff1602179055506060820151816003019080519060200190611d1f929190612b70565b505050600360008373ffffffffffffffffffffffffffffffffffffffff1673ffffffffffffffffffffffffffffffffffffffff1681526020019081526020016000208190806001815401808255809150506001900390600052602060002090600402016000909190919091506000820151816000019080519060200190611da7929190612b70565b5060208201518160010160006101000a81548173ffffffffffffffffffffffffffffffffffffffff021916908373ffffffffffffffffffffffffffffffffffffffff16021790555060408201518160020160006101000a81548173ffffffffffffffffffffffffffffffffffffffff021916908373ffffffffffffffffffffffffffffffffffffffff1602179055506060820151816003019080519060200190611e52929190612b70565b50505050505050565b60026020528160005260406000208181548110611e7757600080fd5b906000526020600020906004020160009150915050806000018054611e9b90613699565b80601f0160208091040260200160405190810160405280929190818152602001828054611ec790613699565b8015611f145780601f10611ee957610100808354040283529160200191611f14565b820191906000526020600020905b815481529060010190602001808311611ef757829003601f168201915b5050505050908060010160009054906101000a900473ffffffffffffffffffffffffffffffffffffffff16908060020160009054906101000a900473ffffffffffffffffffffffffffffffffffffffff1690806003018054611f7590613699565b80601f0160208091040260200160405190810160405280929190818152602001828054611fa190613699565b8015611fee5780601f10611fc357610100808354040283529160200191611fee565b820191906000526020600020905b815481529060010190602001808311611fd157829003601f168201915b5050505050905084565b6001602052816000526040600020818154811061201457600080fd5b9060005260206000209060050201600091509150508060000160009054906101000a900473ffffffffffffffffffffffffffffffffffffffff16908060010160009054906101000a900473ffffffffffffffffffffffffffffffffffffffff169080600201805461208490613699565b80601f01602080910402602001604051908101604052809291908181526020018280546120b090613699565b80156120fd5780601f106120d2576101008083540402835291602001916120fd565b820191906000526020600020905b8154815290600101906020018083116120e057829003601f168201915b50505050509080600301805461211290613699565b80601f016020809104026020016040519081016040528092919081815260200182805461213e90613699565b801561218b5780601f106121605761010080835404028352916020019161218b565b820191906000526020600020905b81548152906001019060200180831161216e57829003601f168201915b5050505050908060040160009054906101000a900460ff16905085565b6060600160003373ffffffffffffffffffffffffffffffffffffffff1673ffffffffffffffffffffffffffffffffffffffff168152602001908152602001600020805480602002602001604051908101604052809291908181526020016000905b8282101561242657838290600052602060002090600502016040518060a00160405290816000820160009054906101000a900473ffffffffffffffffffffffffffffffffffffffff1673ffffffffffffffffffffffffffffffffffffffff1673ffffffffffffffffffffffffffffffffffffffff1681526020016001820160009054906101000a900473ffffffffffffffffffffffffffffffffffffffff1673ffffffffffffffffffffffffffffffffffffffff1673ffffffffffffffffffffffffffffffffffffffff1681526020016002820180546122e890613699565b80601f016020809104026020016040519081016040528092919081815260200182805461231490613699565b80156123615780601f1061233657610100808354040283529160200191612361565b820191906000526020600020905b81548152906001019060200180831161234457829003601f168201915b5050505050815260200160038201805461237a90613699565b80601f01602080910402602001604051908101604052809291908181526020018280546123a690613699565b80156123f35780601f106123c8576101008083540402835291602001916123f3565b820191906000526020600020905b8154815290600101906020018083116123d657829003601f168201915b505050505081526020016004820160009054906101000a900460ff16151515158152505081526020019060010190612209565b50505050905090565b6060600360003373ffffffffffffffffffffffffffffffffffffffff1673ffffffffffffffffffffffffffffffffffffffff168152602001908152602001600020805480602002602001604051908101604052809291908181526020016000905b8282101561269257838290600052602060002090600402016040518060800160405290816000820180546124c390613699565b80601f01602080910402602001604051908101604052809291908181526020018280546124ef90613699565b801561253c5780601f106125115761010080835404028352916020019161253c565b820191906000526020600020905b81548152906001019060200180831161251f57829003601f168201915b505050505081526020016001820160009054906101000a900473ffffffffffffffffffffffffffffffffffffffff1673ffffffffffffffffffffffffffffffffffffffff1673ffffffffffffffffffffffffffffffffffffffff1681526020016002820160009054906101000a900473ffffffffffffffffffffffffffffffffffffffff1673ffffffffffffffffffffffffffffffffffffffff1673ffffffffffffffffffffffffffffffffffffffff16815260200160038201805461260190613699565b80601f016020809104026020016040519081016040528092919081815260200182805461262d90613699565b801561267a5780601f1061264f5761010080835404028352916020019161267a565b820191906000526020600020905b81548152906001019060200180831161265d57829003601f168201915b50505050508152505081526020019060010190612490565b50505050905090565b6060600260003373ffffffffffffffffffffffffffffffffffffffff1673ffffffffffffffffffffffffffffffffffffffff168152602001908152602001600020805480602002602001604051908101604052809291908181526020016000905b828210156128fe578382906000526020600020906004020160405180608001604052908160008201805461272f90613699565b80601f016020809104026020016040519081016040528092919081815260200182805461275b90613699565b80156127a85780601f1061277d576101008083540402835291602001916127a8565b820191906000526020600020905b81548152906001019060200180831161278b57829003601f168201915b505050505081526020016001820160009054906101000a900473ffffffffffffffffffffffffffffffffffffffff1673ffffffffffffffffffffffffffffffffffffffff1673ffffffffffffffffffffffffffffffffffffffff1681526020016002820160009054906101000a900473ffffffffffffffffffffffffffffffffffffffff1673ffffffffffffffffffffffffffffffffffffffff1673ffffffffffffffffffffffffffffffffffffffff16815260200160038201805461286d90613699565b80601f016020809104026020016040519081016040528092919081815260200182805461289990613699565b80156128e65780601f106128bb576101008083540402835291602001916128e6565b820191906000526020600020905b8154815290600101906020018083116128c957829003601f168201915b505050505081525050815260200190600101906126fc565b50505050905090565b600081604001518260600151836000015184602001516040516020016129309493929190613800565b60405160208183030381529060405280519060200120836040015184606001518560000151866020015160405160200161296d9493929190613800565b6040516020818303038152906040528051906020012014905092915050565b6000816040015182606001516040516020016129a9929190613846565b60405160208183030381529060405280519060200120836040015184606001516040516020016129da929190613846565b6040516020818303038152906040528051906020012014905092915050565b6040518060a00160405280600073ffffffffffffffffffffffffffffffffffffffff168152602001600073ffffffffffffffffffffffffffffffffffffffff16815260200160608152602001606081526020016000151581525090565b828054612a6290613699565b90600052602060002090601f016020900481019282612a845760008555612acb565b82601f10612a9d57805160ff1916838001178555612acb565b82800160010185558215612acb579182015b82811115612aca578251825591602001919060010190612aaf565b5b509050612ad89190612bf6565b5090565b508054612ae890613699565b6000825580601f10612afa5750612b19565b601f016020900490600052602060002090810190612b189190612bf6565b5b50565b604051806080016040528060608152602001600073ffffffffffffffffffffffffffffffffffffffff168152602001600073ffffffffffffffffffffffffffffffffffffffff168152602001606081525090565b828054612b7c90613699565b90600052602060002090601f016020900481019282612b9e5760008555612be5565b82601f10612bb757805160ff1916838001178555612be5565b82800160010185558215612be5579182015b82811115612be4578251825591602001919060010190612bc9565b5b509050612bf29190612bf6565b5090565b5b80821115612c0f576000816000905550600101612bf7565b5090565b6000604051905090565b600080fd5b600080fd5b600073ffffffffffffffffffffffffffffffffffffffff82169050919050565b6000612c5282612c27565b9050919050565b612c6281612c47565b8114612c6d57600080fd5b50565b600081359050612c7f81612c59565b92915050565b600080fd5b600080fd5b6000601f19601f8301169050919050565b7f4e487b7100000000000000000000000000000000000000000000000000000000600052604160045260246000fd5b612cd882612c8f565b810181811067ffffffffffffffff82111715612cf757612cf6612ca0565b5b80604052505050565b6000612d0a612c13565b9050612d168282612ccf565b919050565b600067ffffffffffffffff821115612d3657612d35612ca0565b5b612d3f82612c8f565b9050602081019050919050565b82818337600083830152505050565b6000612d6e612d6984612d1b565b612d00565b905082815260208101848484011115612d8a57612d89612c8a565b5b612d95848285612d4c565b509392505050565b600082601f830112612db257612db1612c85565b5b8135612dc2848260208601612d5b565b91505092915050565b600080600060608486031215612de457612de3612c1d565b5b6000612df286828701612c70565b935050602084013567ffffffffffffffff811115612e1357612e12612c22565b5b612e1f86828701612d9d565b925050604084013567ffffffffffffffff811115612e4057612e3f612c22565b5b612e4c86828701612d9d565b9150509250925092565b600081519050919050565b600082825260208201905092915050565b6000819050602082019050919050565b612e8b81612c47565b82525050565b600081519050919050565b600082825260208201905092915050565b60005b83811015612ecb578082015181840152602081019050612eb0565b83811115612eda576000848401525b50505050565b6000612eeb82612e91565b612ef58185612e9c565b9350612f05818560208601612ead565b612f0e81612c8f565b840191505092915050565b60008115159050919050565b612f2e81612f19565b82525050565b600060a083016000830151612f4c6000860182612e82565b506020830151612f5f6020860182612e82565b5060408301518482036040860152612f778282612ee0565b91505060608301518482036060860152612f918282612ee0565b9150506080830151612fa66080860182612f25565b508091505092915050565b6000612fbd8383612f34565b905092915050565b6000602082019050919050565b6000612fdd82612e56565b612fe78185612e61565b935083602082028501612ff985612e72565b8060005b8581101561303557848403895281516130168582612fb1565b945061302183612fc5565b925060208a01995050600181019050612ffd565b50829750879550505050505092915050565b600060208201905081810360008301526130618184612fd2565b905092915050565b6000819050919050565b61307c81613069565b811461308757600080fd5b50565b60008135905061309981613073565b92915050565b600080604083850312156130b6576130b5612c1d565b5b60006130c485828601612c70565b92505060206130d58582860161308a565b9150509250929050565b600081519050919050565b600082825260208201905092915050565b6000613106826130df565b61311081856130ea565b9350613120818560208601612ead565b61312981612c8f565b840191505092915050565b61313d81612c47565b82525050565b6000608082019050818103600083015261315d81876130fb565b905061316c6020830186613134565b6131796040830185613134565b818103606083015261318b81846130fb565b905095945050505050565b600080fd5b600080fd5b6131a981612f19565b81146131b457600080fd5b50565b6000813590506131c6816131a0565b92915050565b600060a082840312156131e2576131e1613196565b5b6131ec60a0612d00565b905060006131fc84828501612c70565b600083015250602061321084828501612c70565b602083015250604082013567ffffffffffffffff8111156132345761323361319b565b5b61324084828501612d9d565b604083015250606082013567ffffffffffffffff8111156132645761326361319b565b5b61327084828501612d9d565b6060830152506080613284848285016131b7565b60808301525092915050565b600080604083850312156132a7576132a6612c1d565b5b60006132b585828601612c70565b925050602083013567ffffffffffffffff8111156132d6576132d5612c22565b5b6132e2858286016131cc565b9150509250929050565b600082825260208201905092915050565b600061330882612e91565b61331281856132ec565b9350613322818560208601612ead565b61332b81612c8f565b840191505092915050565b61333f81612f19565b82525050565b600060a08201905061335a6000830188613134565b6133676020830187613134565b818103604083015261337981866132fd565b9050818103606083015261338d81856132fd565b905061339c6080830184613336565b9695505050505050565b600067ffffffffffffffff8211156133c1576133c0612ca0565b5b6133ca82612c8f565b9050602081019050919050565b60006133ea6133e5846133a6565b612d00565b90508281526020810184848401111561340657613405612c8a565b5b613411848285612d4c565b509392505050565b600082601f83011261342e5761342d612c85565b5b813561343e8482602086016133d7565b91505092915050565b6000806000606084860312156134605761345f612c1d565b5b600084013567ffffffffffffffff81111561347e5761347d612c22565b5b61348a86828701613419565b935050602084013567ffffffffffffffff8111156134ab576134aa612c22565b5b6134b786828701613419565b92505060406134c886828701612c70565b9150509250925092565b600081519050919050565b600082825260208201905092915050565b6000819050602082019050919050565b600082825260208201905092915050565b600061351a826130df565b61352481856134fe565b9350613534818560208601612ead565b61353d81612c8f565b840191505092915050565b60006080830160008301518482036000860152613565828261350f565b915050602083015161357a6020860182612e82565b50604083015161358d6040860182612e82565b50606083015184820360608601526135a5828261350f565b9150508091505092915050565b60006135be8383613548565b905092915050565b6000602082019050919050565b60006135de826134d2565b6135e881856134dd565b9350836020820285016135fa856134ee565b8060005b85811015613636578484038952815161361785826135b2565b9450613622836135c6565b925060208a019950506001810190506135fe565b50829750879550505050505092915050565b6000602082019050818103600083015261366281846135d3565b905092915050565b7f4e487b7100000000000000000000000000000000000000000000000000000000600052602260045260246000fd5b600060028204905060018216806136b157607f821691505b6020821081036136c4576136c361366a565b5b50919050565b7f4e487b7100000000000000000000000000000000000000000000000000000000600052603260045260246000fd5b7f4e487b7100000000000000000000000000000000000000000000000000000000600052601160045260246000fd5b600061373382613069565b91507fffffffffffffffffffffffffffffffffffffffffffffffffffffffffffffffff8203613765576137646136f9565b5b600182019050919050565b600081905092915050565b600061378682612e91565b6137908185613770565b93506137a0818560208601612ead565b80840191505092915050565b60006c0100000000000000000000000082029050919050565b60006137d0826137ac565b9050919050565b60006137e2826137c5565b9050919050565b6137fa6137f582612c47565b6137d7565b82525050565b600061380c828761377b565b9150613818828661377b565b915061382482856137e9565b60148201915061383482846137e9565b60148201915081905095945050505050565b6000613852828561377b565b915061385e828461377b565b9150819050939250505056fea264697066735822122037474e6889a9e6566e25c7357df25abdae9e72b0b185c4ccf4b2e79146e4eec364736f6c634300080d0033",
  "immutableReferences": {},
  "source": "// SPDX-License-Identifier: MIT\npragma solidity >=0.8.1;\npragma abicoder v2;\n\ncontract Decaf {\n\n    struct Document {\n        address from;\n        address to;\n        string fileName;\n        string ipfsHash;\n        bool access;\n    }\n\n    struct DocumentSigned {\n        bytes signature;\n        address signer;\n        address receiver;\n        bytes mssgHash;\n    }\n\n    mapping(address => Document[]) public documentsIssued;\n    mapping(address => Document[]) public documentsReceived;\n    \n    mapping(address => DocumentSigned[]) public documentsSigned;\n    mapping(address => DocumentSigned[]) public documentsSignedReceived;\n\n    address[] userIssuedTo;\n\n    function issueDocument(\n        address to,\n        string memory fileName,\n        string memory ipfsHash\n    ) public {\n\n        Document memory document;\n        document.from = msg.sender;\n        document.to = to;\n        document.fileName = fileName;\n        document.ipfsHash = ipfsHash;\n        document.access = true;\n        documentsIssued[msg.sender].push(document);\n        documentsReceived[to].push(document);\n    }\n\n    function signDocument(bytes memory signature, bytes memory mssgHash, address receiver)\n        public\n    {\n        DocumentSigned memory document;\n        document.signer = msg.sender;\n        document.signature = signature;\n        document.mssgHash = mssgHash;\n        document.receiver = receiver;\n        documentsSigned[msg.sender].push(document);\n        documentsSignedReceived[receiver].push(document);\n    }\n\n    function getDocumentsIssued() public view returns (Document[] memory) {\n        return documentsIssued[msg.sender];\n    }\n\n    function getDocumentsReceived() public view returns (Document[] memory) {\n        return documentsReceived[msg.sender];\n    }\n\n    function revokeDocument(address user, Document memory doc) public{\n        Document[] memory ownerDocs = documentsIssued[msg.sender];\n        Document[] memory receivedDocs = documentsReceived[user];\n        Document[] memory issuedDocs = documentsIssued[user];\n        \n        for (uint i=0; i<ownerDocs.length; i++) {\n            if(equalsOwner(ownerDocs[i],doc)){\n                documentsIssued[msg.sender][i].access=false;\n            }\n        }\n\n        for (uint i=0; i<receivedDocs.length; i++) {\n            if(equals(receivedDocs[i],doc)){\n                delete documentsReceived[user][i];\n            }\n        }\n\n        for (uint i=0; i<issuedDocs.length; i++) {\n            if(equals(issuedDocs[i],doc)){\n                userIssuedTo.push(documentsIssued[user][i].to);\n                delete documentsIssued[user][i];\n            }\n        }\n\n        for(uint j=0;j<userIssuedTo.length;j++){\n            Document[] memory userIssuedToDocs = documentsReceived[userIssuedTo[j]];\n            for (uint i=0; i<userIssuedToDocs.length; i++) {\n                if(equals(userIssuedToDocs[i],doc)){\n                    delete documentsReceived[userIssuedTo[j]][i];\n                }\n            }\n        }\n                \n    }\n    function equals(Document memory _first, Document memory _second) internal view returns (bool) {\n        // Just compare the output of hashing all fields packed\n        return(keccak256(abi.encodePacked( _first.fileName, _first.ipfsHash)) == keccak256(abi.encodePacked( _second.fileName, _second.ipfsHash)));\n    }\n\n    function equalsOwner(Document memory _first, Document memory _second) internal view returns (bool) {\n        // Just compare the output of hashing all fields packed\n        return(keccak256(abi.encodePacked( _first.fileName, _first.ipfsHash,_first.from,_first.to)) == keccak256(abi.encodePacked( _second.fileName, _second.ipfsHash,_second.from, _second.to)));\n    }\n\n    function getDocumentsSigned()\n        public\n        view\n        returns (DocumentSigned[] memory)\n    {\n        return documentsSigned[msg.sender];\n    }\n\n\n    function getDocumentsSignedReceived()\n        public\n        view\n        returns (DocumentSigned[] memory)\n    {\n        return documentsSignedReceived[msg.sender];\n    }\n\n}\n\n//0x5B38Da6a701c568545dCfcB03FcB875f56beddC4\n\n//0xAb8483F64d9C6d1EcF9b849Ae677dD3315835cb2\n\n//0x4B20993Bc481177ec7E8f571ceCaE8A9e22C02db\n\n//0x78731D3Ca6b7E34aC0F824c42a7cC18A495cabaB",
  "sourcePath": "/Users/shreyasmore/Desktop/Final_Project/DECAF/DECAF-React/contracts/Decaf.sol",
  "compiler": {
    "name": "solc",
    "version": "0.8.13+commit.abaa5c0e.Emscripten.clang"
  },
  "schemaVersion": "3.4.4",
  "updatedAt": "2022-04-27T18:15:43.242Z",
  "devdoc": {
    "kind": "dev",
    "methods": {},
    "version": 1
  },
  "userdoc": {
    "kind": "user",
    "methods": {},
    "version": 1
  }
}