{
  "contractName": "Decaf",
  "abi": [
    {
      "inputs": [
        {
          "internalType": "string",
          "name": "",
          "type": "string"
        },
        {
          "internalType": "uint256",
          "name": "",
          "type": "uint256"
        }
      ],
      "name": "documentDirectory",
      "outputs": [
        {
          "internalType": "address",
          "name": "from",
          "type": "address"
        },
        {
          "internalType": "address",
          "name": "to",
          "type": "address"
        },
        {
          "internalType": "string",
          "name": "fileName",
          "type": "string"
        },
        {
          "internalType": "string",
          "name": "ipfsHash",
          "type": "string"
        },
        {
          "internalType": "bool",
          "name": "access",
          "type": "bool"
        },
        {
          "internalType": "uint256",
          "name": "time",
          "type": "uint256"
        }
      ],
      "stateMutability": "view",
      "type": "function",
      "constant": true
    },
    {
      "inputs": [
        {
          "internalType": "string",
          "name": "",
          "type": "string"
        }
      ],
      "name": "documentVersionMasterLink",
      "outputs": [
        {
          "internalType": "string",
          "name": "",
          "type": "string"
        }
      ],
      "stateMutability": "view",
      "type": "function",
      "constant": true
    },
    {
      "inputs": [
        {
          "internalType": "address",
          "name": "",
          "type": "address"
        },
        {
          "internalType": "uint256",
          "name": "",
          "type": "uint256"
        }
      ],
      "name": "documentsIssued",
      "outputs": [
        {
          "internalType": "address",
          "name": "from",
          "type": "address"
        },
        {
          "internalType": "address",
          "name": "to",
          "type": "address"
        },
        {
          "internalType": "string",
          "name": "fileName",
          "type": "string"
        },
        {
          "internalType": "string",
          "name": "ipfsHash",
          "type": "string"
        },
        {
          "internalType": "bool",
          "name": "access",
          "type": "bool"
        },
        {
          "internalType": "uint256",
          "name": "time",
          "type": "uint256"
        }
      ],
      "stateMutability": "view",
      "type": "function",
      "constant": true
    },
    {
      "inputs": [
        {
          "internalType": "address",
          "name": "",
          "type": "address"
        },
        {
          "internalType": "uint256",
          "name": "",
          "type": "uint256"
        }
      ],
      "name": "documentsReceived",
      "outputs": [
        {
          "internalType": "address",
          "name": "from",
          "type": "address"
        },
        {
          "internalType": "address",
          "name": "to",
          "type": "address"
        },
        {
          "internalType": "string",
          "name": "fileName",
          "type": "string"
        },
        {
          "internalType": "string",
          "name": "ipfsHash",
          "type": "string"
        },
        {
          "internalType": "bool",
          "name": "access",
          "type": "bool"
        },
        {
          "internalType": "uint256",
          "name": "time",
          "type": "uint256"
        }
      ],
      "stateMutability": "view",
      "type": "function",
      "constant": true
    },
    {
      "inputs": [
        {
          "internalType": "address",
          "name": "",
          "type": "address"
        },
        {
          "internalType": "uint256",
          "name": "",
          "type": "uint256"
        }
      ],
      "name": "documentsSigned",
      "outputs": [
        {
          "internalType": "bytes",
          "name": "signature",
          "type": "bytes"
        },
        {
          "internalType": "address",
          "name": "signer",
          "type": "address"
        },
        {
          "internalType": "address",
          "name": "receiver",
          "type": "address"
        },
        {
          "internalType": "bytes",
          "name": "mssgHash",
          "type": "bytes"
        }
      ],
      "stateMutability": "view",
      "type": "function",
      "constant": true
    },
    {
      "inputs": [
        {
          "internalType": "address",
          "name": "",
          "type": "address"
        },
        {
          "internalType": "uint256",
          "name": "",
          "type": "uint256"
        }
      ],
      "name": "documentsSignedReceived",
      "outputs": [
        {
          "internalType": "bytes",
          "name": "signature",
          "type": "bytes"
        },
        {
          "internalType": "address",
          "name": "signer",
          "type": "address"
        },
        {
          "internalType": "address",
          "name": "receiver",
          "type": "address"
        },
        {
          "internalType": "bytes",
          "name": "mssgHash",
          "type": "bytes"
        }
      ],
      "stateMutability": "view",
      "type": "function",
      "constant": true
    },
    {
      "inputs": [
        {
          "internalType": "string",
          "name": "ipfsHash",
          "type": "string"
        }
      ],
      "name": "DocHash",
      "outputs": [
        {
          "internalType": "bytes32",
          "name": "",
          "type": "bytes32"
        }
      ],
      "stateMutability": "pure",
      "type": "function",
      "constant": true
    },
    {
      "inputs": [],
      "name": "Time_call",
      "outputs": [
        {
          "internalType": "uint256",
          "name": "",
          "type": "uint256"
        }
      ],
      "stateMutability": "view",
      "type": "function",
      "constant": true
    },
    {
      "inputs": [
        {
          "internalType": "address",
          "name": "to",
          "type": "address"
        },
        {
          "internalType": "string",
          "name": "fileName",
          "type": "string"
        },
        {
          "internalType": "string",
          "name": "ipfsHash",
          "type": "string"
        }
      ],
      "name": "issueDocument",
      "outputs": [],
      "stateMutability": "nonpayable",
      "type": "function"
    },
    {
      "inputs": [
        {
          "internalType": "string",
          "name": "fileName",
          "type": "string"
        },
        {
          "internalType": "string",
          "name": "ipfsHashMaster",
          "type": "string"
        },
        {
          "internalType": "string",
          "name": "ipfsHash",
          "type": "string"
        },
        {
          "internalType": "address",
          "name": "to",
          "type": "address"
        }
      ],
      "name": "issueDocumentVersion",
      "outputs": [],
      "stateMutability": "nonpayable",
      "type": "function"
    },
    {
      "inputs": [
        {
          "internalType": "bytes",
          "name": "signature",
          "type": "bytes"
        },
        {
          "internalType": "bytes",
          "name": "mssgHash",
          "type": "bytes"
        },
        {
          "internalType": "address",
          "name": "receiver",
          "type": "address"
        }
      ],
      "name": "signDocument",
      "outputs": [],
      "stateMutability": "nonpayable",
      "type": "function"
    },
    {
      "inputs": [],
      "name": "getDocumentsIssued",
      "outputs": [
        {
          "components": [
            {
              "internalType": "address",
              "name": "from",
              "type": "address"
            },
            {
              "internalType": "address",
              "name": "to",
              "type": "address"
            },
            {
              "internalType": "string",
              "name": "fileName",
              "type": "string"
            },
            {
              "internalType": "string",
              "name": "ipfsHash",
              "type": "string"
            },
            {
              "internalType": "bool",
              "name": "access",
              "type": "bool"
            },
            {
              "internalType": "uint256",
              "name": "time",
              "type": "uint256"
            }
          ],
          "internalType": "struct Decaf.Document[]",
          "name": "",
          "type": "tuple[]"
        }
      ],
      "stateMutability": "view",
      "type": "function",
      "constant": true
    },
    {
      "inputs": [
        {
          "internalType": "string",
          "name": "ipfsHash",
          "type": "string"
        }
      ],
      "name": "getDocumentVersionsIssued",
      "outputs": [
        {
          "components": [
            {
              "internalType": "address",
              "name": "from",
              "type": "address"
            },
            {
              "internalType": "address",
              "name": "to",
              "type": "address"
            },
            {
              "internalType": "string",
              "name": "fileName",
              "type": "string"
            },
            {
              "internalType": "string",
              "name": "ipfsHash",
              "type": "string"
            },
            {
              "internalType": "bool",
              "name": "access",
              "type": "bool"
            },
            {
              "internalType": "uint256",
              "name": "time",
              "type": "uint256"
            }
          ],
          "internalType": "struct Decaf.Document[]",
          "name": "",
          "type": "tuple[]"
        }
      ],
      "stateMutability": "view",
      "type": "function",
      "constant": true
    },
    {
      "inputs": [
        {
          "internalType": "string",
          "name": "ipfsHash",
          "type": "string"
        }
      ],
      "name": "getDocumentVersionLink",
      "outputs": [
        {
          "internalType": "string",
          "name": "",
          "type": "string"
        }
      ],
      "stateMutability": "view",
      "type": "function",
      "constant": true
    },
    {
      "inputs": [],
      "name": "getDocumentsReceived",
      "outputs": [
        {
          "components": [
            {
              "internalType": "address",
              "name": "from",
              "type": "address"
            },
            {
              "internalType": "address",
              "name": "to",
              "type": "address"
            },
            {
              "internalType": "string",
              "name": "fileName",
              "type": "string"
            },
            {
              "internalType": "string",
              "name": "ipfsHash",
              "type": "string"
            },
            {
              "internalType": "bool",
              "name": "access",
              "type": "bool"
            },
            {
              "internalType": "uint256",
              "name": "time",
              "type": "uint256"
            }
          ],
          "internalType": "struct Decaf.Document[]",
          "name": "",
          "type": "tuple[]"
        }
      ],
      "stateMutability": "view",
      "type": "function",
      "constant": true
    },
    {
      "inputs": [
        {
          "internalType": "address",
          "name": "user",
          "type": "address"
        },
        {
          "components": [
            {
              "internalType": "address",
              "name": "from",
              "type": "address"
            },
            {
              "internalType": "address",
              "name": "to",
              "type": "address"
            },
            {
              "internalType": "string",
              "name": "fileName",
              "type": "string"
            },
            {
              "internalType": "string",
              "name": "ipfsHash",
              "type": "string"
            },
            {
              "internalType": "bool",
              "name": "access",
              "type": "bool"
            },
            {
              "internalType": "uint256",
              "name": "time",
              "type": "uint256"
            }
          ],
          "internalType": "struct Decaf.Document",
          "name": "doc",
          "type": "tuple"
        }
      ],
      "name": "revokeDocument",
      "outputs": [],
      "stateMutability": "nonpayable",
      "type": "function"
    },
    {
      "inputs": [],
      "name": "getDocumentsSigned",
      "outputs": [
        {
          "components": [
            {
              "internalType": "bytes",
              "name": "signature",
              "type": "bytes"
            },
            {
              "internalType": "address",
              "name": "signer",
              "type": "address"
            },
            {
              "internalType": "address",
              "name": "receiver",
              "type": "address"
            },
            {
              "internalType": "bytes",
              "name": "mssgHash",
              "type": "bytes"
            }
          ],
          "internalType": "struct Decaf.DocumentSigned[]",
          "name": "",
          "type": "tuple[]"
        }
      ],
      "stateMutability": "view",
      "type": "function",
      "constant": true
    },
    {
      "inputs": [],
      "name": "getDocumentsSignedReceived",
      "outputs": [
        {
          "components": [
            {
              "internalType": "bytes",
              "name": "signature",
              "type": "bytes"
            },
            {
              "internalType": "address",
              "name": "signer",
              "type": "address"
            },
            {
              "internalType": "address",
              "name": "receiver",
              "type": "address"
            },
            {
              "internalType": "bytes",
              "name": "mssgHash",
              "type": "bytes"
            }
          ],
          "internalType": "struct Decaf.DocumentSigned[]",
          "name": "",
          "type": "tuple[]"
        }
      ],
      "stateMutability": "view",
      "type": "function",
      "constant": true
    }
  ],
  "bytecode": "0x608060405234801561001057600080fd5b50614715806100206000396000f3fe608060405234801561001057600080fd5b5060043610610133576000357c0100000000000000000000000000000000000000000000000000000000900480637834707d116100bf578063ac0113701161008e578063ac01137014610358578063ac2968341461038d578063e11609c6146103ab578063e396eb0e146103c9578063e6ed799f146103e557610133565b80637834707d146102a45780638768e788146102d957806399fe9d21146103095780639dafb60a1461032557610133565b806343bdc07e1161010657806343bdc07e146101be57806349703faf146101dc5780634a94f0ad1461020c578063613531c81461023f5780636aa091131461026f57610133565b806303261030146101385780630de35f551461015657806320c234e01461017257806336168e991461018e575b600080fd5b610140610403565b60405161014d9190613866565b60405180910390f35b610170600480360381019061016b9190613a39565b61040b565b005b61018c60048036038101906101879190613c0a565b6108e4565b005b6101a860048036038101906101a39190613c66565b6119c0565b6040516101b59190613d37565b60405180910390f35b6101c6611a76565b6040516101d39190613f22565b60405180910390f35b6101f660048036038101906101f19190613c66565b611d06565b6040516102039190613d37565b60405180910390f35b61022660048036038101906102219190613f44565b611db6565b6040516102369493929190613fe8565b60405180910390f35b61025960048036038101906102549190613c66565b611f53565b6040516102669190614054565b60405180910390f35b61028960048036038101906102849190613f44565b611f83565b60405161029b9695949392919061407e565b60405180910390f35b6102be60048036038101906102b991906140ed565b612139565b6040516102d09695949392919061407e565b60405180910390f35b6102f360048036038101906102ee9190613c66565b612305565b6040516103009190613f22565b60405180910390f35b610323600480360381019061031e91906141ea565b612577565b005b61033f600480360381019061033a9190613f44565b61286d565b60405161034f9493929190613fe8565b60405180910390f35b610372600480360381019061036d9190613f44565b612a0a565b6040516103849695949392919061407e565b60405180910390f35b610395612bc0565b6040516103a29190613f22565b60405180910390f35b6103b3612e51565b6040516103c091906143eb565b60405180910390f35b6103e360048036038101906103de919061440d565b6130bd565b005b6103ed6132ce565b6040516103fa91906143eb565b60405180910390f35b600042905090565b61041361362c565b33816000019073ffffffffffffffffffffffffffffffffffffffff16908173ffffffffffffffffffffffffffffffffffffffff168152505083816020019073ffffffffffffffffffffffffffffffffffffffff16908173ffffffffffffffffffffffffffffffffffffffff168152505082816040018190525081816060018190525060018160800190151590811515815250506000803373ffffffffffffffffffffffffffffffffffffffff1673ffffffffffffffffffffffffffffffffffffffff16815260200190815260200160002081908060018154018082558091505060019003906000526020600020906006020160009091909190915060008201518160000160006101000a81548173ffffffffffffffffffffffffffffffffffffffff021916908373ffffffffffffffffffffffffffffffffffffffff16021790555060208201518160010160006101000a81548173ffffffffffffffffffffffffffffffffffffffff021916908373ffffffffffffffffffffffffffffffffffffffff16021790555060408201518160020190805190602001906105b8929190613690565b5060608201518160030190805190602001906105d5929190613690565b5060808201518160040160006101000a81548160ff02191690831515021790555060a082015181600501555050600160008573ffffffffffffffffffffffffffffffffffffffff1673ffffffffffffffffffffffffffffffffffffffff16815260200190815260200160002081908060018154018082558091505060019003906000526020600020906006020160009091909190915060008201518160000160006101000a81548173ffffffffffffffffffffffffffffffffffffffff021916908373ffffffffffffffffffffffffffffffffffffffff16021790555060208201518160010160006101000a81548173ffffffffffffffffffffffffffffffffffffffff021916908373ffffffffffffffffffffffffffffffffffffffff1602179055506040820151816002019080519060200190610715929190613690565b506060820151816003019080519060200190610732929190613690565b5060808201518160040160006101000a81548160ff02191690831515021790555060a082015181600501555050610767610403565b8160a00181815250506000600282606001516040516107869190614504565b908152602001604051809103902080549050036108de57600281606001516040516107b19190614504565b908152602001604051809103902081908060018154018082558091505060019003906000526020600020906006020160009091909190915060008201518160000160006101000a81548173ffffffffffffffffffffffffffffffffffffffff021916908373ffffffffffffffffffffffffffffffffffffffff16021790555060208201518160010160006101000a81548173ffffffffffffffffffffffffffffffffffffffff021916908373ffffffffffffffffffffffffffffffffffffffff1602179055506040820151816002019080519060200190610893929190613690565b5060608201518160030190805190602001906108b0929190613690565b5060808201518160040160006101000a81548160ff02191690831515021790555060a0820151816005015550505b50505050565b60008060003373ffffffffffffffffffffffffffffffffffffffff1673ffffffffffffffffffffffffffffffffffffffff168152602001908152602001600020805480602002602001604051908101604052809291908181526020016000905b82821015610b6b57838290600052602060002090600602016040518060c00160405290816000820160009054906101000a900473ffffffffffffffffffffffffffffffffffffffff1673ffffffffffffffffffffffffffffffffffffffff1673ffffffffffffffffffffffffffffffffffffffff1681526020016001820160009054906101000a900473ffffffffffffffffffffffffffffffffffffffff1673ffffffffffffffffffffffffffffffffffffffff1673ffffffffffffffffffffffffffffffffffffffff168152602001600282018054610a239061454a565b80601f0160208091040260200160405190810160405280929190818152602001828054610a4f9061454a565b8015610a9c5780601f10610a7157610100808354040283529160200191610a9c565b820191906000526020600020905b815481529060010190602001808311610a7f57829003601f168201915b50505050508152602001600382018054610ab59061454a565b80601f0160208091040260200160405190810160405280929190818152602001828054610ae19061454a565b8015610b2e5780601f10610b0357610100808354040283529160200191610b2e565b820191906000526020600020905b815481529060010190602001808311610b1157829003601f168201915b505050505081526020016004820160009054906101000a900460ff1615151515815260200160058201548152505081526020019060010190610944565b5050505090506000600160008573ffffffffffffffffffffffffffffffffffffffff1673ffffffffffffffffffffffffffffffffffffffff168152602001908152602001600020805480602002602001604051908101604052809291908181526020016000905b82821015610df957838290600052602060002090600602016040518060c00160405290816000820160009054906101000a900473ffffffffffffffffffffffffffffffffffffffff1673ffffffffffffffffffffffffffffffffffffffff1673ffffffffffffffffffffffffffffffffffffffff1681526020016001820160009054906101000a900473ffffffffffffffffffffffffffffffffffffffff1673ffffffffffffffffffffffffffffffffffffffff1673ffffffffffffffffffffffffffffffffffffffff168152602001600282018054610cb19061454a565b80601f0160208091040260200160405190810160405280929190818152602001828054610cdd9061454a565b8015610d2a5780601f10610cff57610100808354040283529160200191610d2a565b820191906000526020600020905b815481529060010190602001808311610d0d57829003601f168201915b50505050508152602001600382018054610d439061454a565b80601f0160208091040260200160405190810160405280929190818152602001828054610d6f9061454a565b8015610dbc5780601f10610d9157610100808354040283529160200191610dbc565b820191906000526020600020905b815481529060010190602001808311610d9f57829003601f168201915b505050505081526020016004820160009054906101000a900460ff1615151515815260200160058201548152505081526020019060010190610bd2565b50505050905060008060008673ffffffffffffffffffffffffffffffffffffffff1673ffffffffffffffffffffffffffffffffffffffff168152602001908152602001600020805480602002602001604051908101604052809291908181526020016000905b8282101561108657838290600052602060002090600602016040518060c00160405290816000820160009054906101000a900473ffffffffffffffffffffffffffffffffffffffff1673ffffffffffffffffffffffffffffffffffffffff1673ffffffffffffffffffffffffffffffffffffffff1681526020016001820160009054906101000a900473ffffffffffffffffffffffffffffffffffffffff1673ffffffffffffffffffffffffffffffffffffffff1673ffffffffffffffffffffffffffffffffffffffff168152602001600282018054610f3e9061454a565b80601f0160208091040260200160405190810160405280929190818152602001828054610f6a9061454a565b8015610fb75780601f10610f8c57610100808354040283529160200191610fb7565b820191906000526020600020905b815481529060010190602001808311610f9a57829003601f168201915b50505050508152602001600382018054610fd09061454a565b80601f0160208091040260200160405190810160405280929190818152602001828054610ffc9061454a565b80156110495780601f1061101e57610100808354040283529160200191611049565b820191906000526020600020905b81548152906001019060200180831161102c57829003601f168201915b505050505081526020016004820160009054906101000a900460ff1615151515815260200160058201548152505081526020019060010190610e5f565b50505050905060005b835181101561114f576110bc8482815181106110ae576110ad61457b565b5b60200260200101518661353a565b1561113c5760008060003373ffffffffffffffffffffffffffffffffffffffff1673ffffffffffffffffffffffffffffffffffffffff16815260200190815260200160002082815481106111135761111261457b565b5b906000526020600020906006020160040160006101000a81548160ff0219169083151502179055505b8080611147906145d9565b91505061108f565b5060005b8251811015611285576111808382815181106111725761117161457b565b5b6020026020010151866135bf565b1561127257600160008773ffffffffffffffffffffffffffffffffffffffff1673ffffffffffffffffffffffffffffffffffffffff16815260200190815260200160002081815481106111d6576111d561457b565b5b9060005260206000209060060201600080820160006101000a81549073ffffffffffffffffffffffffffffffffffffffff02191690556001820160006101000a81549073ffffffffffffffffffffffffffffffffffffffff02191690556002820160006112439190613716565b6003820160006112539190613716565b6004820160006101000a81549060ff0219169055600582016000905550505b808061127d906145d9565b915050611153565b5060005b8151811015611553576112b68282815181106112a8576112a761457b565b5b6020026020010151866135bf565b15611540573373ffffffffffffffffffffffffffffffffffffffff166000808873ffffffffffffffffffffffffffffffffffffffff1673ffffffffffffffffffffffffffffffffffffffff16815260200190815260200160002082815481106113225761132161457b565b5b906000526020600020906006020160010160009054906101000a900473ffffffffffffffffffffffffffffffffffffffff1673ffffffffffffffffffffffffffffffffffffffff16146114545760066000808873ffffffffffffffffffffffffffffffffffffffff1673ffffffffffffffffffffffffffffffffffffffff16815260200190815260200160002082815481106113c1576113c061457b565b5b906000526020600020906006020160010160009054906101000a900473ffffffffffffffffffffffffffffffffffffffff169080600181540180825580915050600190039060005260206000200160009091909190916101000a81548173ffffffffffffffffffffffffffffffffffffffff021916908373ffffffffffffffffffffffffffffffffffffffff1602179055505b6000808773ffffffffffffffffffffffffffffffffffffffff1673ffffffffffffffffffffffffffffffffffffffff16815260200190815260200160002081815481106114a4576114a361457b565b5b9060005260206000209060060201600080820160006101000a81549073ffffffffffffffffffffffffffffffffffffffff02191690556001820160006101000a81549073ffffffffffffffffffffffffffffffffffffffff02191690556002820160006115119190613716565b6003820160006115219190613716565b6004820160006101000a81549060ff0219169055600582016000905550505b808061154b906145d9565b915050611289565b5060005b6006805490508110156119b8576000600160006006848154811061157e5761157d61457b565b5b9060005260206000200160009054906101000a900473ffffffffffffffffffffffffffffffffffffffff1673ffffffffffffffffffffffffffffffffffffffff1673ffffffffffffffffffffffffffffffffffffffff168152602001908152602001600020805480602002602001604051908101604052809291908181526020016000905b8282101561182a57838290600052602060002090600602016040518060c00160405290816000820160009054906101000a900473ffffffffffffffffffffffffffffffffffffffff1673ffffffffffffffffffffffffffffffffffffffff1673ffffffffffffffffffffffffffffffffffffffff1681526020016001820160009054906101000a900473ffffffffffffffffffffffffffffffffffffffff1673ffffffffffffffffffffffffffffffffffffffff1673ffffffffffffffffffffffffffffffffffffffff1681526020016002820180546116e29061454a565b80601f016020809104026020016040519081016040528092919081815260200182805461170e9061454a565b801561175b5780601f106117305761010080835404028352916020019161175b565b820191906000526020600020905b81548152906001019060200180831161173e57829003601f168201915b505050505081526020016003820180546117749061454a565b80601f01602080910402602001604051908101604052809291908181526020018280546117a09061454a565b80156117ed5780601f106117c2576101008083540402835291602001916117ed565b820191906000526020600020905b8154815290600101906020018083116117d057829003601f168201915b505050505081526020016004820160009054906101000a900460ff1615151515815260200160058201548152505081526020019060010190611603565b50505050905060005b81518110156119a3576118608282815181106118525761185161457b565b5b6020026020010151886135bf565b1561199057600160006006858154811061187d5761187c61457b565b5b9060005260206000200160009054906101000a900473ffffffffffffffffffffffffffffffffffffffff1673ffffffffffffffffffffffffffffffffffffffff1673ffffffffffffffffffffffffffffffffffffffff16815260200190815260200160002081815481106118f4576118f361457b565b5b9060005260206000209060060201600080820160006101000a81549073ffffffffffffffffffffffffffffffffffffffff02191690556001820160006101000a81549073ffffffffffffffffffffffffffffffffffffffff02191690556002820160006119619190613716565b6003820160006119719190613716565b6004820160006101000a81549060ff0219169055600582016000905550505b808061199b906145d9565b915050611833565b505080806119b0906145d9565b915050611557565b505050505050565b60038180516020810182018051848252602083016020850120818352809550505050505060009150905080546119f59061454a565b80601f0160208091040260200160405190810160405280929190818152602001828054611a219061454a565b8015611a6e5780601f10611a4357610100808354040283529160200191611a6e565b820191906000526020600020905b815481529060010190602001808311611a5157829003601f168201915b505050505081565b60606000803373ffffffffffffffffffffffffffffffffffffffff1673ffffffffffffffffffffffffffffffffffffffff168152602001908152602001600020805480602002602001604051908101604052809291908181526020016000905b82821015611cfd57838290600052602060002090600602016040518060c00160405290816000820160009054906101000a900473ffffffffffffffffffffffffffffffffffffffff1673ffffffffffffffffffffffffffffffffffffffff1673ffffffffffffffffffffffffffffffffffffffff1681526020016001820160009054906101000a900473ffffffffffffffffffffffffffffffffffffffff1673ffffffffffffffffffffffffffffffffffffffff1673ffffffffffffffffffffffffffffffffffffffff168152602001600282018054611bb59061454a565b80601f0160208091040260200160405190810160405280929190818152602001828054611be19061454a565b8015611c2e5780601f10611c0357610100808354040283529160200191611c2e565b820191906000526020600020905b815481529060010190602001808311611c1157829003601f168201915b50505050508152602001600382018054611c479061454a565b80601f0160208091040260200160405190810160405280929190818152602001828054611c739061454a565b8015611cc05780601f10611c9557610100808354040283529160200191611cc0565b820191906000526020600020905b815481529060010190602001808311611ca357829003601f168201915b505050505081526020016004820160009054906101000a900460ff1615151515815260200160058201548152505081526020019060010190611ad6565b50505050905090565b6060600382604051611d189190614504565b90815260200160405180910390208054611d319061454a565b80601f0160208091040260200160405190810160405280929190818152602001828054611d5d9061454a565b8015611daa5780601f10611d7f57610100808354040283529160200191611daa565b820191906000526020600020905b815481529060010190602001808311611d8d57829003601f168201915b50505050509050919050565b60056020528160005260406000208181548110611dd257600080fd5b906000526020600020906004020160009150915050806000018054611df69061454a565b80601f0160208091040260200160405190810160405280929190818152602001828054611e229061454a565b8015611e6f5780601f10611e4457610100808354040283529160200191611e6f565b820191906000526020600020905b815481529060010190602001808311611e5257829003601f168201915b5050505050908060010160009054906101000a900473ffffffffffffffffffffffffffffffffffffffff16908060020160009054906101000a900473ffffffffffffffffffffffffffffffffffffffff1690806003018054611ed09061454a565b80601f0160208091040260200160405190810160405280929190818152602001828054611efc9061454a565b8015611f495780601f10611f1e57610100808354040283529160200191611f49565b820191906000526020600020905b815481529060010190602001808311611f2c57829003601f168201915b5050505050905084565b600081604051602001611f669190613d37565b604051602081830303815290604052805190602001209050919050565b60006020528160005260406000208181548110611f9f57600080fd5b9060005260206000209060060201600091509150508060000160009054906101000a900473ffffffffffffffffffffffffffffffffffffffff16908060010160009054906101000a900473ffffffffffffffffffffffffffffffffffffffff169080600201805461200f9061454a565b80601f016020809104026020016040519081016040528092919081815260200182805461203b9061454a565b80156120885780601f1061205d57610100808354040283529160200191612088565b820191906000526020600020905b81548152906001019060200180831161206b57829003601f168201915b50505050509080600301805461209d9061454a565b80601f01602080910402602001604051908101604052809291908181526020018280546120c99061454a565b80156121165780601f106120eb57610100808354040283529160200191612116565b820191906000526020600020905b8154815290600101906020018083116120f957829003601f168201915b5050505050908060040160009054906101000a900460ff16908060050154905086565b600282805160208101820180518482526020830160208501208183528095505050505050818154811061216b57600080fd5b9060005260206000209060060201600091509150508060000160009054906101000a900473ffffffffffffffffffffffffffffffffffffffff16908060010160009054906101000a900473ffffffffffffffffffffffffffffffffffffffff16908060020180546121db9061454a565b80601f01602080910402602001604051908101604052809291908181526020018280546122079061454a565b80156122545780601f1061222957610100808354040283529160200191612254565b820191906000526020600020905b81548152906001019060200180831161223757829003601f168201915b5050505050908060030180546122699061454a565b80601f01602080910402602001604051908101604052809291908181526020018280546122959061454a565b80156122e25780601f106122b7576101008083540402835291602001916122e2565b820191906000526020600020905b8154815290600101906020018083116122c557829003601f168201915b5050505050908060040160009054906101000a900460ff16908060050154905086565b60606002826040516123179190614504565b9081526020016040518091039020805480602002602001604051908101604052809291908181526020016000905b8282101561256c57838290600052602060002090600602016040518060c00160405290816000820160009054906101000a900473ffffffffffffffffffffffffffffffffffffffff1673ffffffffffffffffffffffffffffffffffffffff1673ffffffffffffffffffffffffffffffffffffffff1681526020016001820160009054906101000a900473ffffffffffffffffffffffffffffffffffffffff1673ffffffffffffffffffffffffffffffffffffffff1673ffffffffffffffffffffffffffffffffffffffff1681526020016002820180546124249061454a565b80601f01602080910402602001604051908101604052809291908181526020018280546124509061454a565b801561249d5780601f106124725761010080835404028352916020019161249d565b820191906000526020600020905b81548152906001019060200180831161248057829003601f168201915b505050505081526020016003820180546124b69061454a565b80601f01602080910402602001604051908101604052809291908181526020018280546124e29061454a565b801561252f5780601f106125045761010080835404028352916020019161252f565b820191906000526020600020905b81548152906001019060200180831161251257829003601f168201915b505050505081526020016004820160009054906101000a900460ff1615151515815260200160058201548152505081526020019060010190612345565b505050509050919050565b61257f613756565b33816020019073ffffffffffffffffffffffffffffffffffffffff16908173ffffffffffffffffffffffffffffffffffffffff168152505083816000018190525082816060018190525081816040019073ffffffffffffffffffffffffffffffffffffffff16908173ffffffffffffffffffffffffffffffffffffffff1681525050600460003373ffffffffffffffffffffffffffffffffffffffff1673ffffffffffffffffffffffffffffffffffffffff16815260200190815260200160002081908060018154018082558091505060019003906000526020600020906004020160009091909190915060008201518160000190805190602001906126869291906137aa565b5060208201518160010160006101000a81548173ffffffffffffffffffffffffffffffffffffffff021916908373ffffffffffffffffffffffffffffffffffffffff16021790555060408201518160020160006101000a81548173ffffffffffffffffffffffffffffffffffffffff021916908373ffffffffffffffffffffffffffffffffffffffff16021790555060608201518160030190805190602001906127319291906137aa565b505050600560008373ffffffffffffffffffffffffffffffffffffffff1673ffffffffffffffffffffffffffffffffffffffff16815260200190815260200160002081908060018154018082558091505060019003906000526020600020906004020160009091909190915060008201518160000190805190602001906127b99291906137aa565b5060208201518160010160006101000a81548173ffffffffffffffffffffffffffffffffffffffff021916908373ffffffffffffffffffffffffffffffffffffffff16021790555060408201518160020160006101000a81548173ffffffffffffffffffffffffffffffffffffffff021916908373ffffffffffffffffffffffffffffffffffffffff16021790555060608201518160030190805190602001906128649291906137aa565b50505050505050565b6004602052816000526040600020818154811061288957600080fd5b9060005260206000209060040201600091509150508060000180546128ad9061454a565b80601f01602080910402602001604051908101604052809291908181526020018280546128d99061454a565b80156129265780601f106128fb57610100808354040283529160200191612926565b820191906000526020600020905b81548152906001019060200180831161290957829003601f168201915b5050505050908060010160009054906101000a900473ffffffffffffffffffffffffffffffffffffffff16908060020160009054906101000a900473ffffffffffffffffffffffffffffffffffffffff16908060030180546129879061454a565b80601f01602080910402602001604051908101604052809291908181526020018280546129b39061454a565b8015612a005780601f106129d557610100808354040283529160200191612a00565b820191906000526020600020905b8154815290600101906020018083116129e357829003601f168201915b5050505050905084565b60016020528160005260406000208181548110612a2657600080fd5b9060005260206000209060060201600091509150508060000160009054906101000a900473ffffffffffffffffffffffffffffffffffffffff16908060010160009054906101000a900473ffffffffffffffffffffffffffffffffffffffff1690806002018054612a969061454a565b80601f0160208091040260200160405190810160405280929190818152602001828054612ac29061454a565b8015612b0f5780601f10612ae457610100808354040283529160200191612b0f565b820191906000526020600020905b815481529060010190602001808311612af257829003601f168201915b505050505090806003018054612b249061454a565b80601f0160208091040260200160405190810160405280929190818152602001828054612b509061454a565b8015612b9d5780601f10612b7257610100808354040283529160200191612b9d565b820191906000526020600020905b815481529060010190602001808311612b8057829003601f168201915b5050505050908060040160009054906101000a900460ff16908060050154905086565b6060600160003373ffffffffffffffffffffffffffffffffffffffff1673ffffffffffffffffffffffffffffffffffffffff168152602001908152602001600020805480602002602001604051908101604052809291908181526020016000905b82821015612e4857838290600052602060002090600602016040518060c00160405290816000820160009054906101000a900473ffffffffffffffffffffffffffffffffffffffff1673ffffffffffffffffffffffffffffffffffffffff1673ffffffffffffffffffffffffffffffffffffffff1681526020016001820160009054906101000a900473ffffffffffffffffffffffffffffffffffffffff1673ffffffffffffffffffffffffffffffffffffffff1673ffffffffffffffffffffffffffffffffffffffff168152602001600282018054612d009061454a565b80601f0160208091040260200160405190810160405280929190818152602001828054612d2c9061454a565b8015612d795780601f10612d4e57610100808354040283529160200191612d79565b820191906000526020600020905b815481529060010190602001808311612d5c57829003601f168201915b50505050508152602001600382018054612d929061454a565b80601f0160208091040260200160405190810160405280929190818152602001828054612dbe9061454a565b8015612e0b5780601f10612de057610100808354040283529160200191612e0b565b820191906000526020600020905b815481529060010190602001808311612dee57829003601f168201915b505050505081526020016004820160009054906101000a900460ff1615151515815260200160058201548152505081526020019060010190612c21565b50505050905090565b6060600560003373ffffffffffffffffffffffffffffffffffffffff1673ffffffffffffffffffffffffffffffffffffffff168152602001908152602001600020805480602002602001604051908101604052809291908181526020016000905b828210156130b45783829060005260206000209060040201604051806080016040529081600082018054612ee59061454a565b80601f0160208091040260200160405190810160405280929190818152602001828054612f119061454a565b8015612f5e5780601f10612f3357610100808354040283529160200191612f5e565b820191906000526020600020905b815481529060010190602001808311612f4157829003601f168201915b505050505081526020016001820160009054906101000a900473ffffffffffffffffffffffffffffffffffffffff1673ffffffffffffffffffffffffffffffffffffffff1673ffffffffffffffffffffffffffffffffffffffff1681526020016002820160009054906101000a900473ffffffffffffffffffffffffffffffffffffffff1673ffffffffffffffffffffffffffffffffffffffff1673ffffffffffffffffffffffffffffffffffffffff1681526020016003820180546130239061454a565b80601f016020809104026020016040519081016040528092919081815260200182805461304f9061454a565b801561309c5780601f106130715761010080835404028352916020019161309c565b820191906000526020600020905b81548152906001019060200180831161307f57829003601f168201915b50505050508152505081526020019060010190612eb2565b50505050905090565b6130c561362c565b84816040018190525082816060018190525081816020019073ffffffffffffffffffffffffffffffffffffffff16908173ffffffffffffffffffffffffffffffffffffffff168152505033816000019073ffffffffffffffffffffffffffffffffffffffff16908173ffffffffffffffffffffffffffffffffffffffff168152505061314f610403565b8160a00181815250506002846040516131689190614504565b908152602001604051809103902081908060018154018082558091505060019003906000526020600020906006020160009091909190915060008201518160000160006101000a81548173ffffffffffffffffffffffffffffffffffffffff021916908373ffffffffffffffffffffffffffffffffffffffff16021790555060208201518160010160006101000a81548173ffffffffffffffffffffffffffffffffffffffff021916908373ffffffffffffffffffffffffffffffffffffffff160217905550604082015181600201908051906020019061324a929190613690565b506060820151816003019080519060200190613267929190613690565b5060808201518160040160006101000a81548160ff02191690831515021790555060a082015181600501555050836003846040516132a59190614504565b908152602001604051809103902090805190602001906132c6929190613690565b505050505050565b6060600460003373ffffffffffffffffffffffffffffffffffffffff1673ffffffffffffffffffffffffffffffffffffffff168152602001908152602001600020805480602002602001604051908101604052809291908181526020016000905b8282101561353157838290600052602060002090600402016040518060800160405290816000820180546133629061454a565b80601f016020809104026020016040519081016040528092919081815260200182805461338e9061454a565b80156133db5780601f106133b0576101008083540402835291602001916133db565b820191906000526020600020905b8154815290600101906020018083116133be57829003601f168201915b505050505081526020016001820160009054906101000a900473ffffffffffffffffffffffffffffffffffffffff1673ffffffffffffffffffffffffffffffffffffffff1673ffffffffffffffffffffffffffffffffffffffff1681526020016002820160009054906101000a900473ffffffffffffffffffffffffffffffffffffffff1673ffffffffffffffffffffffffffffffffffffffff1673ffffffffffffffffffffffffffffffffffffffff1681526020016003820180546134a09061454a565b80601f01602080910402602001604051908101604052809291908181526020018280546134cc9061454a565b80156135195780601f106134ee57610100808354040283529160200191613519565b820191906000526020600020905b8154815290600101906020018083116134fc57829003601f168201915b5050505050815250508152602001906001019061332f565b50505050905090565b600081604001518260600151836000015184602001516040516020016135639493929190614675565b6040516020818303038152906040528051906020012083604001518460600151856000015186602001516040516020016135a09493929190614675565b6040516020818303038152906040528051906020012014905092915050565b6000816040015182606001516040516020016135dc9291906146bb565b604051602081830303815290604052805190602001208360400151846060015160405160200161360d9291906146bb565b6040516020818303038152906040528051906020012014905092915050565b6040518060c00160405280600073ffffffffffffffffffffffffffffffffffffffff168152602001600073ffffffffffffffffffffffffffffffffffffffff1681526020016060815260200160608152602001600015158152602001600081525090565b82805461369c9061454a565b90600052602060002090601f0160209004810192826136be5760008555613705565b82601f106136d757805160ff1916838001178555613705565b82800160010185558215613705579182015b828111156137045782518255916020019190600101906136e9565b5b5090506137129190613830565b5090565b5080546137229061454a565b6000825580601f106137345750613753565b601f0160209004906000526020600020908101906137529190613830565b5b50565b604051806080016040528060608152602001600073ffffffffffffffffffffffffffffffffffffffff168152602001600073ffffffffffffffffffffffffffffffffffffffff168152602001606081525090565b8280546137b69061454a565b90600052602060002090601f0160209004810192826137d8576000855561381f565b82601f106137f157805160ff191683800117855561381f565b8280016001018555821561381f579182015b8281111561381e578251825591602001919060010190613803565b5b50905061382c9190613830565b5090565b5b80821115613849576000816000905550600101613831565b5090565b6000819050919050565b6138608161384d565b82525050565b600060208201905061387b6000830184613857565b92915050565b6000604051905090565b600080fd5b600080fd5b600073ffffffffffffffffffffffffffffffffffffffff82169050919050565b60006138c082613895565b9050919050565b6138d0816138b5565b81146138db57600080fd5b50565b6000813590506138ed816138c7565b92915050565b600080fd5b600080fd5b6000601f19601f8301169050919050565b7f4e487b7100000000000000000000000000000000000000000000000000000000600052604160045260246000fd5b613946826138fd565b810181811067ffffffffffffffff821117156139655761396461390e565b5b80604052505050565b6000613978613881565b9050613984828261393d565b919050565b600067ffffffffffffffff8211156139a4576139a361390e565b5b6139ad826138fd565b9050602081019050919050565b82818337600083830152505050565b60006139dc6139d784613989565b61396e565b9050828152602081018484840111156139f8576139f76138f8565b5b613a038482856139ba565b509392505050565b600082601f830112613a2057613a1f6138f3565b5b8135613a308482602086016139c9565b91505092915050565b600080600060608486031215613a5257613a5161388b565b5b6000613a60868287016138de565b935050602084013567ffffffffffffffff811115613a8157613a80613890565b5b613a8d86828701613a0b565b925050604084013567ffffffffffffffff811115613aae57613aad613890565b5b613aba86828701613a0b565b9150509250925092565b600080fd5b600080fd5b60008115159050919050565b613ae381613ace565b8114613aee57600080fd5b50565b600081359050613b0081613ada565b92915050565b613b0f8161384d565b8114613b1a57600080fd5b50565b600081359050613b2c81613b06565b92915050565b600060c08284031215613b4857613b47613ac4565b5b613b5260c061396e565b90506000613b62848285016138de565b6000830152506020613b76848285016138de565b602083015250604082013567ffffffffffffffff811115613b9a57613b99613ac9565b5b613ba684828501613a0b565b604083015250606082013567ffffffffffffffff811115613bca57613bc9613ac9565b5b613bd684828501613a0b565b6060830152506080613bea84828501613af1565b60808301525060a0613bfe84828501613b1d565b60a08301525092915050565b60008060408385031215613c2157613c2061388b565b5b6000613c2f858286016138de565b925050602083013567ffffffffffffffff811115613c5057613c4f613890565b5b613c5c85828601613b32565b9150509250929050565b600060208284031215613c7c57613c7b61388b565b5b600082013567ffffffffffffffff811115613c9a57613c99613890565b5b613ca684828501613a0b565b91505092915050565b600081519050919050565b600082825260208201905092915050565b60005b83811015613ce9578082015181840152602081019050613cce565b83811115613cf8576000848401525b50505050565b6000613d0982613caf565b613d138185613cba565b9350613d23818560208601613ccb565b613d2c816138fd565b840191505092915050565b60006020820190508181036000830152613d518184613cfe565b905092915050565b600081519050919050565b600082825260208201905092915050565b6000819050602082019050919050565b613d8e816138b5565b82525050565b600082825260208201905092915050565b6000613db082613caf565b613dba8185613d94565b9350613dca818560208601613ccb565b613dd3816138fd565b840191505092915050565b613de781613ace565b82525050565b613df68161384d565b82525050565b600060c083016000830151613e146000860182613d85565b506020830151613e276020860182613d85565b5060408301518482036040860152613e3f8282613da5565b91505060608301518482036060860152613e598282613da5565b9150506080830151613e6e6080860182613dde565b5060a0830151613e8160a0860182613ded565b508091505092915050565b6000613e988383613dfc565b905092915050565b6000602082019050919050565b6000613eb882613d59565b613ec28185613d64565b935083602082028501613ed485613d75565b8060005b85811015613f105784840389528151613ef18582613e8c565b9450613efc83613ea0565b925060208a01995050600181019050613ed8565b50829750879550505050505092915050565b60006020820190508181036000830152613f3c8184613ead565b905092915050565b60008060408385031215613f5b57613f5a61388b565b5b6000613f69858286016138de565b9250506020613f7a85828601613b1d565b9150509250929050565b600081519050919050565b600082825260208201905092915050565b6000613fab82613f84565b613fb58185613f8f565b9350613fc5818560208601613ccb565b613fce816138fd565b840191505092915050565b613fe2816138b5565b82525050565b600060808201905081810360008301526140028187613fa0565b90506140116020830186613fd9565b61401e6040830185613fd9565b81810360608301526140308184613fa0565b905095945050505050565b6000819050919050565b61404e8161403b565b82525050565b60006020820190506140696000830184614045565b92915050565b61407881613ace565b82525050565b600060c0820190506140936000830189613fd9565b6140a06020830188613fd9565b81810360408301526140b28187613cfe565b905081810360608301526140c68186613cfe565b90506140d5608083018561406f565b6140e260a0830184613857565b979650505050505050565b600080604083850312156141045761410361388b565b5b600083013567ffffffffffffffff81111561412257614121613890565b5b61412e85828601613a0b565b925050602061413f85828601613b1d565b9150509250929050565b600067ffffffffffffffff8211156141645761416361390e565b5b61416d826138fd565b9050602081019050919050565b600061418d61418884614149565b61396e565b9050828152602081018484840111156141a9576141a86138f8565b5b6141b48482856139ba565b509392505050565b600082601f8301126141d1576141d06138f3565b5b81356141e184826020860161417a565b91505092915050565b6000806000606084860312156142035761420261388b565b5b600084013567ffffffffffffffff81111561422157614220613890565b5b61422d868287016141bc565b935050602084013567ffffffffffffffff81111561424e5761424d613890565b5b61425a868287016141bc565b925050604061426b868287016138de565b9150509250925092565b600081519050919050565b600082825260208201905092915050565b6000819050602082019050919050565b600082825260208201905092915050565b60006142bd82613f84565b6142c781856142a1565b93506142d7818560208601613ccb565b6142e0816138fd565b840191505092915050565b6000608083016000830151848203600086015261430882826142b2565b915050602083015161431d6020860182613d85565b5060408301516143306040860182613d85565b506060830151848203606086015261434882826142b2565b9150508091505092915050565b600061436183836142eb565b905092915050565b6000602082019050919050565b600061438182614275565b61438b8185614280565b93508360208202850161439d85614291565b8060005b858110156143d957848403895281516143ba8582614355565b94506143c583614369565b925060208a019950506001810190506143a1565b50829750879550505050505092915050565b600060208201905081810360008301526144058184614376565b905092915050565b600080600080608085870312156144275761442661388b565b5b600085013567ffffffffffffffff81111561444557614444613890565b5b61445187828801613a0b565b945050602085013567ffffffffffffffff81111561447257614471613890565b5b61447e87828801613a0b565b935050604085013567ffffffffffffffff81111561449f5761449e613890565b5b6144ab87828801613a0b565b92505060606144bc878288016138de565b91505092959194509250565b600081905092915050565b60006144de82613caf565b6144e881856144c8565b93506144f8818560208601613ccb565b80840191505092915050565b600061451082846144d3565b915081905092915050565b7f4e487b7100000000000000000000000000000000000000000000000000000000600052602260045260246000fd5b6000600282049050600182168061456257607f821691505b6020821081036145755761457461451b565b5b50919050565b7f4e487b7100000000000000000000000000000000000000000000000000000000600052603260045260246000fd5b7f4e487b7100000000000000000000000000000000000000000000000000000000600052601160045260246000fd5b60006145e48261384d565b91507fffffffffffffffffffffffffffffffffffffffffffffffffffffffffffffffff8203614616576146156145aa565b5b600182019050919050565b60006c0100000000000000000000000082029050919050565b600061464582614621565b9050919050565b60006146578261463a565b9050919050565b61466f61466a826138b5565b61464c565b82525050565b600061468182876144d3565b915061468d82866144d3565b9150614699828561465e565b6014820191506146a9828461465e565b60148201915081905095945050505050565b60006146c782856144d3565b91506146d382846144d3565b9150819050939250505056fea26469706673582212205ac9f2d8049b08257004afb04ce3b9e078c0595cacd961be7a76ee9bcfd36f9964736f6c634300080d0033",
  "immutableReferences": {},
  "source": "// SPDX-License-Identifier: MIT\npragma solidity >=0.8.1;\npragma abicoder v2;\n\ncontract Decaf {\n    struct Document {\n        address from;\n        address to;\n        string fileName;\n        string ipfsHash;\n        bool access;\n        uint256 time;\n    }\n\n    struct DocumentSigned {\n        bytes signature;\n        address signer;\n        address receiver;\n        bytes mssgHash;\n    }\n\n    function DocHash(string memory ipfsHash) public pure returns (bytes32) {\n        return keccak256(abi.encode(ipfsHash));\n    }\n\n    function Time_call() public view returns (uint256) {\n        return block.timestamp;\n    }\n\n    mapping(address => Document[]) public documentsIssued;\n    mapping(address => Document[]) public documentsReceived;\n\n    mapping(string => Document[]) public documentDirectory;\n    mapping(string => string) public documentVersionMasterLink;\n\n    mapping(address => DocumentSigned[]) public documentsSigned;\n    mapping(address => DocumentSigned[]) public documentsSignedReceived;\n\n    address[] userIssuedTo;\n\n    function issueDocument(\n        address to,\n        string memory fileName,\n        string memory ipfsHash\n    ) public {\n        Document memory document;\n        document.from = msg.sender;\n        document.to = to;\n        document.fileName = fileName;\n        document.ipfsHash = ipfsHash;\n        document.access = true;\n        documentsIssued[msg.sender].push(document);\n        documentsReceived[to].push(document);\n        document.time = Time_call();\n        if (documentDirectory[document.ipfsHash].length == 0)\n            documentDirectory[document.ipfsHash].push(document);\n    }\n\n    function issueDocumentVersion(\n        string memory fileName,\n        string memory ipfsHashMaster,\n        string memory ipfsHash,\n        address to\n    ) public {\n        Document memory document;\n        document.fileName = fileName;\n        document.ipfsHash = ipfsHash;\n        document.to = to;\n        document.from = msg.sender;\n        document.time = Time_call();\n        documentDirectory[ipfsHashMaster].push(document);\n        documentVersionMasterLink[ipfsHash] = ipfsHashMaster;\n    }\n\n    function signDocument(\n        bytes memory signature,\n        bytes memory mssgHash,\n        address receiver\n    ) public {\n        DocumentSigned memory document;\n        document.signer = msg.sender;\n        document.signature = signature;\n        document.mssgHash = mssgHash;\n        document.receiver = receiver;\n        documentsSigned[msg.sender].push(document);\n        documentsSignedReceived[receiver].push(document);\n    }\n\n    function getDocumentsIssued() public view returns (Document[] memory) {\n        return documentsIssued[msg.sender];\n    }\n\n    function getDocumentVersionsIssued(string memory ipfsHash)\n        public\n        view\n        returns (Document[] memory)\n    {\n        return documentDirectory[ipfsHash];\n    }\n\n    function getDocumentVersionLink(string memory ipfsHash)\n        public\n        view\n        returns (string memory)\n    {\n        return documentVersionMasterLink[ipfsHash];\n    }\n\n    function getDocumentsReceived() public view returns (Document[] memory) {\n        return documentsReceived[msg.sender];\n    }\n\n    function revokeDocument(address user, Document memory doc) public {\n        Document[] memory ownerDocs = documentsIssued[msg.sender];\n        Document[] memory receivedDocs = documentsReceived[user];\n        Document[] memory issuedDocs = documentsIssued[user];\n\n        for (uint256 i = 0; i < ownerDocs.length; i++) {\n            if (equalsOwner(ownerDocs[i], doc)) {\n                documentsIssued[msg.sender][i].access = false;\n            }\n        }\n\n        for (uint256 i = 0; i < receivedDocs.length; i++) {\n            if (equals(receivedDocs[i], doc)) {\n                delete documentsReceived[user][i];\n            }\n        }\n\n        for (uint256 i = 0; i < issuedDocs.length; i++) {\n            if (equals(issuedDocs[i], doc)) {\n                if (documentsIssued[user][i].to != msg.sender) {\n                    userIssuedTo.push(documentsIssued[user][i].to);\n                }\n                delete documentsIssued[user][i];\n            }\n        }\n\n        for (uint256 j = 0; j < userIssuedTo.length; j++) {\n            Document[] memory userIssuedToDocs = documentsReceived[\n                userIssuedTo[j]\n            ];\n            for (uint256 i = 0; i < userIssuedToDocs.length; i++) {\n                if (equals(userIssuedToDocs[i], doc)) {\n                    delete documentsReceived[userIssuedTo[j]][i];\n                }\n            }\n        }\n    }\n\n    function equals(Document memory _first, Document memory _second)\n        internal\n        view\n        returns (bool)\n    {\n        // Just compare the output of hashing all fields packed\n        return (keccak256(abi.encodePacked(_first.fileName, _first.ipfsHash)) ==\n            keccak256(abi.encodePacked(_second.fileName, _second.ipfsHash)));\n    }\n\n    function equalsOwner(Document memory _first, Document memory _second)\n        internal\n        view\n        returns (bool)\n    {\n        // Just compare the output of hashing all fields packed\n        return (keccak256(\n            abi.encodePacked(\n                _first.fileName,\n                _first.ipfsHash,\n                _first.from,\n                _first.to\n            )\n        ) ==\n            keccak256(\n                abi.encodePacked(\n                    _second.fileName,\n                    _second.ipfsHash,\n                    _second.from,\n                    _second.to\n                )\n            ));\n    }\n\n    function getDocumentsSigned()\n        public\n        view\n        returns (DocumentSigned[] memory)\n    {\n        return documentsSigned[msg.sender];\n    }\n\n    function getDocumentsSignedReceived()\n        public\n        view\n        returns (DocumentSigned[] memory)\n    {\n        return documentsSignedReceived[msg.sender];\n    }\n}\n\n//0x5B38Da6a701c568545dCfcB03FcB875f56beddC4\n\n//0xAb8483F64d9C6d1EcF9b849Ae677dD3315835cb2\n\n//0x4B20993Bc481177ec7E8f571ceCaE8A9e22C02db\n\n//0x78731D3Ca6b7E34aC0F824c42a7cC18A495cabaB\n\n//[\"0x5B38Da6a701c568545dCfcB03FcB875f56beddC4\",\"0xAb8483F64d9C6d1EcF9b849Ae677dD3315835cb2\",\"doc1_master\",\"doc1_master\",true]\n",
  "sourcePath": "/Users/shreyasmore/Desktop/Final_Project/DECAF/DECAF-React/contracts/Decaf.sol",
  "compiler": {
    "name": "solc",
    "version": "0.8.13+commit.abaa5c0e.Emscripten.clang"
  },
  "schemaVersion": "3.4.4",
  "updatedAt": "2022-05-09T10:11:12.160Z",
  "networkType": "ethereum",
  "devdoc": {
    "kind": "dev",
    "methods": {},
    "version": 1
  },
  "userdoc": {
    "kind": "user",
    "methods": {},
    "version": 1
  }
}