{
  "contractName": "Decaf",
  "abi": [
    {
      "inputs": [
        {
          "internalType": "string",
          "name": "",
          "type": "string"
        },
        {
          "internalType": "uint256",
          "name": "",
          "type": "uint256"
        }
      ],
      "name": "documentDirectory",
      "outputs": [
        {
          "internalType": "address",
          "name": "from",
          "type": "address"
        },
        {
          "internalType": "address",
          "name": "to",
          "type": "address"
        },
        {
          "internalType": "string",
          "name": "fileName",
          "type": "string"
        },
        {
          "internalType": "string",
          "name": "ipfsHash",
          "type": "string"
        },
        {
          "internalType": "bool",
          "name": "access",
          "type": "bool"
        }
      ],
      "stateMutability": "view",
      "type": "function",
      "constant": true
    },
    {
      "inputs": [
        {
          "internalType": "address",
          "name": "",
          "type": "address"
        },
        {
          "internalType": "uint256",
          "name": "",
          "type": "uint256"
        }
      ],
      "name": "documentsIssued",
      "outputs": [
        {
          "internalType": "address",
          "name": "from",
          "type": "address"
        },
        {
          "internalType": "address",
          "name": "to",
          "type": "address"
        },
        {
          "internalType": "string",
          "name": "fileName",
          "type": "string"
        },
        {
          "internalType": "string",
          "name": "ipfsHash",
          "type": "string"
        },
        {
          "internalType": "bool",
          "name": "access",
          "type": "bool"
        }
      ],
      "stateMutability": "view",
      "type": "function",
      "constant": true
    },
    {
      "inputs": [
        {
          "internalType": "address",
          "name": "",
          "type": "address"
        },
        {
          "internalType": "uint256",
          "name": "",
          "type": "uint256"
        }
      ],
      "name": "documentsReceived",
      "outputs": [
        {
          "internalType": "address",
          "name": "from",
          "type": "address"
        },
        {
          "internalType": "address",
          "name": "to",
          "type": "address"
        },
        {
          "internalType": "string",
          "name": "fileName",
          "type": "string"
        },
        {
          "internalType": "string",
          "name": "ipfsHash",
          "type": "string"
        },
        {
          "internalType": "bool",
          "name": "access",
          "type": "bool"
        }
      ],
      "stateMutability": "view",
      "type": "function",
      "constant": true
    },
    {
      "inputs": [
        {
          "internalType": "address",
          "name": "",
          "type": "address"
        },
        {
          "internalType": "uint256",
          "name": "",
          "type": "uint256"
        }
      ],
      "name": "documentsSigned",
      "outputs": [
        {
          "internalType": "bytes",
          "name": "signature",
          "type": "bytes"
        },
        {
          "internalType": "address",
          "name": "signer",
          "type": "address"
        },
        {
          "internalType": "address",
          "name": "receiver",
          "type": "address"
        },
        {
          "internalType": "bytes",
          "name": "mssgHash",
          "type": "bytes"
        }
      ],
      "stateMutability": "view",
      "type": "function",
      "constant": true
    },
    {
      "inputs": [
        {
          "internalType": "address",
          "name": "",
          "type": "address"
        },
        {
          "internalType": "uint256",
          "name": "",
          "type": "uint256"
        }
      ],
      "name": "documentsSignedReceived",
      "outputs": [
        {
          "internalType": "bytes",
          "name": "signature",
          "type": "bytes"
        },
        {
          "internalType": "address",
          "name": "signer",
          "type": "address"
        },
        {
          "internalType": "address",
          "name": "receiver",
          "type": "address"
        },
        {
          "internalType": "bytes",
          "name": "mssgHash",
          "type": "bytes"
        }
      ],
      "stateMutability": "view",
      "type": "function",
      "constant": true
    },
    {
      "inputs": [
        {
          "internalType": "string",
          "name": "ipfsHash",
          "type": "string"
        }
      ],
      "name": "DocHash",
      "outputs": [
        {
          "internalType": "bytes32",
          "name": "",
          "type": "bytes32"
        }
      ],
      "stateMutability": "pure",
      "type": "function",
      "constant": true
    },
    {
      "inputs": [
        {
          "internalType": "address",
          "name": "to",
          "type": "address"
        },
        {
          "internalType": "string",
          "name": "fileName",
          "type": "string"
        },
        {
          "internalType": "string",
          "name": "ipfsHash",
          "type": "string"
        }
      ],
      "name": "issueDocument",
      "outputs": [],
      "stateMutability": "nonpayable",
      "type": "function"
    },
    {
      "inputs": [
        {
          "internalType": "string",
          "name": "fileName",
          "type": "string"
        },
        {
          "internalType": "string",
          "name": "ipfsHash",
          "type": "string"
        },
        {
          "internalType": "address",
          "name": "to",
          "type": "address"
        }
      ],
      "name": "issueDocumentVersion",
      "outputs": [],
      "stateMutability": "nonpayable",
      "type": "function"
    },
    {
      "inputs": [
        {
          "internalType": "bytes",
          "name": "signature",
          "type": "bytes"
        },
        {
          "internalType": "bytes",
          "name": "mssgHash",
          "type": "bytes"
        },
        {
          "internalType": "address",
          "name": "receiver",
          "type": "address"
        }
      ],
      "name": "signDocument",
      "outputs": [],
      "stateMutability": "nonpayable",
      "type": "function"
    },
    {
      "inputs": [],
      "name": "getDocumentsIssued",
      "outputs": [
        {
          "components": [
            {
              "internalType": "address",
              "name": "from",
              "type": "address"
            },
            {
              "internalType": "address",
              "name": "to",
              "type": "address"
            },
            {
              "internalType": "string",
              "name": "fileName",
              "type": "string"
            },
            {
              "internalType": "string",
              "name": "ipfsHash",
              "type": "string"
            },
            {
              "internalType": "bool",
              "name": "access",
              "type": "bool"
            }
          ],
          "internalType": "struct Decaf.Document[]",
          "name": "",
          "type": "tuple[]"
        }
      ],
      "stateMutability": "view",
      "type": "function",
      "constant": true
    },
    {
      "inputs": [
        {
          "internalType": "string",
          "name": "ipfsHash",
          "type": "string"
        }
      ],
      "name": "getDocumentVersionsIssued",
      "outputs": [
        {
          "components": [
            {
              "internalType": "address",
              "name": "from",
              "type": "address"
            },
            {
              "internalType": "address",
              "name": "to",
              "type": "address"
            },
            {
              "internalType": "string",
              "name": "fileName",
              "type": "string"
            },
            {
              "internalType": "string",
              "name": "ipfsHash",
              "type": "string"
            },
            {
              "internalType": "bool",
              "name": "access",
              "type": "bool"
            }
          ],
          "internalType": "struct Decaf.Document[]",
          "name": "",
          "type": "tuple[]"
        }
      ],
      "stateMutability": "view",
      "type": "function",
      "constant": true
    },
    {
      "inputs": [],
      "name": "getDocumentsReceived",
      "outputs": [
        {
          "components": [
            {
              "internalType": "address",
              "name": "from",
              "type": "address"
            },
            {
              "internalType": "address",
              "name": "to",
              "type": "address"
            },
            {
              "internalType": "string",
              "name": "fileName",
              "type": "string"
            },
            {
              "internalType": "string",
              "name": "ipfsHash",
              "type": "string"
            },
            {
              "internalType": "bool",
              "name": "access",
              "type": "bool"
            }
          ],
          "internalType": "struct Decaf.Document[]",
          "name": "",
          "type": "tuple[]"
        }
      ],
      "stateMutability": "view",
      "type": "function",
      "constant": true
    },
    {
      "inputs": [
        {
          "internalType": "address",
          "name": "user",
          "type": "address"
        },
        {
          "components": [
            {
              "internalType": "address",
              "name": "from",
              "type": "address"
            },
            {
              "internalType": "address",
              "name": "to",
              "type": "address"
            },
            {
              "internalType": "string",
              "name": "fileName",
              "type": "string"
            },
            {
              "internalType": "string",
              "name": "ipfsHash",
              "type": "string"
            },
            {
              "internalType": "bool",
              "name": "access",
              "type": "bool"
            }
          ],
          "internalType": "struct Decaf.Document",
          "name": "doc",
          "type": "tuple"
        }
      ],
      "name": "revokeDocument",
      "outputs": [],
      "stateMutability": "nonpayable",
      "type": "function"
    },
    {
      "inputs": [],
      "name": "getDocumentsSigned",
      "outputs": [
        {
          "components": [
            {
              "internalType": "bytes",
              "name": "signature",
              "type": "bytes"
            },
            {
              "internalType": "address",
              "name": "signer",
              "type": "address"
            },
            {
              "internalType": "address",
              "name": "receiver",
              "type": "address"
            },
            {
              "internalType": "bytes",
              "name": "mssgHash",
              "type": "bytes"
            }
          ],
          "internalType": "struct Decaf.DocumentSigned[]",
          "name": "",
          "type": "tuple[]"
        }
      ],
      "stateMutability": "view",
      "type": "function",
      "constant": true
    },
    {
      "inputs": [],
      "name": "getDocumentsSignedReceived",
      "outputs": [
        {
          "components": [
            {
              "internalType": "bytes",
              "name": "signature",
              "type": "bytes"
            },
            {
              "internalType": "address",
              "name": "signer",
              "type": "address"
            },
            {
              "internalType": "address",
              "name": "receiver",
              "type": "address"
            },
            {
              "internalType": "bytes",
              "name": "mssgHash",
              "type": "bytes"
            }
          ],
          "internalType": "struct Decaf.DocumentSigned[]",
          "name": "",
          "type": "tuple[]"
        }
      ],
      "stateMutability": "view",
      "type": "function",
      "constant": true
    }
  ],
  "bytecode": "0x608060405234801561001057600080fd5b50614372806100206000396000f3fe608060405234801561001057600080fd5b5060043610610112576000357c0100000000000000000000000000000000000000000000000000000000900480637834707d116100b4578063ac01137011610083578063ac011370146102d3578063ac29683414610307578063e11609c614610325578063e6ed799f1461034357610112565b80637834707d146102205780638768e7881461025457806399fe9d21146102845780639dafb60a146102a057610112565b8063603128e3116100f0578063603128e314610184578063613531c8146101a05780636aa09113146101d05780636d6e06711461020457610112565b80630de35f551461011757806343bdc07e146101335780634a94f0ad14610151575b600080fd5b610131600480360381019061012c9190613700565b610361565b005b61013b61080b565b604051610148919061397c565b60405180910390f35b61016b600480360381019061016691906139d4565b610a91565b60405161017b9493929190613a78565b60405180910390f35b61019e60048036038101906101999190613bc5565b610c2e565b005b6101ba60048036038101906101b59190613c21565b611cca565b6040516101c79190613c83565b60405180910390f35b6101ea60048036038101906101e591906139d4565b611cfa565b6040516101fb959493929190613cf7565b60405180910390f35b61021e60048036038101906102199190613d58565b611eaa565b005b61023a60048036038101906102359190613de3565b61206c565b60405161024b959493929190613cf7565b60405180910390f35b61026e60048036038101906102699190613c21565b612232565b60405161027b919061397c565b60405180910390f35b61029e60048036038101906102999190613ee0565b61249a565b005b6102ba60048036038101906102b591906139d4565b612790565b6040516102ca9493929190613a78565b60405180910390f35b6102ed60048036038101906102e891906139d4565b61292d565b6040516102fe959493929190613cf7565b60405180910390f35b61030f612add565b60405161031c919061397c565b60405180910390f35b61032d612d64565b60405161033a91906140e1565b60405180910390f35b61034b612fd0565b60405161035891906140e1565b60405180910390f35b61036961332e565b33816000019073ffffffffffffffffffffffffffffffffffffffff16908173ffffffffffffffffffffffffffffffffffffffff168152505083816020019073ffffffffffffffffffffffffffffffffffffffff16908173ffffffffffffffffffffffffffffffffffffffff168152505082816040018190525081816060018190525060018160800190151590811515815250506000803373ffffffffffffffffffffffffffffffffffffffff1673ffffffffffffffffffffffffffffffffffffffff16815260200190815260200160002081908060018154018082558091505060019003906000526020600020906005020160009091909190915060008201518160000160006101000a81548173ffffffffffffffffffffffffffffffffffffffff021916908373ffffffffffffffffffffffffffffffffffffffff16021790555060208201518160010160006101000a81548173ffffffffffffffffffffffffffffffffffffffff021916908373ffffffffffffffffffffffffffffffffffffffff160217905550604082015181600201908051906020019061050e92919061338b565b50606082015181600301908051906020019061052b92919061338b565b5060808201518160040160006101000a81548160ff0219169083151502179055505050600160008573ffffffffffffffffffffffffffffffffffffffff1673ffffffffffffffffffffffffffffffffffffffff16815260200190815260200160002081908060018154018082558091505060019003906000526020600020906005020160009091909190915060008201518160000160006101000a81548173ffffffffffffffffffffffffffffffffffffffff021916908373ffffffffffffffffffffffffffffffffffffffff16021790555060208201518160010160006101000a81548173ffffffffffffffffffffffffffffffffffffffff021916908373ffffffffffffffffffffffffffffffffffffffff160217905550604082015181600201908051906020019061066192919061338b565b50606082015181600301908051906020019061067e92919061338b565b5060808201518160040160006101000a81548160ff02191690831515021790555050506000600282606001516040516106b7919061413f565b9081526020016040518091039020805490500361080557600281606001516040516106e2919061413f565b908152602001604051809103902081908060018154018082558091505060019003906000526020600020906005020160009091909190915060008201518160000160006101000a81548173ffffffffffffffffffffffffffffffffffffffff021916908373ffffffffffffffffffffffffffffffffffffffff16021790555060208201518160010160006101000a81548173ffffffffffffffffffffffffffffffffffffffff021916908373ffffffffffffffffffffffffffffffffffffffff16021790555060408201518160020190805190602001906107c492919061338b565b5060608201518160030190805190602001906107e192919061338b565b5060808201518160040160006101000a81548160ff02191690831515021790555050505b50505050565b60606000803373ffffffffffffffffffffffffffffffffffffffff1673ffffffffffffffffffffffffffffffffffffffff168152602001908152602001600020805480602002602001604051908101604052809291908181526020016000905b82821015610a8857838290600052602060002090600502016040518060a00160405290816000820160009054906101000a900473ffffffffffffffffffffffffffffffffffffffff1673ffffffffffffffffffffffffffffffffffffffff1673ffffffffffffffffffffffffffffffffffffffff1681526020016001820160009054906101000a900473ffffffffffffffffffffffffffffffffffffffff1673ffffffffffffffffffffffffffffffffffffffff1673ffffffffffffffffffffffffffffffffffffffff16815260200160028201805461094a90614185565b80601f016020809104026020016040519081016040528092919081815260200182805461097690614185565b80156109c35780601f10610998576101008083540402835291602001916109c3565b820191906000526020600020905b8154815290600101906020018083116109a657829003601f168201915b505050505081526020016003820180546109dc90614185565b80601f0160208091040260200160405190810160405280929190818152602001828054610a0890614185565b8015610a555780601f10610a2a57610100808354040283529160200191610a55565b820191906000526020600020905b815481529060010190602001808311610a3857829003601f168201915b505050505081526020016004820160009054906101000a900460ff1615151515815250508152602001906001019061086b565b50505050905090565b60046020528160005260406000208181548110610aad57600080fd5b906000526020600020906004020160009150915050806000018054610ad190614185565b80601f0160208091040260200160405190810160405280929190818152602001828054610afd90614185565b8015610b4a5780601f10610b1f57610100808354040283529160200191610b4a565b820191906000526020600020905b815481529060010190602001808311610b2d57829003601f168201915b5050505050908060010160009054906101000a900473ffffffffffffffffffffffffffffffffffffffff16908060020160009054906101000a900473ffffffffffffffffffffffffffffffffffffffff1690806003018054610bab90614185565b80601f0160208091040260200160405190810160405280929190818152602001828054610bd790614185565b8015610c245780601f10610bf957610100808354040283529160200191610c24565b820191906000526020600020905b815481529060010190602001808311610c0757829003601f168201915b5050505050905084565b60008060003373ffffffffffffffffffffffffffffffffffffffff1673ffffffffffffffffffffffffffffffffffffffff168152602001908152602001600020805480602002602001604051908101604052809291908181526020016000905b82821015610eab57838290600052602060002090600502016040518060a00160405290816000820160009054906101000a900473ffffffffffffffffffffffffffffffffffffffff1673ffffffffffffffffffffffffffffffffffffffff1673ffffffffffffffffffffffffffffffffffffffff1681526020016001820160009054906101000a900473ffffffffffffffffffffffffffffffffffffffff1673ffffffffffffffffffffffffffffffffffffffff1673ffffffffffffffffffffffffffffffffffffffff168152602001600282018054610d6d90614185565b80601f0160208091040260200160405190810160405280929190818152602001828054610d9990614185565b8015610de65780601f10610dbb57610100808354040283529160200191610de6565b820191906000526020600020905b815481529060010190602001808311610dc957829003601f168201915b50505050508152602001600382018054610dff90614185565b80601f0160208091040260200160405190810160405280929190818152602001828054610e2b90614185565b8015610e785780601f10610e4d57610100808354040283529160200191610e78565b820191906000526020600020905b815481529060010190602001808311610e5b57829003601f168201915b505050505081526020016004820160009054906101000a900460ff16151515158152505081526020019060010190610c8e565b5050505090506000600160008573ffffffffffffffffffffffffffffffffffffffff1673ffffffffffffffffffffffffffffffffffffffff168152602001908152602001600020805480602002602001604051908101604052809291908181526020016000905b8282101561112f57838290600052602060002090600502016040518060a00160405290816000820160009054906101000a900473ffffffffffffffffffffffffffffffffffffffff1673ffffffffffffffffffffffffffffffffffffffff1673ffffffffffffffffffffffffffffffffffffffff1681526020016001820160009054906101000a900473ffffffffffffffffffffffffffffffffffffffff1673ffffffffffffffffffffffffffffffffffffffff1673ffffffffffffffffffffffffffffffffffffffff168152602001600282018054610ff190614185565b80601f016020809104026020016040519081016040528092919081815260200182805461101d90614185565b801561106a5780601f1061103f5761010080835404028352916020019161106a565b820191906000526020600020905b81548152906001019060200180831161104d57829003601f168201915b5050505050815260200160038201805461108390614185565b80601f01602080910402602001604051908101604052809291908181526020018280546110af90614185565b80156110fc5780601f106110d1576101008083540402835291602001916110fc565b820191906000526020600020905b8154815290600101906020018083116110df57829003601f168201915b505050505081526020016004820160009054906101000a900460ff16151515158152505081526020019060010190610f12565b50505050905060008060008673ffffffffffffffffffffffffffffffffffffffff1673ffffffffffffffffffffffffffffffffffffffff168152602001908152602001600020805480602002602001604051908101604052809291908181526020016000905b828210156113b257838290600052602060002090600502016040518060a00160405290816000820160009054906101000a900473ffffffffffffffffffffffffffffffffffffffff1673ffffffffffffffffffffffffffffffffffffffff1673ffffffffffffffffffffffffffffffffffffffff1681526020016001820160009054906101000a900473ffffffffffffffffffffffffffffffffffffffff1673ffffffffffffffffffffffffffffffffffffffff1673ffffffffffffffffffffffffffffffffffffffff16815260200160028201805461127490614185565b80601f01602080910402602001604051908101604052809291908181526020018280546112a090614185565b80156112ed5780601f106112c2576101008083540402835291602001916112ed565b820191906000526020600020905b8154815290600101906020018083116112d057829003601f168201915b5050505050815260200160038201805461130690614185565b80601f016020809104026020016040519081016040528092919081815260200182805461133290614185565b801561137f5780601f106113545761010080835404028352916020019161137f565b820191906000526020600020905b81548152906001019060200180831161136257829003601f168201915b505050505081526020016004820160009054906101000a900460ff16151515158152505081526020019060010190611195565b50505050905060005b835181101561147b576113e88482815181106113da576113d96141b6565b5b60200260200101518661323c565b156114685760008060003373ffffffffffffffffffffffffffffffffffffffff1673ffffffffffffffffffffffffffffffffffffffff168152602001908152602001600020828154811061143f5761143e6141b6565b5b906000526020600020906005020160040160006101000a81548160ff0219169083151502179055505b808061147390614214565b9150506113bb565b5060005b82518110156115a9576114ac83828151811061149e5761149d6141b6565b5b6020026020010151866132c1565b1561159657600160008773ffffffffffffffffffffffffffffffffffffffff1673ffffffffffffffffffffffffffffffffffffffff1681526020019081526020016000208181548110611502576115016141b6565b5b9060005260206000209060050201600080820160006101000a81549073ffffffffffffffffffffffffffffffffffffffff02191690556001820160006101000a81549073ffffffffffffffffffffffffffffffffffffffff021916905560028201600061156f9190613411565b60038201600061157f9190613411565b6004820160006101000a81549060ff021916905550505b80806115a190614214565b91505061147f565b5060005b815181101561186f576115da8282815181106115cc576115cb6141b6565b5b6020026020010151866132c1565b1561185c573373ffffffffffffffffffffffffffffffffffffffff166000808873ffffffffffffffffffffffffffffffffffffffff1673ffffffffffffffffffffffffffffffffffffffff1681526020019081526020016000208281548110611646576116456141b6565b5b906000526020600020906005020160010160009054906101000a900473ffffffffffffffffffffffffffffffffffffffff1673ffffffffffffffffffffffffffffffffffffffff16146117785760056000808873ffffffffffffffffffffffffffffffffffffffff1673ffffffffffffffffffffffffffffffffffffffff16815260200190815260200160002082815481106116e5576116e46141b6565b5b906000526020600020906005020160010160009054906101000a900473ffffffffffffffffffffffffffffffffffffffff169080600181540180825580915050600190039060005260206000200160009091909190916101000a81548173ffffffffffffffffffffffffffffffffffffffff021916908373ffffffffffffffffffffffffffffffffffffffff1602179055505b6000808773ffffffffffffffffffffffffffffffffffffffff1673ffffffffffffffffffffffffffffffffffffffff16815260200190815260200160002081815481106117c8576117c76141b6565b5b9060005260206000209060050201600080820160006101000a81549073ffffffffffffffffffffffffffffffffffffffff02191690556001820160006101000a81549073ffffffffffffffffffffffffffffffffffffffff02191690556002820160006118359190613411565b6003820160006118459190613411565b6004820160006101000a81549060ff021916905550505b808061186790614214565b9150506115ad565b5060005b600580549050811015611cc2576000600160006005848154811061189a576118996141b6565b5b9060005260206000200160009054906101000a900473ffffffffffffffffffffffffffffffffffffffff1673ffffffffffffffffffffffffffffffffffffffff1673ffffffffffffffffffffffffffffffffffffffff168152602001908152602001600020805480602002602001604051908101604052809291908181526020016000905b82821015611b3c57838290600052602060002090600502016040518060a00160405290816000820160009054906101000a900473ffffffffffffffffffffffffffffffffffffffff1673ffffffffffffffffffffffffffffffffffffffff1673ffffffffffffffffffffffffffffffffffffffff1681526020016001820160009054906101000a900473ffffffffffffffffffffffffffffffffffffffff1673ffffffffffffffffffffffffffffffffffffffff1673ffffffffffffffffffffffffffffffffffffffff1681526020016002820180546119fe90614185565b80601f0160208091040260200160405190810160405280929190818152602001828054611a2a90614185565b8015611a775780601f10611a4c57610100808354040283529160200191611a77565b820191906000526020600020905b815481529060010190602001808311611a5a57829003601f168201915b50505050508152602001600382018054611a9090614185565b80601f0160208091040260200160405190810160405280929190818152602001828054611abc90614185565b8015611b095780601f10611ade57610100808354040283529160200191611b09565b820191906000526020600020905b815481529060010190602001808311611aec57829003601f168201915b505050505081526020016004820160009054906101000a900460ff1615151515815250508152602001906001019061191f565b50505050905060005b8151811015611cad57611b72828281518110611b6457611b636141b6565b5b6020026020010151886132c1565b15611c9a576001600060058581548110611b8f57611b8e6141b6565b5b9060005260206000200160009054906101000a900473ffffffffffffffffffffffffffffffffffffffff1673ffffffffffffffffffffffffffffffffffffffff1673ffffffffffffffffffffffffffffffffffffffff1681526020019081526020016000208181548110611c0657611c056141b6565b5b9060005260206000209060050201600080820160006101000a81549073ffffffffffffffffffffffffffffffffffffffff02191690556001820160006101000a81549073ffffffffffffffffffffffffffffffffffffffff0219169055600282016000611c739190613411565b600382016000611c839190613411565b6004820160006101000a81549060ff021916905550505b8080611ca590614214565b915050611b45565b50508080611cba90614214565b915050611873565b505050505050565b600081604051602001611cdd919061425c565b604051602081830303815290604052805190602001209050919050565b60006020528160005260406000208181548110611d1657600080fd5b9060005260206000209060050201600091509150508060000160009054906101000a900473ffffffffffffffffffffffffffffffffffffffff16908060010160009054906101000a900473ffffffffffffffffffffffffffffffffffffffff1690806002018054611d8690614185565b80601f0160208091040260200160405190810160405280929190818152602001828054611db290614185565b8015611dff5780601f10611dd457610100808354040283529160200191611dff565b820191906000526020600020905b815481529060010190602001808311611de257829003601f168201915b505050505090806003018054611e1490614185565b80601f0160208091040260200160405190810160405280929190818152602001828054611e4090614185565b8015611e8d5780601f10611e6257610100808354040283529160200191611e8d565b820191906000526020600020905b815481529060010190602001808311611e7057829003601f168201915b5050505050908060040160009054906101000a900460ff16905085565b611eb261332e565b83816040018190525082816060018190525081816020019073ffffffffffffffffffffffffffffffffffffffff16908173ffffffffffffffffffffffffffffffffffffffff168152505033816000019073ffffffffffffffffffffffffffffffffffffffff16908173ffffffffffffffffffffffffffffffffffffffff1681525050600283604051611f44919061413f565b908152602001604051809103902081908060018154018082558091505060019003906000526020600020906005020160009091909190915060008201518160000160006101000a81548173ffffffffffffffffffffffffffffffffffffffff021916908373ffffffffffffffffffffffffffffffffffffffff16021790555060208201518160010160006101000a81548173ffffffffffffffffffffffffffffffffffffffff021916908373ffffffffffffffffffffffffffffffffffffffff160217905550604082015181600201908051906020019061202692919061338b565b50606082015181600301908051906020019061204392919061338b565b5060808201518160040160006101000a81548160ff021916908315150217905550505050505050565b600282805160208101820180518482526020830160208501208183528095505050505050818154811061209e57600080fd5b9060005260206000209060050201600091509150508060000160009054906101000a900473ffffffffffffffffffffffffffffffffffffffff16908060010160009054906101000a900473ffffffffffffffffffffffffffffffffffffffff169080600201805461210e90614185565b80601f016020809104026020016040519081016040528092919081815260200182805461213a90614185565b80156121875780601f1061215c57610100808354040283529160200191612187565b820191906000526020600020905b81548152906001019060200180831161216a57829003601f168201915b50505050509080600301805461219c90614185565b80601f01602080910402602001604051908101604052809291908181526020018280546121c890614185565b80156122155780601f106121ea57610100808354040283529160200191612215565b820191906000526020600020905b8154815290600101906020018083116121f857829003601f168201915b5050505050908060040160009054906101000a900460ff16905085565b6060600282604051612244919061413f565b9081526020016040518091039020805480602002602001604051908101604052809291908181526020016000905b8282101561248f57838290600052602060002090600502016040518060a00160405290816000820160009054906101000a900473ffffffffffffffffffffffffffffffffffffffff1673ffffffffffffffffffffffffffffffffffffffff1673ffffffffffffffffffffffffffffffffffffffff1681526020016001820160009054906101000a900473ffffffffffffffffffffffffffffffffffffffff1673ffffffffffffffffffffffffffffffffffffffff1673ffffffffffffffffffffffffffffffffffffffff16815260200160028201805461235190614185565b80601f016020809104026020016040519081016040528092919081815260200182805461237d90614185565b80156123ca5780601f1061239f576101008083540402835291602001916123ca565b820191906000526020600020905b8154815290600101906020018083116123ad57829003601f168201915b505050505081526020016003820180546123e390614185565b80601f016020809104026020016040519081016040528092919081815260200182805461240f90614185565b801561245c5780601f106124315761010080835404028352916020019161245c565b820191906000526020600020905b81548152906001019060200180831161243f57829003601f168201915b505050505081526020016004820160009054906101000a900460ff16151515158152505081526020019060010190612272565b505050509050919050565b6124a2613451565b33816020019073ffffffffffffffffffffffffffffffffffffffff16908173ffffffffffffffffffffffffffffffffffffffff168152505083816000018190525082816060018190525081816040019073ffffffffffffffffffffffffffffffffffffffff16908173ffffffffffffffffffffffffffffffffffffffff1681525050600360003373ffffffffffffffffffffffffffffffffffffffff1673ffffffffffffffffffffffffffffffffffffffff16815260200190815260200160002081908060018154018082558091505060019003906000526020600020906004020160009091909190915060008201518160000190805190602001906125a99291906134a5565b5060208201518160010160006101000a81548173ffffffffffffffffffffffffffffffffffffffff021916908373ffffffffffffffffffffffffffffffffffffffff16021790555060408201518160020160006101000a81548173ffffffffffffffffffffffffffffffffffffffff021916908373ffffffffffffffffffffffffffffffffffffffff16021790555060608201518160030190805190602001906126549291906134a5565b505050600460008373ffffffffffffffffffffffffffffffffffffffff1673ffffffffffffffffffffffffffffffffffffffff16815260200190815260200160002081908060018154018082558091505060019003906000526020600020906004020160009091909190915060008201518160000190805190602001906126dc9291906134a5565b5060208201518160010160006101000a81548173ffffffffffffffffffffffffffffffffffffffff021916908373ffffffffffffffffffffffffffffffffffffffff16021790555060408201518160020160006101000a81548173ffffffffffffffffffffffffffffffffffffffff021916908373ffffffffffffffffffffffffffffffffffffffff16021790555060608201518160030190805190602001906127879291906134a5565b50505050505050565b600360205281600052604060002081815481106127ac57600080fd5b9060005260206000209060040201600091509150508060000180546127d090614185565b80601f01602080910402602001604051908101604052809291908181526020018280546127fc90614185565b80156128495780601f1061281e57610100808354040283529160200191612849565b820191906000526020600020905b81548152906001019060200180831161282c57829003601f168201915b5050505050908060010160009054906101000a900473ffffffffffffffffffffffffffffffffffffffff16908060020160009054906101000a900473ffffffffffffffffffffffffffffffffffffffff16908060030180546128aa90614185565b80601f01602080910402602001604051908101604052809291908181526020018280546128d690614185565b80156129235780601f106128f857610100808354040283529160200191612923565b820191906000526020600020905b81548152906001019060200180831161290657829003601f168201915b5050505050905084565b6001602052816000526040600020818154811061294957600080fd5b9060005260206000209060050201600091509150508060000160009054906101000a900473ffffffffffffffffffffffffffffffffffffffff16908060010160009054906101000a900473ffffffffffffffffffffffffffffffffffffffff16908060020180546129b990614185565b80601f01602080910402602001604051908101604052809291908181526020018280546129e590614185565b8015612a325780601f10612a0757610100808354040283529160200191612a32565b820191906000526020600020905b815481529060010190602001808311612a1557829003601f168201915b505050505090806003018054612a4790614185565b80601f0160208091040260200160405190810160405280929190818152602001828054612a7390614185565b8015612ac05780601f10612a9557610100808354040283529160200191612ac0565b820191906000526020600020905b815481529060010190602001808311612aa357829003601f168201915b5050505050908060040160009054906101000a900460ff16905085565b6060600160003373ffffffffffffffffffffffffffffffffffffffff1673ffffffffffffffffffffffffffffffffffffffff168152602001908152602001600020805480602002602001604051908101604052809291908181526020016000905b82821015612d5b57838290600052602060002090600502016040518060a00160405290816000820160009054906101000a900473ffffffffffffffffffffffffffffffffffffffff1673ffffffffffffffffffffffffffffffffffffffff1673ffffffffffffffffffffffffffffffffffffffff1681526020016001820160009054906101000a900473ffffffffffffffffffffffffffffffffffffffff1673ffffffffffffffffffffffffffffffffffffffff1673ffffffffffffffffffffffffffffffffffffffff168152602001600282018054612c1d90614185565b80601f0160208091040260200160405190810160405280929190818152602001828054612c4990614185565b8015612c965780601f10612c6b57610100808354040283529160200191612c96565b820191906000526020600020905b815481529060010190602001808311612c7957829003601f168201915b50505050508152602001600382018054612caf90614185565b80601f0160208091040260200160405190810160405280929190818152602001828054612cdb90614185565b8015612d285780601f10612cfd57610100808354040283529160200191612d28565b820191906000526020600020905b815481529060010190602001808311612d0b57829003601f168201915b505050505081526020016004820160009054906101000a900460ff16151515158152505081526020019060010190612b3e565b50505050905090565b6060600460003373ffffffffffffffffffffffffffffffffffffffff1673ffffffffffffffffffffffffffffffffffffffff168152602001908152602001600020805480602002602001604051908101604052809291908181526020016000905b82821015612fc75783829060005260206000209060040201604051806080016040529081600082018054612df890614185565b80601f0160208091040260200160405190810160405280929190818152602001828054612e2490614185565b8015612e715780601f10612e4657610100808354040283529160200191612e71565b820191906000526020600020905b815481529060010190602001808311612e5457829003601f168201915b505050505081526020016001820160009054906101000a900473ffffffffffffffffffffffffffffffffffffffff1673ffffffffffffffffffffffffffffffffffffffff1673ffffffffffffffffffffffffffffffffffffffff1681526020016002820160009054906101000a900473ffffffffffffffffffffffffffffffffffffffff1673ffffffffffffffffffffffffffffffffffffffff1673ffffffffffffffffffffffffffffffffffffffff168152602001600382018054612f3690614185565b80601f0160208091040260200160405190810160405280929190818152602001828054612f6290614185565b8015612faf5780601f10612f8457610100808354040283529160200191612faf565b820191906000526020600020905b815481529060010190602001808311612f9257829003601f168201915b50505050508152505081526020019060010190612dc5565b50505050905090565b6060600360003373ffffffffffffffffffffffffffffffffffffffff1673ffffffffffffffffffffffffffffffffffffffff168152602001908152602001600020805480602002602001604051908101604052809291908181526020016000905b82821015613233578382906000526020600020906004020160405180608001604052908160008201805461306490614185565b80601f016020809104026020016040519081016040528092919081815260200182805461309090614185565b80156130dd5780601f106130b2576101008083540402835291602001916130dd565b820191906000526020600020905b8154815290600101906020018083116130c057829003601f168201915b505050505081526020016001820160009054906101000a900473ffffffffffffffffffffffffffffffffffffffff1673ffffffffffffffffffffffffffffffffffffffff1673ffffffffffffffffffffffffffffffffffffffff1681526020016002820160009054906101000a900473ffffffffffffffffffffffffffffffffffffffff1673ffffffffffffffffffffffffffffffffffffffff1673ffffffffffffffffffffffffffffffffffffffff1681526020016003820180546131a290614185565b80601f01602080910402602001604051908101604052809291908181526020018280546131ce90614185565b801561321b5780601f106131f05761010080835404028352916020019161321b565b820191906000526020600020905b8154815290600101906020018083116131fe57829003601f168201915b50505050508152505081526020019060010190613031565b50505050905090565b6000816040015182606001518360000151846020015160405160200161326594939291906142d2565b6040516020818303038152906040528051906020012083604001518460600151856000015186602001516040516020016132a294939291906142d2565b6040516020818303038152906040528051906020012014905092915050565b6000816040015182606001516040516020016132de929190614318565b604051602081830303815290604052805190602001208360400151846060015160405160200161330f929190614318565b6040516020818303038152906040528051906020012014905092915050565b6040518060a00160405280600073ffffffffffffffffffffffffffffffffffffffff168152602001600073ffffffffffffffffffffffffffffffffffffffff16815260200160608152602001606081526020016000151581525090565b82805461339790614185565b90600052602060002090601f0160209004810192826133b95760008555613400565b82601f106133d257805160ff1916838001178555613400565b82800160010185558215613400579182015b828111156133ff5782518255916020019190600101906133e4565b5b50905061340d919061352b565b5090565b50805461341d90614185565b6000825580601f1061342f575061344e565b601f01602090049060005260206000209081019061344d919061352b565b5b50565b604051806080016040528060608152602001600073ffffffffffffffffffffffffffffffffffffffff168152602001600073ffffffffffffffffffffffffffffffffffffffff168152602001606081525090565b8280546134b190614185565b90600052602060002090601f0160209004810192826134d3576000855561351a565b82601f106134ec57805160ff191683800117855561351a565b8280016001018555821561351a579182015b828111156135195782518255916020019190600101906134fe565b5b509050613527919061352b565b5090565b5b8082111561354457600081600090555060010161352c565b5090565b6000604051905090565b600080fd5b600080fd5b600073ffffffffffffffffffffffffffffffffffffffff82169050919050565b60006135878261355c565b9050919050565b6135978161357c565b81146135a257600080fd5b50565b6000813590506135b48161358e565b92915050565b600080fd5b600080fd5b6000601f19601f8301169050919050565b7f4e487b7100000000000000000000000000000000000000000000000000000000600052604160045260246000fd5b61360d826135c4565b810181811067ffffffffffffffff8211171561362c5761362b6135d5565b5b80604052505050565b600061363f613548565b905061364b8282613604565b919050565b600067ffffffffffffffff82111561366b5761366a6135d5565b5b613674826135c4565b9050602081019050919050565b82818337600083830152505050565b60006136a361369e84613650565b613635565b9050828152602081018484840111156136bf576136be6135bf565b5b6136ca848285613681565b509392505050565b600082601f8301126136e7576136e66135ba565b5b81356136f7848260208601613690565b91505092915050565b60008060006060848603121561371957613718613552565b5b6000613727868287016135a5565b935050602084013567ffffffffffffffff81111561374857613747613557565b5b613754868287016136d2565b925050604084013567ffffffffffffffff81111561377557613774613557565b5b613781868287016136d2565b9150509250925092565b600081519050919050565b600082825260208201905092915050565b6000819050602082019050919050565b6137c08161357c565b82525050565b600081519050919050565b600082825260208201905092915050565b60005b838110156138005780820151818401526020810190506137e5565b8381111561380f576000848401525b50505050565b6000613820826137c6565b61382a81856137d1565b935061383a8185602086016137e2565b613843816135c4565b840191505092915050565b60008115159050919050565b6138638161384e565b82525050565b600060a08301600083015161388160008601826137b7565b50602083015161389460208601826137b7565b50604083015184820360408601526138ac8282613815565b915050606083015184820360608601526138c68282613815565b91505060808301516138db608086018261385a565b508091505092915050565b60006138f28383613869565b905092915050565b6000602082019050919050565b60006139128261378b565b61391c8185613796565b93508360208202850161392e856137a7565b8060005b8581101561396a578484038952815161394b85826138e6565b9450613956836138fa565b925060208a01995050600181019050613932565b50829750879550505050505092915050565b600060208201905081810360008301526139968184613907565b905092915050565b6000819050919050565b6139b18161399e565b81146139bc57600080fd5b50565b6000813590506139ce816139a8565b92915050565b600080604083850312156139eb576139ea613552565b5b60006139f9858286016135a5565b9250506020613a0a858286016139bf565b9150509250929050565b600081519050919050565b600082825260208201905092915050565b6000613a3b82613a14565b613a458185613a1f565b9350613a558185602086016137e2565b613a5e816135c4565b840191505092915050565b613a728161357c565b82525050565b60006080820190508181036000830152613a928187613a30565b9050613aa16020830186613a69565b613aae6040830185613a69565b8181036060830152613ac08184613a30565b905095945050505050565b600080fd5b600080fd5b613ade8161384e565b8114613ae957600080fd5b50565b600081359050613afb81613ad5565b92915050565b600060a08284031215613b1757613b16613acb565b5b613b2160a0613635565b90506000613b31848285016135a5565b6000830152506020613b45848285016135a5565b602083015250604082013567ffffffffffffffff811115613b6957613b68613ad0565b5b613b75848285016136d2565b604083015250606082013567ffffffffffffffff811115613b9957613b98613ad0565b5b613ba5848285016136d2565b6060830152506080613bb984828501613aec565b60808301525092915050565b60008060408385031215613bdc57613bdb613552565b5b6000613bea858286016135a5565b925050602083013567ffffffffffffffff811115613c0b57613c0a613557565b5b613c1785828601613b01565b9150509250929050565b600060208284031215613c3757613c36613552565b5b600082013567ffffffffffffffff811115613c5557613c54613557565b5b613c61848285016136d2565b91505092915050565b6000819050919050565b613c7d81613c6a565b82525050565b6000602082019050613c986000830184613c74565b92915050565b600082825260208201905092915050565b6000613cba826137c6565b613cc48185613c9e565b9350613cd48185602086016137e2565b613cdd816135c4565b840191505092915050565b613cf18161384e565b82525050565b600060a082019050613d0c6000830188613a69565b613d196020830187613a69565b8181036040830152613d2b8186613caf565b90508181036060830152613d3f8185613caf565b9050613d4e6080830184613ce8565b9695505050505050565b600080600060608486031215613d7157613d70613552565b5b600084013567ffffffffffffffff811115613d8f57613d8e613557565b5b613d9b868287016136d2565b935050602084013567ffffffffffffffff811115613dbc57613dbb613557565b5b613dc8868287016136d2565b9250506040613dd9868287016135a5565b9150509250925092565b60008060408385031215613dfa57613df9613552565b5b600083013567ffffffffffffffff811115613e1857613e17613557565b5b613e24858286016136d2565b9250506020613e35858286016139bf565b9150509250929050565b600067ffffffffffffffff821115613e5a57613e596135d5565b5b613e63826135c4565b9050602081019050919050565b6000613e83613e7e84613e3f565b613635565b905082815260208101848484011115613e9f57613e9e6135bf565b5b613eaa848285613681565b509392505050565b600082601f830112613ec757613ec66135ba565b5b8135613ed7848260208601613e70565b91505092915050565b600080600060608486031215613ef957613ef8613552565b5b600084013567ffffffffffffffff811115613f1757613f16613557565b5b613f2386828701613eb2565b935050602084013567ffffffffffffffff811115613f4457613f43613557565b5b613f5086828701613eb2565b9250506040613f61868287016135a5565b9150509250925092565b600081519050919050565b600082825260208201905092915050565b6000819050602082019050919050565b600082825260208201905092915050565b6000613fb382613a14565b613fbd8185613f97565b9350613fcd8185602086016137e2565b613fd6816135c4565b840191505092915050565b60006080830160008301518482036000860152613ffe8282613fa8565b915050602083015161401360208601826137b7565b50604083015161402660408601826137b7565b506060830151848203606086015261403e8282613fa8565b9150508091505092915050565b60006140578383613fe1565b905092915050565b6000602082019050919050565b600061407782613f6b565b6140818185613f76565b93508360208202850161409385613f87565b8060005b858110156140cf57848403895281516140b0858261404b565b94506140bb8361405f565b925060208a01995050600181019050614097565b50829750879550505050505092915050565b600060208201905081810360008301526140fb818461406c565b905092915050565b600081905092915050565b6000614119826137c6565b6141238185614103565b93506141338185602086016137e2565b80840191505092915050565b600061414b828461410e565b915081905092915050565b7f4e487b7100000000000000000000000000000000000000000000000000000000600052602260045260246000fd5b6000600282049050600182168061419d57607f821691505b6020821081036141b0576141af614156565b5b50919050565b7f4e487b7100000000000000000000000000000000000000000000000000000000600052603260045260246000fd5b7f4e487b7100000000000000000000000000000000000000000000000000000000600052601160045260246000fd5b600061421f8261399e565b91507fffffffffffffffffffffffffffffffffffffffffffffffffffffffffffffffff8203614251576142506141e5565b5b600182019050919050565b600060208201905081810360008301526142768184613caf565b905092915050565b60006c0100000000000000000000000082029050919050565b60006142a28261427e565b9050919050565b60006142b482614297565b9050919050565b6142cc6142c78261357c565b6142a9565b82525050565b60006142de828761410e565b91506142ea828661410e565b91506142f682856142bb565b60148201915061430682846142bb565b60148201915081905095945050505050565b6000614324828561410e565b9150614330828461410e565b9150819050939250505056fea26469706673582212202a3d6f9cf9b76e1fb46b0518ce23f167f6523daa1174be0cacce1c6aca7adf5564736f6c634300080d0033",
  "immutableReferences": {},
  "source": "// SPDX-License-Identifier: MIT\npragma solidity >=0.8.1;\npragma abicoder v2;\n\ncontract Decaf {\n    struct Document {\n        address from;\n        address to;\n        string fileName;\n        string ipfsHash;\n        bool access;\n    }\n\n    struct DocumentSigned {\n        bytes signature;\n        address signer;\n        address receiver;\n        bytes mssgHash;\n    }\n\n\n    function DocHash(string memory ipfsHash) public pure returns(bytes32) {\n        return keccak256(abi.encode(ipfsHash));\n    }\n\n\n    mapping(address => Document[]) public documentsIssued;\n    mapping(address => Document[]) public documentsReceived;\n\n    mapping(string=>Document[]) public documentDirectory;\n\n    mapping(address => DocumentSigned[]) public documentsSigned;\n    mapping(address => DocumentSigned[]) public documentsSignedReceived;\n\n    address[] userIssuedTo;\n\n    function issueDocument(\n        address to,\n        string memory fileName,\n        string memory ipfsHash\n    ) public {\n        Document memory document;\n        document.from = msg.sender;\n        document.to = to;\n        document.fileName = fileName;\n        document.ipfsHash = ipfsHash;\n        document.access = true;\n        documentsIssued[msg.sender].push(document);\n        documentsReceived[to].push(document);\n        if(documentDirectory[document.ipfsHash].length == 0)\n            documentDirectory[document.ipfsHash].push(document);\n    }\n\n    function issueDocumentVersion(\n        string memory fileName,\n        string memory ipfsHash,\n        address to\n    ) public {\n        Document memory document;\n        document.fileName = fileName;\n        document.ipfsHash = ipfsHash;\n        document.to = to;\n        document.from = msg.sender;\n        documentDirectory[ipfsHash].push(document);\n    }\n\n    function signDocument(\n        bytes memory signature,\n        bytes memory mssgHash,\n        address receiver\n    ) public {\n        DocumentSigned memory document;\n        document.signer = msg.sender;\n        document.signature = signature;\n        document.mssgHash = mssgHash;\n        document.receiver = receiver;\n        documentsSigned[msg.sender].push(document);\n        documentsSignedReceived[receiver].push(document);\n    }\n\n    function getDocumentsIssued() public view returns (Document[] memory) {\n        return documentsIssued[msg.sender];\n    }\n\n    function getDocumentVersionsIssued(string memory ipfsHash) public view returns (Document[] memory) {\n        return documentDirectory[ipfsHash];\n    }\n\n    function getDocumentsReceived() public view returns (Document[] memory) {\n        return documentsReceived[msg.sender];\n    }\n\n\n    function revokeDocument(address user, Document memory doc) public {\n        Document[] memory ownerDocs = documentsIssued[msg.sender];\n        Document[] memory receivedDocs = documentsReceived[user];\n        Document[] memory issuedDocs = documentsIssued[user];\n\n        for (uint256 i = 0; i < ownerDocs.length; i++) {\n            if (equalsOwner(ownerDocs[i], doc)) {\n                documentsIssued[msg.sender][i].access = false;\n        }\n    }\n\n        for (uint256 i = 0; i < receivedDocs.length; i++) {\n            if (equals(receivedDocs[i], doc)) {\n                delete documentsReceived[user][i];\n            }\n        }\n\n        for (uint256 i = 0; i < issuedDocs.length; i++) {\n            if (equals(issuedDocs[i], doc)) {\n                if (documentsIssued[user][i].to != msg.sender) {\n                    userIssuedTo.push(documentsIssued[user][i].to);\n                }\n                delete documentsIssued[user][i];\n            }\n        }\n\n        for (uint256 j = 0; j < userIssuedTo.length; j++) {\n            Document[] memory userIssuedToDocs = documentsReceived[\n                userIssuedTo[j]\n            ];\n            for (uint256 i = 0; i < userIssuedToDocs.length; i++) {\n                if (equals(userIssuedToDocs[i], doc)) {\n                    delete documentsReceived[userIssuedTo[j]][i];\n                }\n            }\n        }\n    }\n\n    function equals(Document memory _first, Document memory _second)\n        internal\n        view\n        returns (bool)\n    {\n        // Just compare the output of hashing all fields packed\n        return (keccak256(abi.encodePacked(_first.fileName, _first.ipfsHash)) ==\n            keccak256(abi.encodePacked(_second.fileName, _second.ipfsHash)));\n    }\n\n    function equalsOwner(Document memory _first, Document memory _second)\n        internal\n        view\n        returns (bool)\n    {\n        // Just compare the output of hashing all fields packed\n        return (keccak256(\n            abi.encodePacked(\n                _first.fileName,\n                _first.ipfsHash,\n                _first.from,\n                _first.to\n            )\n        ) ==\n            keccak256(\n                abi.encodePacked(\n                    _second.fileName,\n                    _second.ipfsHash,\n                    _second.from,\n                    _second.to\n                )\n            ));\n    }\n\n    function getDocumentsSigned()\n        public\n        view\n        returns (DocumentSigned[] memory)\n    {\n        return documentsSigned[msg.sender];\n    }\n\n    function getDocumentsSignedReceived()\n        public\n        view\n        returns (DocumentSigned[] memory)\n    {\n        return documentsSignedReceived[msg.sender];\n    }\n}\n\n//0x5B38Da6a701c568545dCfcB03FcB875f56beddC4\n\n//0xAb8483F64d9C6d1EcF9b849Ae677dD3315835cb2\n\n//0x4B20993Bc481177ec7E8f571ceCaE8A9e22C02db\n\n//0x78731D3Ca6b7E34aC0F824c42a7cC18A495cabaB\n\n//[\"0x5B38Da6a701c568545dCfcB03FcB875f56beddC4\",\"0xAb8483F64d9C6d1EcF9b849Ae677dD3315835cb2\",\"doc1_master\",\"doc1_master\",true]\n",
  "sourcePath": "/Users/shreyasmore/Desktop/Final_Project/DECAF/DECAF-React/contracts/Decaf.sol",
  "compiler": {
    "name": "solc",
    "version": "0.8.13+commit.abaa5c0e.Emscripten.clang"
  },
  "schemaVersion": "3.4.4",
  "updatedAt": "2022-05-07T09:06:40.776Z",
  "networkType": "ethereum",
  "devdoc": {
    "kind": "dev",
    "methods": {},
    "version": 1
  },
  "userdoc": {
    "kind": "user",
    "methods": {},
    "version": 1
  }
}