{
  "contractName": "Decaf",
  "abi": [
    {
      "inputs": [
        {
          "internalType": "address",
          "name": "",
          "type": "address"
        },
        {
          "internalType": "uint256",
          "name": "",
          "type": "uint256"
        }
      ],
      "name": "documentsIssued",
      "outputs": [
        {
          "internalType": "address",
          "name": "from",
          "type": "address"
        },
        {
          "internalType": "address",
          "name": "to",
          "type": "address"
        },
        {
          "internalType": "string",
          "name": "fileName",
          "type": "string"
        },
        {
          "internalType": "string",
          "name": "ipfsHash",
          "type": "string"
        },
        {
          "internalType": "bool",
          "name": "access",
          "type": "bool"
        }
      ],
      "stateMutability": "view",
      "type": "function",
      "constant": true
    },
    {
      "inputs": [
        {
          "internalType": "address",
          "name": "",
          "type": "address"
        },
        {
          "internalType": "uint256",
          "name": "",
          "type": "uint256"
        }
      ],
      "name": "documentsReceived",
      "outputs": [
        {
          "internalType": "address",
          "name": "from",
          "type": "address"
        },
        {
          "internalType": "address",
          "name": "to",
          "type": "address"
        },
        {
          "internalType": "string",
          "name": "fileName",
          "type": "string"
        },
        {
          "internalType": "string",
          "name": "ipfsHash",
          "type": "string"
        },
        {
          "internalType": "bool",
          "name": "access",
          "type": "bool"
        }
      ],
      "stateMutability": "view",
      "type": "function",
      "constant": true
    },
    {
      "inputs": [
        {
          "internalType": "address",
          "name": "",
          "type": "address"
        },
        {
          "internalType": "uint256",
          "name": "",
          "type": "uint256"
        }
      ],
      "name": "documentsSigned",
      "outputs": [
        {
          "internalType": "bytes",
          "name": "signature",
          "type": "bytes"
        },
        {
          "internalType": "address",
          "name": "signer",
          "type": "address"
        },
        {
          "internalType": "address",
          "name": "receiver",
          "type": "address"
        },
        {
          "internalType": "bytes",
          "name": "mssgHash",
          "type": "bytes"
        }
      ],
      "stateMutability": "view",
      "type": "function",
      "constant": true
    },
    {
      "inputs": [
        {
          "internalType": "address",
          "name": "",
          "type": "address"
        },
        {
          "internalType": "uint256",
          "name": "",
          "type": "uint256"
        }
      ],
      "name": "documentsSignedReceived",
      "outputs": [
        {
          "internalType": "bytes",
          "name": "signature",
          "type": "bytes"
        },
        {
          "internalType": "address",
          "name": "signer",
          "type": "address"
        },
        {
          "internalType": "address",
          "name": "receiver",
          "type": "address"
        },
        {
          "internalType": "bytes",
          "name": "mssgHash",
          "type": "bytes"
        }
      ],
      "stateMutability": "view",
      "type": "function",
      "constant": true
    },
    {
      "inputs": [
        {
          "internalType": "address",
          "name": "to",
          "type": "address"
        },
        {
          "internalType": "string",
          "name": "fileName",
          "type": "string"
        },
        {
          "internalType": "string",
          "name": "ipfsHash",
          "type": "string"
        }
      ],
      "name": "issueDocument",
      "outputs": [],
      "stateMutability": "nonpayable",
      "type": "function"
    },
    {
      "inputs": [
        {
          "internalType": "bytes",
          "name": "signature",
          "type": "bytes"
        },
        {
          "internalType": "bytes",
          "name": "mssgHash",
          "type": "bytes"
        },
        {
          "internalType": "address",
          "name": "receiver",
          "type": "address"
        }
      ],
      "name": "signDocument",
      "outputs": [],
      "stateMutability": "nonpayable",
      "type": "function"
    },
    {
      "inputs": [],
      "name": "getDocumentsIssued",
      "outputs": [
        {
          "components": [
            {
              "internalType": "address",
              "name": "from",
              "type": "address"
            },
            {
              "internalType": "address",
              "name": "to",
              "type": "address"
            },
            {
              "internalType": "string",
              "name": "fileName",
              "type": "string"
            },
            {
              "internalType": "string",
              "name": "ipfsHash",
              "type": "string"
            },
            {
              "internalType": "bool",
              "name": "access",
              "type": "bool"
            }
          ],
          "internalType": "struct Decaf.Document[]",
          "name": "",
          "type": "tuple[]"
        }
      ],
      "stateMutability": "view",
      "type": "function",
      "constant": true
    },
    {
      "inputs": [],
      "name": "getDocumentsReceived",
      "outputs": [
        {
          "components": [
            {
              "internalType": "address",
              "name": "from",
              "type": "address"
            },
            {
              "internalType": "address",
              "name": "to",
              "type": "address"
            },
            {
              "internalType": "string",
              "name": "fileName",
              "type": "string"
            },
            {
              "internalType": "string",
              "name": "ipfsHash",
              "type": "string"
            },
            {
              "internalType": "bool",
              "name": "access",
              "type": "bool"
            }
          ],
          "internalType": "struct Decaf.Document[]",
          "name": "",
          "type": "tuple[]"
        }
      ],
      "stateMutability": "view",
      "type": "function",
      "constant": true
    },
    {
      "inputs": [
        {
          "internalType": "address",
          "name": "user",
          "type": "address"
        },
        {
          "components": [
            {
              "internalType": "address",
              "name": "from",
              "type": "address"
            },
            {
              "internalType": "address",
              "name": "to",
              "type": "address"
            },
            {
              "internalType": "string",
              "name": "fileName",
              "type": "string"
            },
            {
              "internalType": "string",
              "name": "ipfsHash",
              "type": "string"
            },
            {
              "internalType": "bool",
              "name": "access",
              "type": "bool"
            }
          ],
          "internalType": "struct Decaf.Document",
          "name": "doc",
          "type": "tuple"
        }
      ],
      "name": "revokeDocument",
      "outputs": [],
      "stateMutability": "nonpayable",
      "type": "function"
    },
    {
      "inputs": [],
      "name": "getDocumentsSigned",
      "outputs": [
        {
          "components": [
            {
              "internalType": "bytes",
              "name": "signature",
              "type": "bytes"
            },
            {
              "internalType": "address",
              "name": "signer",
              "type": "address"
            },
            {
              "internalType": "address",
              "name": "receiver",
              "type": "address"
            },
            {
              "internalType": "bytes",
              "name": "mssgHash",
              "type": "bytes"
            }
          ],
          "internalType": "struct Decaf.DocumentSigned[]",
          "name": "",
          "type": "tuple[]"
        }
      ],
      "stateMutability": "view",
      "type": "function",
      "constant": true
    },
    {
      "inputs": [],
      "name": "getDocumentsSignedReceived",
      "outputs": [
        {
          "components": [
            {
              "internalType": "bytes",
              "name": "signature",
              "type": "bytes"
            },
            {
              "internalType": "address",
              "name": "signer",
              "type": "address"
            },
            {
              "internalType": "address",
              "name": "receiver",
              "type": "address"
            },
            {
              "internalType": "bytes",
              "name": "mssgHash",
              "type": "bytes"
            }
          ],
          "internalType": "struct Decaf.DocumentSigned[]",
          "name": "",
          "type": "tuple[]"
        }
      ],
      "stateMutability": "view",
      "type": "function",
      "constant": true
    }
  ],
  "bytecode": "0x608060405234801561001057600080fd5b50613955806100206000396000f3fe608060405234801561001057600080fd5b50600436106100c6576000357c01000000000000000000000000000000000000000000000000000000009004806399fe9d211161008e57806399fe9d21146101885780639dafb60a146101a4578063ac011370146101d7578063ac2968341461020b578063e11609c614610229578063e6ed799f14610247576100c6565b80630de35f55146100cb57806343bdc07e146100e75780634a94f0ad14610105578063603128e3146101385780636aa0911314610154575b600080fd5b6100e560048036038101906100e09190612e80565b610265565b005b6100ef6105ab565b6040516100fc91906130fc565b60405180910390f35b61011f600480360381019061011a9190613154565b610831565b60405161012f94939291906131f8565b60405180910390f35b610152600480360381019061014d9190613345565b6109ce565b005b61016e60048036038101906101699190613154565b611a6a565b60405161017f9594939291906133fa565b60405180910390f35b6101a2600480360381019061019d91906134fc565b611c1a565b005b6101be60048036038101906101b99190613154565b611f10565b6040516101ce94939291906131f8565b60405180910390f35b6101f160048036038101906101ec9190613154565b6120ad565b6040516102029594939291906133fa565b60405180910390f35b61021361225d565b60405161022091906130fc565b60405180910390f35b6102316124e4565b60405161023e91906136fd565b60405180910390f35b61024f612750565b60405161025c91906136fd565b60405180910390f35b61026d612aae565b33816000019073ffffffffffffffffffffffffffffffffffffffff16908173ffffffffffffffffffffffffffffffffffffffff168152505083816020019073ffffffffffffffffffffffffffffffffffffffff16908173ffffffffffffffffffffffffffffffffffffffff168152505082816040018190525081816060018190525060018160800190151590811515815250506000803373ffffffffffffffffffffffffffffffffffffffff1673ffffffffffffffffffffffffffffffffffffffff16815260200190815260200160002081908060018154018082558091505060019003906000526020600020906005020160009091909190915060008201518160000160006101000a81548173ffffffffffffffffffffffffffffffffffffffff021916908373ffffffffffffffffffffffffffffffffffffffff16021790555060208201518160010160006101000a81548173ffffffffffffffffffffffffffffffffffffffff021916908373ffffffffffffffffffffffffffffffffffffffff1602179055506040820151816002019080519060200190610412929190612b0b565b50606082015181600301908051906020019061042f929190612b0b565b5060808201518160040160006101000a81548160ff0219169083151502179055505050600160008573ffffffffffffffffffffffffffffffffffffffff1673ffffffffffffffffffffffffffffffffffffffff16815260200190815260200160002081908060018154018082558091505060019003906000526020600020906005020160009091909190915060008201518160000160006101000a81548173ffffffffffffffffffffffffffffffffffffffff021916908373ffffffffffffffffffffffffffffffffffffffff16021790555060208201518160010160006101000a81548173ffffffffffffffffffffffffffffffffffffffff021916908373ffffffffffffffffffffffffffffffffffffffff1602179055506040820151816002019080519060200190610565929190612b0b565b506060820151816003019080519060200190610582929190612b0b565b5060808201518160040160006101000a81548160ff021916908315150217905550505050505050565b60606000803373ffffffffffffffffffffffffffffffffffffffff1673ffffffffffffffffffffffffffffffffffffffff168152602001908152602001600020805480602002602001604051908101604052809291908181526020016000905b8282101561082857838290600052602060002090600502016040518060a00160405290816000820160009054906101000a900473ffffffffffffffffffffffffffffffffffffffff1673ffffffffffffffffffffffffffffffffffffffff1673ffffffffffffffffffffffffffffffffffffffff1681526020016001820160009054906101000a900473ffffffffffffffffffffffffffffffffffffffff1673ffffffffffffffffffffffffffffffffffffffff1673ffffffffffffffffffffffffffffffffffffffff1681526020016002820180546106ea9061374e565b80601f01602080910402602001604051908101604052809291908181526020018280546107169061374e565b80156107635780601f1061073857610100808354040283529160200191610763565b820191906000526020600020905b81548152906001019060200180831161074657829003601f168201915b5050505050815260200160038201805461077c9061374e565b80601f01602080910402602001604051908101604052809291908181526020018280546107a89061374e565b80156107f55780601f106107ca576101008083540402835291602001916107f5565b820191906000526020600020905b8154815290600101906020018083116107d857829003601f168201915b505050505081526020016004820160009054906101000a900460ff1615151515815250508152602001906001019061060b565b50505050905090565b6003602052816000526040600020818154811061084d57600080fd5b9060005260206000209060040201600091509150508060000180546108719061374e565b80601f016020809104026020016040519081016040528092919081815260200182805461089d9061374e565b80156108ea5780601f106108bf576101008083540402835291602001916108ea565b820191906000526020600020905b8154815290600101906020018083116108cd57829003601f168201915b5050505050908060010160009054906101000a900473ffffffffffffffffffffffffffffffffffffffff16908060020160009054906101000a900473ffffffffffffffffffffffffffffffffffffffff169080600301805461094b9061374e565b80601f01602080910402602001604051908101604052809291908181526020018280546109779061374e565b80156109c45780601f10610999576101008083540402835291602001916109c4565b820191906000526020600020905b8154815290600101906020018083116109a757829003601f168201915b5050505050905084565b60008060003373ffffffffffffffffffffffffffffffffffffffff1673ffffffffffffffffffffffffffffffffffffffff168152602001908152602001600020805480602002602001604051908101604052809291908181526020016000905b82821015610c4b57838290600052602060002090600502016040518060a00160405290816000820160009054906101000a900473ffffffffffffffffffffffffffffffffffffffff1673ffffffffffffffffffffffffffffffffffffffff1673ffffffffffffffffffffffffffffffffffffffff1681526020016001820160009054906101000a900473ffffffffffffffffffffffffffffffffffffffff1673ffffffffffffffffffffffffffffffffffffffff1673ffffffffffffffffffffffffffffffffffffffff168152602001600282018054610b0d9061374e565b80601f0160208091040260200160405190810160405280929190818152602001828054610b399061374e565b8015610b865780601f10610b5b57610100808354040283529160200191610b86565b820191906000526020600020905b815481529060010190602001808311610b6957829003601f168201915b50505050508152602001600382018054610b9f9061374e565b80601f0160208091040260200160405190810160405280929190818152602001828054610bcb9061374e565b8015610c185780601f10610bed57610100808354040283529160200191610c18565b820191906000526020600020905b815481529060010190602001808311610bfb57829003601f168201915b505050505081526020016004820160009054906101000a900460ff16151515158152505081526020019060010190610a2e565b5050505090506000600160008573ffffffffffffffffffffffffffffffffffffffff1673ffffffffffffffffffffffffffffffffffffffff168152602001908152602001600020805480602002602001604051908101604052809291908181526020016000905b82821015610ecf57838290600052602060002090600502016040518060a00160405290816000820160009054906101000a900473ffffffffffffffffffffffffffffffffffffffff1673ffffffffffffffffffffffffffffffffffffffff1673ffffffffffffffffffffffffffffffffffffffff1681526020016001820160009054906101000a900473ffffffffffffffffffffffffffffffffffffffff1673ffffffffffffffffffffffffffffffffffffffff1673ffffffffffffffffffffffffffffffffffffffff168152602001600282018054610d919061374e565b80601f0160208091040260200160405190810160405280929190818152602001828054610dbd9061374e565b8015610e0a5780601f10610ddf57610100808354040283529160200191610e0a565b820191906000526020600020905b815481529060010190602001808311610ded57829003601f168201915b50505050508152602001600382018054610e239061374e565b80601f0160208091040260200160405190810160405280929190818152602001828054610e4f9061374e565b8015610e9c5780601f10610e7157610100808354040283529160200191610e9c565b820191906000526020600020905b815481529060010190602001808311610e7f57829003601f168201915b505050505081526020016004820160009054906101000a900460ff16151515158152505081526020019060010190610cb2565b50505050905060008060008673ffffffffffffffffffffffffffffffffffffffff1673ffffffffffffffffffffffffffffffffffffffff168152602001908152602001600020805480602002602001604051908101604052809291908181526020016000905b8282101561115257838290600052602060002090600502016040518060a00160405290816000820160009054906101000a900473ffffffffffffffffffffffffffffffffffffffff1673ffffffffffffffffffffffffffffffffffffffff1673ffffffffffffffffffffffffffffffffffffffff1681526020016001820160009054906101000a900473ffffffffffffffffffffffffffffffffffffffff1673ffffffffffffffffffffffffffffffffffffffff1673ffffffffffffffffffffffffffffffffffffffff1681526020016002820180546110149061374e565b80601f01602080910402602001604051908101604052809291908181526020018280546110409061374e565b801561108d5780601f106110625761010080835404028352916020019161108d565b820191906000526020600020905b81548152906001019060200180831161107057829003601f168201915b505050505081526020016003820180546110a69061374e565b80601f01602080910402602001604051908101604052809291908181526020018280546110d29061374e565b801561111f5780601f106110f45761010080835404028352916020019161111f565b820191906000526020600020905b81548152906001019060200180831161110257829003601f168201915b505050505081526020016004820160009054906101000a900460ff16151515158152505081526020019060010190610f35565b50505050905060005b835181101561121b5761118884828151811061117a5761117961377f565b5b6020026020010151866129bc565b156112085760008060003373ffffffffffffffffffffffffffffffffffffffff1673ffffffffffffffffffffffffffffffffffffffff16815260200190815260200160002082815481106111df576111de61377f565b5b906000526020600020906005020160040160006101000a81548160ff0219169083151502179055505b8080611213906137dd565b91505061115b565b5060005b82518110156113495761124c83828151811061123e5761123d61377f565b5b602002602001015186612a41565b1561133657600160008773ffffffffffffffffffffffffffffffffffffffff1673ffffffffffffffffffffffffffffffffffffffff16815260200190815260200160002081815481106112a2576112a161377f565b5b9060005260206000209060050201600080820160006101000a81549073ffffffffffffffffffffffffffffffffffffffff02191690556001820160006101000a81549073ffffffffffffffffffffffffffffffffffffffff021916905560028201600061130f9190612b91565b60038201600061131f9190612b91565b6004820160006101000a81549060ff021916905550505b8080611341906137dd565b91505061121f565b5060005b815181101561160f5761137a82828151811061136c5761136b61377f565b5b602002602001015186612a41565b156115fc573373ffffffffffffffffffffffffffffffffffffffff166000808873ffffffffffffffffffffffffffffffffffffffff1673ffffffffffffffffffffffffffffffffffffffff16815260200190815260200160002082815481106113e6576113e561377f565b5b906000526020600020906005020160010160009054906101000a900473ffffffffffffffffffffffffffffffffffffffff1673ffffffffffffffffffffffffffffffffffffffff16146115185760046000808873ffffffffffffffffffffffffffffffffffffffff1673ffffffffffffffffffffffffffffffffffffffff16815260200190815260200160002082815481106114855761148461377f565b5b906000526020600020906005020160010160009054906101000a900473ffffffffffffffffffffffffffffffffffffffff169080600181540180825580915050600190039060005260206000200160009091909190916101000a81548173ffffffffffffffffffffffffffffffffffffffff021916908373ffffffffffffffffffffffffffffffffffffffff1602179055505b6000808773ffffffffffffffffffffffffffffffffffffffff1673ffffffffffffffffffffffffffffffffffffffff16815260200190815260200160002081815481106115685761156761377f565b5b9060005260206000209060050201600080820160006101000a81549073ffffffffffffffffffffffffffffffffffffffff02191690556001820160006101000a81549073ffffffffffffffffffffffffffffffffffffffff02191690556002820160006115d59190612b91565b6003820160006115e59190612b91565b6004820160006101000a81549060ff021916905550505b8080611607906137dd565b91505061134d565b5060005b600480549050811015611a62576000600160006004848154811061163a5761163961377f565b5b9060005260206000200160009054906101000a900473ffffffffffffffffffffffffffffffffffffffff1673ffffffffffffffffffffffffffffffffffffffff1673ffffffffffffffffffffffffffffffffffffffff168152602001908152602001600020805480602002602001604051908101604052809291908181526020016000905b828210156118dc57838290600052602060002090600502016040518060a00160405290816000820160009054906101000a900473ffffffffffffffffffffffffffffffffffffffff1673ffffffffffffffffffffffffffffffffffffffff1673ffffffffffffffffffffffffffffffffffffffff1681526020016001820160009054906101000a900473ffffffffffffffffffffffffffffffffffffffff1673ffffffffffffffffffffffffffffffffffffffff1673ffffffffffffffffffffffffffffffffffffffff16815260200160028201805461179e9061374e565b80601f01602080910402602001604051908101604052809291908181526020018280546117ca9061374e565b80156118175780601f106117ec57610100808354040283529160200191611817565b820191906000526020600020905b8154815290600101906020018083116117fa57829003601f168201915b505050505081526020016003820180546118309061374e565b80601f016020809104026020016040519081016040528092919081815260200182805461185c9061374e565b80156118a95780601f1061187e576101008083540402835291602001916118a9565b820191906000526020600020905b81548152906001019060200180831161188c57829003601f168201915b505050505081526020016004820160009054906101000a900460ff161515151581525050815260200190600101906116bf565b50505050905060005b8151811015611a4d576119128282815181106119045761190361377f565b5b602002602001015188612a41565b15611a3a57600160006004858154811061192f5761192e61377f565b5b9060005260206000200160009054906101000a900473ffffffffffffffffffffffffffffffffffffffff1673ffffffffffffffffffffffffffffffffffffffff1673ffffffffffffffffffffffffffffffffffffffff16815260200190815260200160002081815481106119a6576119a561377f565b5b9060005260206000209060050201600080820160006101000a81549073ffffffffffffffffffffffffffffffffffffffff02191690556001820160006101000a81549073ffffffffffffffffffffffffffffffffffffffff0219169055600282016000611a139190612b91565b600382016000611a239190612b91565b6004820160006101000a81549060ff021916905550505b8080611a45906137dd565b9150506118e5565b50508080611a5a906137dd565b915050611613565b505050505050565b60006020528160005260406000208181548110611a8657600080fd5b9060005260206000209060050201600091509150508060000160009054906101000a900473ffffffffffffffffffffffffffffffffffffffff16908060010160009054906101000a900473ffffffffffffffffffffffffffffffffffffffff1690806002018054611af69061374e565b80601f0160208091040260200160405190810160405280929190818152602001828054611b229061374e565b8015611b6f5780601f10611b4457610100808354040283529160200191611b6f565b820191906000526020600020905b815481529060010190602001808311611b5257829003601f168201915b505050505090806003018054611b849061374e565b80601f0160208091040260200160405190810160405280929190818152602001828054611bb09061374e565b8015611bfd5780601f10611bd257610100808354040283529160200191611bfd565b820191906000526020600020905b815481529060010190602001808311611be057829003601f168201915b5050505050908060040160009054906101000a900460ff16905085565b611c22612bd1565b33816020019073ffffffffffffffffffffffffffffffffffffffff16908173ffffffffffffffffffffffffffffffffffffffff168152505083816000018190525082816060018190525081816040019073ffffffffffffffffffffffffffffffffffffffff16908173ffffffffffffffffffffffffffffffffffffffff1681525050600260003373ffffffffffffffffffffffffffffffffffffffff1673ffffffffffffffffffffffffffffffffffffffff1681526020019081526020016000208190806001815401808255809150506001900390600052602060002090600402016000909190919091506000820151816000019080519060200190611d29929190612c25565b5060208201518160010160006101000a81548173ffffffffffffffffffffffffffffffffffffffff021916908373ffffffffffffffffffffffffffffffffffffffff16021790555060408201518160020160006101000a81548173ffffffffffffffffffffffffffffffffffffffff021916908373ffffffffffffffffffffffffffffffffffffffff1602179055506060820151816003019080519060200190611dd4929190612c25565b505050600360008373ffffffffffffffffffffffffffffffffffffffff1673ffffffffffffffffffffffffffffffffffffffff1681526020019081526020016000208190806001815401808255809150506001900390600052602060002090600402016000909190919091506000820151816000019080519060200190611e5c929190612c25565b5060208201518160010160006101000a81548173ffffffffffffffffffffffffffffffffffffffff021916908373ffffffffffffffffffffffffffffffffffffffff16021790555060408201518160020160006101000a81548173ffffffffffffffffffffffffffffffffffffffff021916908373ffffffffffffffffffffffffffffffffffffffff1602179055506060820151816003019080519060200190611f07929190612c25565b50505050505050565b60026020528160005260406000208181548110611f2c57600080fd5b906000526020600020906004020160009150915050806000018054611f509061374e565b80601f0160208091040260200160405190810160405280929190818152602001828054611f7c9061374e565b8015611fc95780601f10611f9e57610100808354040283529160200191611fc9565b820191906000526020600020905b815481529060010190602001808311611fac57829003601f168201915b5050505050908060010160009054906101000a900473ffffffffffffffffffffffffffffffffffffffff16908060020160009054906101000a900473ffffffffffffffffffffffffffffffffffffffff169080600301805461202a9061374e565b80601f01602080910402602001604051908101604052809291908181526020018280546120569061374e565b80156120a35780601f10612078576101008083540402835291602001916120a3565b820191906000526020600020905b81548152906001019060200180831161208657829003601f168201915b5050505050905084565b600160205281600052604060002081815481106120c957600080fd5b9060005260206000209060050201600091509150508060000160009054906101000a900473ffffffffffffffffffffffffffffffffffffffff16908060010160009054906101000a900473ffffffffffffffffffffffffffffffffffffffff16908060020180546121399061374e565b80601f01602080910402602001604051908101604052809291908181526020018280546121659061374e565b80156121b25780601f10612187576101008083540402835291602001916121b2565b820191906000526020600020905b81548152906001019060200180831161219557829003601f168201915b5050505050908060030180546121c79061374e565b80601f01602080910402602001604051908101604052809291908181526020018280546121f39061374e565b80156122405780601f1061221557610100808354040283529160200191612240565b820191906000526020600020905b81548152906001019060200180831161222357829003601f168201915b5050505050908060040160009054906101000a900460ff16905085565b6060600160003373ffffffffffffffffffffffffffffffffffffffff1673ffffffffffffffffffffffffffffffffffffffff168152602001908152602001600020805480602002602001604051908101604052809291908181526020016000905b828210156124db57838290600052602060002090600502016040518060a00160405290816000820160009054906101000a900473ffffffffffffffffffffffffffffffffffffffff1673ffffffffffffffffffffffffffffffffffffffff1673ffffffffffffffffffffffffffffffffffffffff1681526020016001820160009054906101000a900473ffffffffffffffffffffffffffffffffffffffff1673ffffffffffffffffffffffffffffffffffffffff1673ffffffffffffffffffffffffffffffffffffffff16815260200160028201805461239d9061374e565b80601f01602080910402602001604051908101604052809291908181526020018280546123c99061374e565b80156124165780601f106123eb57610100808354040283529160200191612416565b820191906000526020600020905b8154815290600101906020018083116123f957829003601f168201915b5050505050815260200160038201805461242f9061374e565b80601f016020809104026020016040519081016040528092919081815260200182805461245b9061374e565b80156124a85780601f1061247d576101008083540402835291602001916124a8565b820191906000526020600020905b81548152906001019060200180831161248b57829003601f168201915b505050505081526020016004820160009054906101000a900460ff161515151581525050815260200190600101906122be565b50505050905090565b6060600360003373ffffffffffffffffffffffffffffffffffffffff1673ffffffffffffffffffffffffffffffffffffffff168152602001908152602001600020805480602002602001604051908101604052809291908181526020016000905b8282101561274757838290600052602060002090600402016040518060800160405290816000820180546125789061374e565b80601f01602080910402602001604051908101604052809291908181526020018280546125a49061374e565b80156125f15780601f106125c6576101008083540402835291602001916125f1565b820191906000526020600020905b8154815290600101906020018083116125d457829003601f168201915b505050505081526020016001820160009054906101000a900473ffffffffffffffffffffffffffffffffffffffff1673ffffffffffffffffffffffffffffffffffffffff1673ffffffffffffffffffffffffffffffffffffffff1681526020016002820160009054906101000a900473ffffffffffffffffffffffffffffffffffffffff1673ffffffffffffffffffffffffffffffffffffffff1673ffffffffffffffffffffffffffffffffffffffff1681526020016003820180546126b69061374e565b80601f01602080910402602001604051908101604052809291908181526020018280546126e29061374e565b801561272f5780601f106127045761010080835404028352916020019161272f565b820191906000526020600020905b81548152906001019060200180831161271257829003601f168201915b50505050508152505081526020019060010190612545565b50505050905090565b6060600260003373ffffffffffffffffffffffffffffffffffffffff1673ffffffffffffffffffffffffffffffffffffffff168152602001908152602001600020805480602002602001604051908101604052809291908181526020016000905b828210156129b357838290600052602060002090600402016040518060800160405290816000820180546127e49061374e565b80601f01602080910402602001604051908101604052809291908181526020018280546128109061374e565b801561285d5780601f106128325761010080835404028352916020019161285d565b820191906000526020600020905b81548152906001019060200180831161284057829003601f168201915b505050505081526020016001820160009054906101000a900473ffffffffffffffffffffffffffffffffffffffff1673ffffffffffffffffffffffffffffffffffffffff1673ffffffffffffffffffffffffffffffffffffffff1681526020016002820160009054906101000a900473ffffffffffffffffffffffffffffffffffffffff1673ffffffffffffffffffffffffffffffffffffffff1673ffffffffffffffffffffffffffffffffffffffff1681526020016003820180546129229061374e565b80601f016020809104026020016040519081016040528092919081815260200182805461294e9061374e565b801561299b5780601f106129705761010080835404028352916020019161299b565b820191906000526020600020905b81548152906001019060200180831161297e57829003601f168201915b505050505081525050815260200190600101906127b1565b50505050905090565b600081604001518260600151836000015184602001516040516020016129e594939291906138b5565b604051602081830303815290604052805190602001208360400151846060015185600001518660200151604051602001612a2294939291906138b5565b6040516020818303038152906040528051906020012014905092915050565b600081604001518260600151604051602001612a5e9291906138fb565b6040516020818303038152906040528051906020012083604001518460600151604051602001612a8f9291906138fb565b6040516020818303038152906040528051906020012014905092915050565b6040518060a00160405280600073ffffffffffffffffffffffffffffffffffffffff168152602001600073ffffffffffffffffffffffffffffffffffffffff16815260200160608152602001606081526020016000151581525090565b828054612b179061374e565b90600052602060002090601f016020900481019282612b395760008555612b80565b82601f10612b5257805160ff1916838001178555612b80565b82800160010185558215612b80579182015b82811115612b7f578251825591602001919060010190612b64565b5b509050612b8d9190612cab565b5090565b508054612b9d9061374e565b6000825580601f10612baf5750612bce565b601f016020900490600052602060002090810190612bcd9190612cab565b5b50565b604051806080016040528060608152602001600073ffffffffffffffffffffffffffffffffffffffff168152602001600073ffffffffffffffffffffffffffffffffffffffff168152602001606081525090565b828054612c319061374e565b90600052602060002090601f016020900481019282612c535760008555612c9a565b82601f10612c6c57805160ff1916838001178555612c9a565b82800160010185558215612c9a579182015b82811115612c99578251825591602001919060010190612c7e565b5b509050612ca79190612cab565b5090565b5b80821115612cc4576000816000905550600101612cac565b5090565b6000604051905090565b600080fd5b600080fd5b600073ffffffffffffffffffffffffffffffffffffffff82169050919050565b6000612d0782612cdc565b9050919050565b612d1781612cfc565b8114612d2257600080fd5b50565b600081359050612d3481612d0e565b92915050565b600080fd5b600080fd5b6000601f19601f8301169050919050565b7f4e487b7100000000000000000000000000000000000000000000000000000000600052604160045260246000fd5b612d8d82612d44565b810181811067ffffffffffffffff82111715612dac57612dab612d55565b5b80604052505050565b6000612dbf612cc8565b9050612dcb8282612d84565b919050565b600067ffffffffffffffff821115612deb57612dea612d55565b5b612df482612d44565b9050602081019050919050565b82818337600083830152505050565b6000612e23612e1e84612dd0565b612db5565b905082815260208101848484011115612e3f57612e3e612d3f565b5b612e4a848285612e01565b509392505050565b600082601f830112612e6757612e66612d3a565b5b8135612e77848260208601612e10565b91505092915050565b600080600060608486031215612e9957612e98612cd2565b5b6000612ea786828701612d25565b935050602084013567ffffffffffffffff811115612ec857612ec7612cd7565b5b612ed486828701612e52565b925050604084013567ffffffffffffffff811115612ef557612ef4612cd7565b5b612f0186828701612e52565b9150509250925092565b600081519050919050565b600082825260208201905092915050565b6000819050602082019050919050565b612f4081612cfc565b82525050565b600081519050919050565b600082825260208201905092915050565b60005b83811015612f80578082015181840152602081019050612f65565b83811115612f8f576000848401525b50505050565b6000612fa082612f46565b612faa8185612f51565b9350612fba818560208601612f62565b612fc381612d44565b840191505092915050565b60008115159050919050565b612fe381612fce565b82525050565b600060a0830160008301516130016000860182612f37565b5060208301516130146020860182612f37565b506040830151848203604086015261302c8282612f95565b915050606083015184820360608601526130468282612f95565b915050608083015161305b6080860182612fda565b508091505092915050565b60006130728383612fe9565b905092915050565b6000602082019050919050565b600061309282612f0b565b61309c8185612f16565b9350836020820285016130ae85612f27565b8060005b858110156130ea57848403895281516130cb8582613066565b94506130d68361307a565b925060208a019950506001810190506130b2565b50829750879550505050505092915050565b600060208201905081810360008301526131168184613087565b905092915050565b6000819050919050565b6131318161311e565b811461313c57600080fd5b50565b60008135905061314e81613128565b92915050565b6000806040838503121561316b5761316a612cd2565b5b600061317985828601612d25565b925050602061318a8582860161313f565b9150509250929050565b600081519050919050565b600082825260208201905092915050565b60006131bb82613194565b6131c5818561319f565b93506131d5818560208601612f62565b6131de81612d44565b840191505092915050565b6131f281612cfc565b82525050565b6000608082019050818103600083015261321281876131b0565b905061322160208301866131e9565b61322e60408301856131e9565b818103606083015261324081846131b0565b905095945050505050565b600080fd5b600080fd5b61325e81612fce565b811461326957600080fd5b50565b60008135905061327b81613255565b92915050565b600060a082840312156132975761329661324b565b5b6132a160a0612db5565b905060006132b184828501612d25565b60008301525060206132c584828501612d25565b602083015250604082013567ffffffffffffffff8111156132e9576132e8613250565b5b6132f584828501612e52565b604083015250606082013567ffffffffffffffff81111561331957613318613250565b5b61332584828501612e52565b60608301525060806133398482850161326c565b60808301525092915050565b6000806040838503121561335c5761335b612cd2565b5b600061336a85828601612d25565b925050602083013567ffffffffffffffff81111561338b5761338a612cd7565b5b61339785828601613281565b9150509250929050565b600082825260208201905092915050565b60006133bd82612f46565b6133c781856133a1565b93506133d7818560208601612f62565b6133e081612d44565b840191505092915050565b6133f481612fce565b82525050565b600060a08201905061340f60008301886131e9565b61341c60208301876131e9565b818103604083015261342e81866133b2565b9050818103606083015261344281856133b2565b905061345160808301846133eb565b9695505050505050565b600067ffffffffffffffff82111561347657613475612d55565b5b61347f82612d44565b9050602081019050919050565b600061349f61349a8461345b565b612db5565b9050828152602081018484840111156134bb576134ba612d3f565b5b6134c6848285612e01565b509392505050565b600082601f8301126134e3576134e2612d3a565b5b81356134f384826020860161348c565b91505092915050565b60008060006060848603121561351557613514612cd2565b5b600084013567ffffffffffffffff81111561353357613532612cd7565b5b61353f868287016134ce565b935050602084013567ffffffffffffffff8111156135605761355f612cd7565b5b61356c868287016134ce565b925050604061357d86828701612d25565b9150509250925092565b600081519050919050565b600082825260208201905092915050565b6000819050602082019050919050565b600082825260208201905092915050565b60006135cf82613194565b6135d981856135b3565b93506135e9818560208601612f62565b6135f281612d44565b840191505092915050565b6000608083016000830151848203600086015261361a82826135c4565b915050602083015161362f6020860182612f37565b5060408301516136426040860182612f37565b506060830151848203606086015261365a82826135c4565b9150508091505092915050565b600061367383836135fd565b905092915050565b6000602082019050919050565b600061369382613587565b61369d8185613592565b9350836020820285016136af856135a3565b8060005b858110156136eb57848403895281516136cc8582613667565b94506136d78361367b565b925060208a019950506001810190506136b3565b50829750879550505050505092915050565b600060208201905081810360008301526137178184613688565b905092915050565b7f4e487b7100000000000000000000000000000000000000000000000000000000600052602260045260246000fd5b6000600282049050600182168061376657607f821691505b6020821081036137795761377861371f565b5b50919050565b7f4e487b7100000000000000000000000000000000000000000000000000000000600052603260045260246000fd5b7f4e487b7100000000000000000000000000000000000000000000000000000000600052601160045260246000fd5b60006137e88261311e565b91507fffffffffffffffffffffffffffffffffffffffffffffffffffffffffffffffff820361381a576138196137ae565b5b600182019050919050565b600081905092915050565b600061383b82612f46565b6138458185613825565b9350613855818560208601612f62565b80840191505092915050565b60006c0100000000000000000000000082029050919050565b600061388582613861565b9050919050565b60006138978261387a565b9050919050565b6138af6138aa82612cfc565b61388c565b82525050565b60006138c18287613830565b91506138cd8286613830565b91506138d9828561389e565b6014820191506138e9828461389e565b60148201915081905095945050505050565b60006139078285613830565b91506139138284613830565b9150819050939250505056fea2646970667358221220cef0f104b6c073adfe67519388945b1a259665a14c493cf32af873d579ecd52064736f6c634300080d0033",
  "immutableReferences": {},
  "source": "// SPDX-License-Identifier: MIT\npragma solidity >=0.8.1;\npragma abicoder v2;\n\ncontract Decaf {\n    struct Document {\n        address from;\n        address to;\n        string fileName;\n        string ipfsHash;\n        bool access;\n    }\n\n    struct DocumentSigned {\n        bytes signature;\n        address signer;\n        address receiver;\n        bytes mssgHash;\n    }\n\n    mapping(address => Document[]) public documentsIssued;\n    mapping(address => Document[]) public documentsReceived;\n\n    mapping(address => DocumentSigned[]) public documentsSigned;\n    mapping(address => DocumentSigned[]) public documentsSignedReceived;\n\n    address[] userIssuedTo;\n\n    function issueDocument(\n        address to,\n        string memory fileName,\n        string memory ipfsHash\n    ) public {\n        Document memory document;\n        document.from = msg.sender;\n        document.to = to;\n        document.fileName = fileName;\n        document.ipfsHash = ipfsHash;\n        document.access = true;\n        documentsIssued[msg.sender].push(document);\n        documentsReceived[to].push(document);\n    }\n\n    function signDocument(\n        bytes memory signature,\n        bytes memory mssgHash,\n        address receiver\n    ) public {\n        DocumentSigned memory document;\n        document.signer = msg.sender;\n        document.signature = signature;\n        document.mssgHash = mssgHash;\n        document.receiver = receiver;\n        documentsSigned[msg.sender].push(document);\n        documentsSignedReceived[receiver].push(document);\n    }\n\n    function getDocumentsIssued() public view returns (Document[] memory) {\n        return documentsIssued[msg.sender];\n    }\n\n    function getDocumentsReceived() public view returns (Document[] memory) {\n        return documentsReceived[msg.sender];\n    }\n\n    function revokeDocument(address user, Document memory doc) public {\n        Document[] memory ownerDocs = documentsIssued[msg.sender];\n        Document[] memory receivedDocs = documentsReceived[user];\n        Document[] memory issuedDocs = documentsIssued[user];\n\n        for (uint256 i = 0; i < ownerDocs.length; i++) {\n            if (equalsOwner(ownerDocs[i], doc)) {\n                documentsIssued[msg.sender][i].access = false;\n            }\n        }\n\n        for (uint256 i = 0; i < receivedDocs.length; i++) {\n            if (equals(receivedDocs[i], doc)) {\n                delete documentsReceived[user][i];\n            }\n        }\n\n        for (uint256 i = 0; i < issuedDocs.length; i++) {\n            if (equals(issuedDocs[i], doc)) {\n                if (documentsIssued[user][i].to != msg.sender) {\n                    userIssuedTo.push(documentsIssued[user][i].to);\n                }\n                delete documentsIssued[user][i];\n            }\n        }\n\n        for (uint256 j = 0; j < userIssuedTo.length; j++) {\n            Document[] memory userIssuedToDocs = documentsReceived[\n                userIssuedTo[j]\n            ];\n            for (uint256 i = 0; i < userIssuedToDocs.length; i++) {\n                if (equals(userIssuedToDocs[i], doc)) {\n                    delete documentsReceived[userIssuedTo[j]][i];\n                }\n            }\n        }\n    }\n\n    function equals(Document memory _first, Document memory _second)\n        internal\n        view\n        returns (bool)\n    {\n        // Just compare the output of hashing all fields packed\n        return (keccak256(abi.encodePacked(_first.fileName, _first.ipfsHash)) ==\n            keccak256(abi.encodePacked(_second.fileName, _second.ipfsHash)));\n    }\n\n    function equalsOwner(Document memory _first, Document memory _second)\n        internal\n        view\n        returns (bool)\n    {\n        // Just compare the output of hashing all fields packed\n        return (keccak256(\n            abi.encodePacked(\n                _first.fileName,\n                _first.ipfsHash,\n                _first.from,\n                _first.to\n            )\n        ) ==\n            keccak256(\n                abi.encodePacked(\n                    _second.fileName,\n                    _second.ipfsHash,\n                    _second.from,\n                    _second.to\n                )\n            ));\n    }\n\n    function getDocumentsSigned()\n        public\n        view\n        returns (DocumentSigned[] memory)\n    {\n        return documentsSigned[msg.sender];\n    }\n\n    function getDocumentsSignedReceived()\n        public\n        view\n        returns (DocumentSigned[] memory)\n    {\n        return documentsSignedReceived[msg.sender];\n    }\n}\n\n//0x5B38Da6a701c568545dCfcB03FcB875f56beddC4\n\n//0xAb8483F64d9C6d1EcF9b849Ae677dD3315835cb2\n\n//0x4B20993Bc481177ec7E8f571ceCaE8A9e22C02db\n\n//0x78731D3Ca6b7E34aC0F824c42a7cC18A495cabaB\n",
  "sourcePath": "/Users/shreyasmore/Desktop/Final_Project/DECAF/DECAF-React/contracts/Decaf.sol",
  "compiler": {
    "name": "solc",
    "version": "0.8.13+commit.abaa5c0e.Emscripten.clang"
  },
  "schemaVersion": "3.4.4",
  "updatedAt": "2022-04-28T10:05:45.379Z",
  "networkType": "ethereum",
  "devdoc": {
    "kind": "dev",
    "methods": {},
    "version": 1
  },
  "userdoc": {
    "kind": "user",
    "methods": {},
    "version": 1
  }
}