{
  "contractName": "Decaf",
  "abi": [
    {
      "inputs": [
        {
          "internalType": "string",
          "name": "",
          "type": "string"
        },
        {
          "internalType": "uint256",
          "name": "",
          "type": "uint256"
        }
      ],
      "name": "documentDirectory",
      "outputs": [
        {
          "internalType": "address",
          "name": "from",
          "type": "address"
        },
        {
          "internalType": "address",
          "name": "to",
          "type": "address"
        },
        {
          "internalType": "string",
          "name": "fileName",
          "type": "string"
        },
        {
          "internalType": "string",
          "name": "ipfsHash",
          "type": "string"
        },
        {
          "internalType": "bool",
          "name": "access",
          "type": "bool"
        }
      ],
      "stateMutability": "view",
      "type": "function",
      "constant": true
    },
    {
      "inputs": [
        {
          "internalType": "string",
          "name": "",
          "type": "string"
        }
      ],
      "name": "documentVersionMasterLink",
      "outputs": [
        {
          "internalType": "string",
          "name": "",
          "type": "string"
        }
      ],
      "stateMutability": "view",
      "type": "function",
      "constant": true
    },
    {
      "inputs": [
        {
          "internalType": "address",
          "name": "",
          "type": "address"
        },
        {
          "internalType": "uint256",
          "name": "",
          "type": "uint256"
        }
      ],
      "name": "documentsIssued",
      "outputs": [
        {
          "internalType": "address",
          "name": "from",
          "type": "address"
        },
        {
          "internalType": "address",
          "name": "to",
          "type": "address"
        },
        {
          "internalType": "string",
          "name": "fileName",
          "type": "string"
        },
        {
          "internalType": "string",
          "name": "ipfsHash",
          "type": "string"
        },
        {
          "internalType": "bool",
          "name": "access",
          "type": "bool"
        }
      ],
      "stateMutability": "view",
      "type": "function",
      "constant": true
    },
    {
      "inputs": [
        {
          "internalType": "address",
          "name": "",
          "type": "address"
        },
        {
          "internalType": "uint256",
          "name": "",
          "type": "uint256"
        }
      ],
      "name": "documentsReceived",
      "outputs": [
        {
          "internalType": "address",
          "name": "from",
          "type": "address"
        },
        {
          "internalType": "address",
          "name": "to",
          "type": "address"
        },
        {
          "internalType": "string",
          "name": "fileName",
          "type": "string"
        },
        {
          "internalType": "string",
          "name": "ipfsHash",
          "type": "string"
        },
        {
          "internalType": "bool",
          "name": "access",
          "type": "bool"
        }
      ],
      "stateMutability": "view",
      "type": "function",
      "constant": true
    },
    {
      "inputs": [
        {
          "internalType": "address",
          "name": "",
          "type": "address"
        },
        {
          "internalType": "uint256",
          "name": "",
          "type": "uint256"
        }
      ],
      "name": "documentsSigned",
      "outputs": [
        {
          "internalType": "bytes",
          "name": "signature",
          "type": "bytes"
        },
        {
          "internalType": "address",
          "name": "signer",
          "type": "address"
        },
        {
          "internalType": "address",
          "name": "receiver",
          "type": "address"
        },
        {
          "internalType": "bytes",
          "name": "mssgHash",
          "type": "bytes"
        }
      ],
      "stateMutability": "view",
      "type": "function",
      "constant": true
    },
    {
      "inputs": [
        {
          "internalType": "address",
          "name": "",
          "type": "address"
        },
        {
          "internalType": "uint256",
          "name": "",
          "type": "uint256"
        }
      ],
      "name": "documentsSignedReceived",
      "outputs": [
        {
          "internalType": "bytes",
          "name": "signature",
          "type": "bytes"
        },
        {
          "internalType": "address",
          "name": "signer",
          "type": "address"
        },
        {
          "internalType": "address",
          "name": "receiver",
          "type": "address"
        },
        {
          "internalType": "bytes",
          "name": "mssgHash",
          "type": "bytes"
        }
      ],
      "stateMutability": "view",
      "type": "function",
      "constant": true
    },
    {
      "inputs": [
        {
          "internalType": "string",
          "name": "ipfsHash",
          "type": "string"
        }
      ],
      "name": "DocHash",
      "outputs": [
        {
          "internalType": "bytes32",
          "name": "",
          "type": "bytes32"
        }
      ],
      "stateMutability": "pure",
      "type": "function",
      "constant": true
    },
    {
      "inputs": [
        {
          "internalType": "address",
          "name": "to",
          "type": "address"
        },
        {
          "internalType": "string",
          "name": "fileName",
          "type": "string"
        },
        {
          "internalType": "string",
          "name": "ipfsHash",
          "type": "string"
        }
      ],
      "name": "issueDocument",
      "outputs": [],
      "stateMutability": "nonpayable",
      "type": "function"
    },
    {
      "inputs": [
        {
          "internalType": "string",
          "name": "fileName",
          "type": "string"
        },
        {
          "internalType": "string",
          "name": "ipfsHashMaster",
          "type": "string"
        },
        {
          "internalType": "string",
          "name": "ipfsHash",
          "type": "string"
        },
        {
          "internalType": "address",
          "name": "to",
          "type": "address"
        }
      ],
      "name": "issueDocumentVersion",
      "outputs": [],
      "stateMutability": "nonpayable",
      "type": "function"
    },
    {
      "inputs": [
        {
          "internalType": "bytes",
          "name": "signature",
          "type": "bytes"
        },
        {
          "internalType": "bytes",
          "name": "mssgHash",
          "type": "bytes"
        },
        {
          "internalType": "address",
          "name": "receiver",
          "type": "address"
        }
      ],
      "name": "signDocument",
      "outputs": [],
      "stateMutability": "nonpayable",
      "type": "function"
    },
    {
      "inputs": [],
      "name": "getDocumentsIssued",
      "outputs": [
        {
          "components": [
            {
              "internalType": "address",
              "name": "from",
              "type": "address"
            },
            {
              "internalType": "address",
              "name": "to",
              "type": "address"
            },
            {
              "internalType": "string",
              "name": "fileName",
              "type": "string"
            },
            {
              "internalType": "string",
              "name": "ipfsHash",
              "type": "string"
            },
            {
              "internalType": "bool",
              "name": "access",
              "type": "bool"
            }
          ],
          "internalType": "struct Decaf.Document[]",
          "name": "",
          "type": "tuple[]"
        }
      ],
      "stateMutability": "view",
      "type": "function",
      "constant": true
    },
    {
      "inputs": [
        {
          "internalType": "string",
          "name": "ipfsHash",
          "type": "string"
        }
      ],
      "name": "getDocumentVersionsIssued",
      "outputs": [
        {
          "components": [
            {
              "internalType": "address",
              "name": "from",
              "type": "address"
            },
            {
              "internalType": "address",
              "name": "to",
              "type": "address"
            },
            {
              "internalType": "string",
              "name": "fileName",
              "type": "string"
            },
            {
              "internalType": "string",
              "name": "ipfsHash",
              "type": "string"
            },
            {
              "internalType": "bool",
              "name": "access",
              "type": "bool"
            }
          ],
          "internalType": "struct Decaf.Document[]",
          "name": "",
          "type": "tuple[]"
        }
      ],
      "stateMutability": "view",
      "type": "function",
      "constant": true
    },
    {
      "inputs": [
        {
          "internalType": "string",
          "name": "ipfsHash",
          "type": "string"
        }
      ],
      "name": "getDocumentVersionLink",
      "outputs": [
        {
          "internalType": "string",
          "name": "",
          "type": "string"
        }
      ],
      "stateMutability": "view",
      "type": "function",
      "constant": true
    },
    {
      "inputs": [],
      "name": "getDocumentsReceived",
      "outputs": [
        {
          "components": [
            {
              "internalType": "address",
              "name": "from",
              "type": "address"
            },
            {
              "internalType": "address",
              "name": "to",
              "type": "address"
            },
            {
              "internalType": "string",
              "name": "fileName",
              "type": "string"
            },
            {
              "internalType": "string",
              "name": "ipfsHash",
              "type": "string"
            },
            {
              "internalType": "bool",
              "name": "access",
              "type": "bool"
            }
          ],
          "internalType": "struct Decaf.Document[]",
          "name": "",
          "type": "tuple[]"
        }
      ],
      "stateMutability": "view",
      "type": "function",
      "constant": true
    },
    {
      "inputs": [
        {
          "internalType": "address",
          "name": "user",
          "type": "address"
        },
        {
          "components": [
            {
              "internalType": "address",
              "name": "from",
              "type": "address"
            },
            {
              "internalType": "address",
              "name": "to",
              "type": "address"
            },
            {
              "internalType": "string",
              "name": "fileName",
              "type": "string"
            },
            {
              "internalType": "string",
              "name": "ipfsHash",
              "type": "string"
            },
            {
              "internalType": "bool",
              "name": "access",
              "type": "bool"
            }
          ],
          "internalType": "struct Decaf.Document",
          "name": "doc",
          "type": "tuple"
        }
      ],
      "name": "revokeDocument",
      "outputs": [],
      "stateMutability": "nonpayable",
      "type": "function"
    },
    {
      "inputs": [],
      "name": "getDocumentsSigned",
      "outputs": [
        {
          "components": [
            {
              "internalType": "bytes",
              "name": "signature",
              "type": "bytes"
            },
            {
              "internalType": "address",
              "name": "signer",
              "type": "address"
            },
            {
              "internalType": "address",
              "name": "receiver",
              "type": "address"
            },
            {
              "internalType": "bytes",
              "name": "mssgHash",
              "type": "bytes"
            }
          ],
          "internalType": "struct Decaf.DocumentSigned[]",
          "name": "",
          "type": "tuple[]"
        }
      ],
      "stateMutability": "view",
      "type": "function",
      "constant": true
    },
    {
      "inputs": [],
      "name": "getDocumentsSignedReceived",
      "outputs": [
        {
          "components": [
            {
              "internalType": "bytes",
              "name": "signature",
              "type": "bytes"
            },
            {
              "internalType": "address",
              "name": "signer",
              "type": "address"
            },
            {
              "internalType": "address",
              "name": "receiver",
              "type": "address"
            },
            {
              "internalType": "bytes",
              "name": "mssgHash",
              "type": "bytes"
            }
          ],
          "internalType": "struct Decaf.DocumentSigned[]",
          "name": "",
          "type": "tuple[]"
        }
      ],
      "stateMutability": "view",
      "type": "function",
      "constant": true
    }
  ],
  "bytecode": "0x608060405234801561001057600080fd5b506145b2806100206000396000f3fe608060405234801561001057600080fd5b5060043610610128576000357c0100000000000000000000000000000000000000000000000000000000900480637834707d116100bf578063ac0113701161008e578063ac0113701461032d578063ac29683414610361578063e11609c61461037f578063e396eb0e1461039d578063e6ed799f146103b957610128565b80637834707d1461027a5780638768e788146102ae57806399fe9d21146102de5780639dafb60a146102fa57610128565b80634a94f0ad116100fb5780634a94f0ad146101c7578063603128e3146101fa578063613531c8146102165780636aa091131461024657610128565b80630de35f551461012d57806336168e991461014957806343bdc07e1461017957806349703faf14610197575b600080fd5b61014760048036038101906101429190613910565b6103d7565b005b610163600480360381019061015e919061399b565b610881565b6040516101709190613a6c565b60405180910390f35b610181610937565b60405161018e9190613c41565b60405180910390f35b6101b160048036038101906101ac919061399b565b610bbd565b6040516101be9190613a6c565b60405180910390f35b6101e160048036038101906101dc9190613c99565b610c6d565b6040516101f19493929190613d3d565b60405180910390f35b610214600480360381019061020f9190613e8a565b610e0a565b005b610230600480360381019061022b919061399b565b611ea6565b60405161023d9190613eff565b60405180910390f35b610260600480360381019061025b9190613c99565b611ed6565b604051610271959493929190613f29565b60405180910390f35b610294600480360381019061028f9190613f8a565b612086565b6040516102a5959493929190613f29565b60405180910390f35b6102c860048036038101906102c3919061399b565b61224c565b6040516102d59190613c41565b60405180910390f35b6102f860048036038101906102f39190614087565b6124b4565b005b610314600480360381019061030f9190613c99565b6127aa565b6040516103249493929190613d3d565b60405180910390f35b61034760048036038101906103429190613c99565b612947565b604051610358959493929190613f29565b60405180910390f35b610369612af7565b6040516103769190613c41565b60405180910390f35b610387612d7e565b6040516103949190614288565b60405180910390f35b6103b760048036038101906103b291906142aa565b612fea565b005b6103c16131e0565b6040516103ce9190614288565b60405180910390f35b6103df61353e565b33816000019073ffffffffffffffffffffffffffffffffffffffff16908173ffffffffffffffffffffffffffffffffffffffff168152505083816020019073ffffffffffffffffffffffffffffffffffffffff16908173ffffffffffffffffffffffffffffffffffffffff168152505082816040018190525081816060018190525060018160800190151590811515815250506000803373ffffffffffffffffffffffffffffffffffffffff1673ffffffffffffffffffffffffffffffffffffffff16815260200190815260200160002081908060018154018082558091505060019003906000526020600020906005020160009091909190915060008201518160000160006101000a81548173ffffffffffffffffffffffffffffffffffffffff021916908373ffffffffffffffffffffffffffffffffffffffff16021790555060208201518160010160006101000a81548173ffffffffffffffffffffffffffffffffffffffff021916908373ffffffffffffffffffffffffffffffffffffffff160217905550604082015181600201908051906020019061058492919061359b565b5060608201518160030190805190602001906105a192919061359b565b5060808201518160040160006101000a81548160ff0219169083151502179055505050600160008573ffffffffffffffffffffffffffffffffffffffff1673ffffffffffffffffffffffffffffffffffffffff16815260200190815260200160002081908060018154018082558091505060019003906000526020600020906005020160009091909190915060008201518160000160006101000a81548173ffffffffffffffffffffffffffffffffffffffff021916908373ffffffffffffffffffffffffffffffffffffffff16021790555060208201518160010160006101000a81548173ffffffffffffffffffffffffffffffffffffffff021916908373ffffffffffffffffffffffffffffffffffffffff16021790555060408201518160020190805190602001906106d792919061359b565b5060608201518160030190805190602001906106f492919061359b565b5060808201518160040160006101000a81548160ff021916908315150217905550505060006002826060015160405161072d91906143a1565b9081526020016040518091039020805490500361087b576002816060015160405161075891906143a1565b908152602001604051809103902081908060018154018082558091505060019003906000526020600020906005020160009091909190915060008201518160000160006101000a81548173ffffffffffffffffffffffffffffffffffffffff021916908373ffffffffffffffffffffffffffffffffffffffff16021790555060208201518160010160006101000a81548173ffffffffffffffffffffffffffffffffffffffff021916908373ffffffffffffffffffffffffffffffffffffffff160217905550604082015181600201908051906020019061083a92919061359b565b50606082015181600301908051906020019061085792919061359b565b5060808201518160040160006101000a81548160ff02191690831515021790555050505b50505050565b60038180516020810182018051848252602083016020850120818352809550505050505060009150905080546108b6906143e7565b80601f01602080910402602001604051908101604052809291908181526020018280546108e2906143e7565b801561092f5780601f106109045761010080835404028352916020019161092f565b820191906000526020600020905b81548152906001019060200180831161091257829003601f168201915b505050505081565b60606000803373ffffffffffffffffffffffffffffffffffffffff1673ffffffffffffffffffffffffffffffffffffffff168152602001908152602001600020805480602002602001604051908101604052809291908181526020016000905b82821015610bb457838290600052602060002090600502016040518060a00160405290816000820160009054906101000a900473ffffffffffffffffffffffffffffffffffffffff1673ffffffffffffffffffffffffffffffffffffffff1673ffffffffffffffffffffffffffffffffffffffff1681526020016001820160009054906101000a900473ffffffffffffffffffffffffffffffffffffffff1673ffffffffffffffffffffffffffffffffffffffff1673ffffffffffffffffffffffffffffffffffffffff168152602001600282018054610a76906143e7565b80601f0160208091040260200160405190810160405280929190818152602001828054610aa2906143e7565b8015610aef5780601f10610ac457610100808354040283529160200191610aef565b820191906000526020600020905b815481529060010190602001808311610ad257829003601f168201915b50505050508152602001600382018054610b08906143e7565b80601f0160208091040260200160405190810160405280929190818152602001828054610b34906143e7565b8015610b815780601f10610b5657610100808354040283529160200191610b81565b820191906000526020600020905b815481529060010190602001808311610b6457829003601f168201915b505050505081526020016004820160009054906101000a900460ff16151515158152505081526020019060010190610997565b50505050905090565b6060600382604051610bcf91906143a1565b90815260200160405180910390208054610be8906143e7565b80601f0160208091040260200160405190810160405280929190818152602001828054610c14906143e7565b8015610c615780601f10610c3657610100808354040283529160200191610c61565b820191906000526020600020905b815481529060010190602001808311610c4457829003601f168201915b50505050509050919050565b60056020528160005260406000208181548110610c8957600080fd5b906000526020600020906004020160009150915050806000018054610cad906143e7565b80601f0160208091040260200160405190810160405280929190818152602001828054610cd9906143e7565b8015610d265780601f10610cfb57610100808354040283529160200191610d26565b820191906000526020600020905b815481529060010190602001808311610d0957829003601f168201915b5050505050908060010160009054906101000a900473ffffffffffffffffffffffffffffffffffffffff16908060020160009054906101000a900473ffffffffffffffffffffffffffffffffffffffff1690806003018054610d87906143e7565b80601f0160208091040260200160405190810160405280929190818152602001828054610db3906143e7565b8015610e005780601f10610dd557610100808354040283529160200191610e00565b820191906000526020600020905b815481529060010190602001808311610de357829003601f168201915b5050505050905084565b60008060003373ffffffffffffffffffffffffffffffffffffffff1673ffffffffffffffffffffffffffffffffffffffff168152602001908152602001600020805480602002602001604051908101604052809291908181526020016000905b8282101561108757838290600052602060002090600502016040518060a00160405290816000820160009054906101000a900473ffffffffffffffffffffffffffffffffffffffff1673ffffffffffffffffffffffffffffffffffffffff1673ffffffffffffffffffffffffffffffffffffffff1681526020016001820160009054906101000a900473ffffffffffffffffffffffffffffffffffffffff1673ffffffffffffffffffffffffffffffffffffffff1673ffffffffffffffffffffffffffffffffffffffff168152602001600282018054610f49906143e7565b80601f0160208091040260200160405190810160405280929190818152602001828054610f75906143e7565b8015610fc25780601f10610f9757610100808354040283529160200191610fc2565b820191906000526020600020905b815481529060010190602001808311610fa557829003601f168201915b50505050508152602001600382018054610fdb906143e7565b80601f0160208091040260200160405190810160405280929190818152602001828054611007906143e7565b80156110545780601f1061102957610100808354040283529160200191611054565b820191906000526020600020905b81548152906001019060200180831161103757829003601f168201915b505050505081526020016004820160009054906101000a900460ff16151515158152505081526020019060010190610e6a565b5050505090506000600160008573ffffffffffffffffffffffffffffffffffffffff1673ffffffffffffffffffffffffffffffffffffffff168152602001908152602001600020805480602002602001604051908101604052809291908181526020016000905b8282101561130b57838290600052602060002090600502016040518060a00160405290816000820160009054906101000a900473ffffffffffffffffffffffffffffffffffffffff1673ffffffffffffffffffffffffffffffffffffffff1673ffffffffffffffffffffffffffffffffffffffff1681526020016001820160009054906101000a900473ffffffffffffffffffffffffffffffffffffffff1673ffffffffffffffffffffffffffffffffffffffff1673ffffffffffffffffffffffffffffffffffffffff1681526020016002820180546111cd906143e7565b80601f01602080910402602001604051908101604052809291908181526020018280546111f9906143e7565b80156112465780601f1061121b57610100808354040283529160200191611246565b820191906000526020600020905b81548152906001019060200180831161122957829003601f168201915b5050505050815260200160038201805461125f906143e7565b80601f016020809104026020016040519081016040528092919081815260200182805461128b906143e7565b80156112d85780601f106112ad576101008083540402835291602001916112d8565b820191906000526020600020905b8154815290600101906020018083116112bb57829003601f168201915b505050505081526020016004820160009054906101000a900460ff161515151581525050815260200190600101906110ee565b50505050905060008060008673ffffffffffffffffffffffffffffffffffffffff1673ffffffffffffffffffffffffffffffffffffffff168152602001908152602001600020805480602002602001604051908101604052809291908181526020016000905b8282101561158e57838290600052602060002090600502016040518060a00160405290816000820160009054906101000a900473ffffffffffffffffffffffffffffffffffffffff1673ffffffffffffffffffffffffffffffffffffffff1673ffffffffffffffffffffffffffffffffffffffff1681526020016001820160009054906101000a900473ffffffffffffffffffffffffffffffffffffffff1673ffffffffffffffffffffffffffffffffffffffff1673ffffffffffffffffffffffffffffffffffffffff168152602001600282018054611450906143e7565b80601f016020809104026020016040519081016040528092919081815260200182805461147c906143e7565b80156114c95780601f1061149e576101008083540402835291602001916114c9565b820191906000526020600020905b8154815290600101906020018083116114ac57829003601f168201915b505050505081526020016003820180546114e2906143e7565b80601f016020809104026020016040519081016040528092919081815260200182805461150e906143e7565b801561155b5780601f106115305761010080835404028352916020019161155b565b820191906000526020600020905b81548152906001019060200180831161153e57829003601f168201915b505050505081526020016004820160009054906101000a900460ff16151515158152505081526020019060010190611371565b50505050905060005b8351811015611657576115c48482815181106115b6576115b5614418565b5b60200260200101518661344c565b156116445760008060003373ffffffffffffffffffffffffffffffffffffffff1673ffffffffffffffffffffffffffffffffffffffff168152602001908152602001600020828154811061161b5761161a614418565b5b906000526020600020906005020160040160006101000a81548160ff0219169083151502179055505b808061164f90614476565b915050611597565b5060005b82518110156117855761168883828151811061167a57611679614418565b5b6020026020010151866134d1565b1561177257600160008773ffffffffffffffffffffffffffffffffffffffff1673ffffffffffffffffffffffffffffffffffffffff16815260200190815260200160002081815481106116de576116dd614418565b5b9060005260206000209060050201600080820160006101000a81549073ffffffffffffffffffffffffffffffffffffffff02191690556001820160006101000a81549073ffffffffffffffffffffffffffffffffffffffff021916905560028201600061174b9190613621565b60038201600061175b9190613621565b6004820160006101000a81549060ff021916905550505b808061177d90614476565b91505061165b565b5060005b8151811015611a4b576117b68282815181106117a8576117a7614418565b5b6020026020010151866134d1565b15611a38573373ffffffffffffffffffffffffffffffffffffffff166000808873ffffffffffffffffffffffffffffffffffffffff1673ffffffffffffffffffffffffffffffffffffffff168152602001908152602001600020828154811061182257611821614418565b5b906000526020600020906005020160010160009054906101000a900473ffffffffffffffffffffffffffffffffffffffff1673ffffffffffffffffffffffffffffffffffffffff16146119545760066000808873ffffffffffffffffffffffffffffffffffffffff1673ffffffffffffffffffffffffffffffffffffffff16815260200190815260200160002082815481106118c1576118c0614418565b5b906000526020600020906005020160010160009054906101000a900473ffffffffffffffffffffffffffffffffffffffff169080600181540180825580915050600190039060005260206000200160009091909190916101000a81548173ffffffffffffffffffffffffffffffffffffffff021916908373ffffffffffffffffffffffffffffffffffffffff1602179055505b6000808773ffffffffffffffffffffffffffffffffffffffff1673ffffffffffffffffffffffffffffffffffffffff16815260200190815260200160002081815481106119a4576119a3614418565b5b9060005260206000209060050201600080820160006101000a81549073ffffffffffffffffffffffffffffffffffffffff02191690556001820160006101000a81549073ffffffffffffffffffffffffffffffffffffffff0219169055600282016000611a119190613621565b600382016000611a219190613621565b6004820160006101000a81549060ff021916905550505b8080611a4390614476565b915050611789565b5060005b600680549050811015611e9e5760006001600060068481548110611a7657611a75614418565b5b9060005260206000200160009054906101000a900473ffffffffffffffffffffffffffffffffffffffff1673ffffffffffffffffffffffffffffffffffffffff1673ffffffffffffffffffffffffffffffffffffffff168152602001908152602001600020805480602002602001604051908101604052809291908181526020016000905b82821015611d1857838290600052602060002090600502016040518060a00160405290816000820160009054906101000a900473ffffffffffffffffffffffffffffffffffffffff1673ffffffffffffffffffffffffffffffffffffffff1673ffffffffffffffffffffffffffffffffffffffff1681526020016001820160009054906101000a900473ffffffffffffffffffffffffffffffffffffffff1673ffffffffffffffffffffffffffffffffffffffff1673ffffffffffffffffffffffffffffffffffffffff168152602001600282018054611bda906143e7565b80601f0160208091040260200160405190810160405280929190818152602001828054611c06906143e7565b8015611c535780601f10611c2857610100808354040283529160200191611c53565b820191906000526020600020905b815481529060010190602001808311611c3657829003601f168201915b50505050508152602001600382018054611c6c906143e7565b80601f0160208091040260200160405190810160405280929190818152602001828054611c98906143e7565b8015611ce55780601f10611cba57610100808354040283529160200191611ce5565b820191906000526020600020905b815481529060010190602001808311611cc857829003601f168201915b505050505081526020016004820160009054906101000a900460ff16151515158152505081526020019060010190611afb565b50505050905060005b8151811015611e8957611d4e828281518110611d4057611d3f614418565b5b6020026020010151886134d1565b15611e76576001600060068581548110611d6b57611d6a614418565b5b9060005260206000200160009054906101000a900473ffffffffffffffffffffffffffffffffffffffff1673ffffffffffffffffffffffffffffffffffffffff1673ffffffffffffffffffffffffffffffffffffffff1681526020019081526020016000208181548110611de257611de1614418565b5b9060005260206000209060050201600080820160006101000a81549073ffffffffffffffffffffffffffffffffffffffff02191690556001820160006101000a81549073ffffffffffffffffffffffffffffffffffffffff0219169055600282016000611e4f9190613621565b600382016000611e5f9190613621565b6004820160006101000a81549060ff021916905550505b8080611e8190614476565b915050611d21565b50508080611e9690614476565b915050611a4f565b505050505050565b600081604051602001611eb99190613a6c565b604051602081830303815290604052805190602001209050919050565b60006020528160005260406000208181548110611ef257600080fd5b9060005260206000209060050201600091509150508060000160009054906101000a900473ffffffffffffffffffffffffffffffffffffffff16908060010160009054906101000a900473ffffffffffffffffffffffffffffffffffffffff1690806002018054611f62906143e7565b80601f0160208091040260200160405190810160405280929190818152602001828054611f8e906143e7565b8015611fdb5780601f10611fb057610100808354040283529160200191611fdb565b820191906000526020600020905b815481529060010190602001808311611fbe57829003601f168201915b505050505090806003018054611ff0906143e7565b80601f016020809104026020016040519081016040528092919081815260200182805461201c906143e7565b80156120695780601f1061203e57610100808354040283529160200191612069565b820191906000526020600020905b81548152906001019060200180831161204c57829003601f168201915b5050505050908060040160009054906101000a900460ff16905085565b60028280516020810182018051848252602083016020850120818352809550505050505081815481106120b857600080fd5b9060005260206000209060050201600091509150508060000160009054906101000a900473ffffffffffffffffffffffffffffffffffffffff16908060010160009054906101000a900473ffffffffffffffffffffffffffffffffffffffff1690806002018054612128906143e7565b80601f0160208091040260200160405190810160405280929190818152602001828054612154906143e7565b80156121a15780601f10612176576101008083540402835291602001916121a1565b820191906000526020600020905b81548152906001019060200180831161218457829003601f168201915b5050505050908060030180546121b6906143e7565b80601f01602080910402602001604051908101604052809291908181526020018280546121e2906143e7565b801561222f5780601f106122045761010080835404028352916020019161222f565b820191906000526020600020905b81548152906001019060200180831161221257829003601f168201915b5050505050908060040160009054906101000a900460ff16905085565b606060028260405161225e91906143a1565b9081526020016040518091039020805480602002602001604051908101604052809291908181526020016000905b828210156124a957838290600052602060002090600502016040518060a00160405290816000820160009054906101000a900473ffffffffffffffffffffffffffffffffffffffff1673ffffffffffffffffffffffffffffffffffffffff1673ffffffffffffffffffffffffffffffffffffffff1681526020016001820160009054906101000a900473ffffffffffffffffffffffffffffffffffffffff1673ffffffffffffffffffffffffffffffffffffffff1673ffffffffffffffffffffffffffffffffffffffff16815260200160028201805461236b906143e7565b80601f0160208091040260200160405190810160405280929190818152602001828054612397906143e7565b80156123e45780601f106123b9576101008083540402835291602001916123e4565b820191906000526020600020905b8154815290600101906020018083116123c757829003601f168201915b505050505081526020016003820180546123fd906143e7565b80601f0160208091040260200160405190810160405280929190818152602001828054612429906143e7565b80156124765780601f1061244b57610100808354040283529160200191612476565b820191906000526020600020905b81548152906001019060200180831161245957829003601f168201915b505050505081526020016004820160009054906101000a900460ff1615151515815250508152602001906001019061228c565b505050509050919050565b6124bc613661565b33816020019073ffffffffffffffffffffffffffffffffffffffff16908173ffffffffffffffffffffffffffffffffffffffff168152505083816000018190525082816060018190525081816040019073ffffffffffffffffffffffffffffffffffffffff16908173ffffffffffffffffffffffffffffffffffffffff1681525050600460003373ffffffffffffffffffffffffffffffffffffffff1673ffffffffffffffffffffffffffffffffffffffff16815260200190815260200160002081908060018154018082558091505060019003906000526020600020906004020160009091909190915060008201518160000190805190602001906125c39291906136b5565b5060208201518160010160006101000a81548173ffffffffffffffffffffffffffffffffffffffff021916908373ffffffffffffffffffffffffffffffffffffffff16021790555060408201518160020160006101000a81548173ffffffffffffffffffffffffffffffffffffffff021916908373ffffffffffffffffffffffffffffffffffffffff160217905550606082015181600301908051906020019061266e9291906136b5565b505050600560008373ffffffffffffffffffffffffffffffffffffffff1673ffffffffffffffffffffffffffffffffffffffff16815260200190815260200160002081908060018154018082558091505060019003906000526020600020906004020160009091909190915060008201518160000190805190602001906126f69291906136b5565b5060208201518160010160006101000a81548173ffffffffffffffffffffffffffffffffffffffff021916908373ffffffffffffffffffffffffffffffffffffffff16021790555060408201518160020160006101000a81548173ffffffffffffffffffffffffffffffffffffffff021916908373ffffffffffffffffffffffffffffffffffffffff16021790555060608201518160030190805190602001906127a19291906136b5565b50505050505050565b600460205281600052604060002081815481106127c657600080fd5b9060005260206000209060040201600091509150508060000180546127ea906143e7565b80601f0160208091040260200160405190810160405280929190818152602001828054612816906143e7565b80156128635780601f1061283857610100808354040283529160200191612863565b820191906000526020600020905b81548152906001019060200180831161284657829003601f168201915b5050505050908060010160009054906101000a900473ffffffffffffffffffffffffffffffffffffffff16908060020160009054906101000a900473ffffffffffffffffffffffffffffffffffffffff16908060030180546128c4906143e7565b80601f01602080910402602001604051908101604052809291908181526020018280546128f0906143e7565b801561293d5780601f106129125761010080835404028352916020019161293d565b820191906000526020600020905b81548152906001019060200180831161292057829003601f168201915b5050505050905084565b6001602052816000526040600020818154811061296357600080fd5b9060005260206000209060050201600091509150508060000160009054906101000a900473ffffffffffffffffffffffffffffffffffffffff16908060010160009054906101000a900473ffffffffffffffffffffffffffffffffffffffff16908060020180546129d3906143e7565b80601f01602080910402602001604051908101604052809291908181526020018280546129ff906143e7565b8015612a4c5780601f10612a2157610100808354040283529160200191612a4c565b820191906000526020600020905b815481529060010190602001808311612a2f57829003601f168201915b505050505090806003018054612a61906143e7565b80601f0160208091040260200160405190810160405280929190818152602001828054612a8d906143e7565b8015612ada5780601f10612aaf57610100808354040283529160200191612ada565b820191906000526020600020905b815481529060010190602001808311612abd57829003601f168201915b5050505050908060040160009054906101000a900460ff16905085565b6060600160003373ffffffffffffffffffffffffffffffffffffffff1673ffffffffffffffffffffffffffffffffffffffff168152602001908152602001600020805480602002602001604051908101604052809291908181526020016000905b82821015612d7557838290600052602060002090600502016040518060a00160405290816000820160009054906101000a900473ffffffffffffffffffffffffffffffffffffffff1673ffffffffffffffffffffffffffffffffffffffff1673ffffffffffffffffffffffffffffffffffffffff1681526020016001820160009054906101000a900473ffffffffffffffffffffffffffffffffffffffff1673ffffffffffffffffffffffffffffffffffffffff1673ffffffffffffffffffffffffffffffffffffffff168152602001600282018054612c37906143e7565b80601f0160208091040260200160405190810160405280929190818152602001828054612c63906143e7565b8015612cb05780601f10612c8557610100808354040283529160200191612cb0565b820191906000526020600020905b815481529060010190602001808311612c9357829003601f168201915b50505050508152602001600382018054612cc9906143e7565b80601f0160208091040260200160405190810160405280929190818152602001828054612cf5906143e7565b8015612d425780601f10612d1757610100808354040283529160200191612d42565b820191906000526020600020905b815481529060010190602001808311612d2557829003601f168201915b505050505081526020016004820160009054906101000a900460ff16151515158152505081526020019060010190612b58565b50505050905090565b6060600560003373ffffffffffffffffffffffffffffffffffffffff1673ffffffffffffffffffffffffffffffffffffffff168152602001908152602001600020805480602002602001604051908101604052809291908181526020016000905b82821015612fe15783829060005260206000209060040201604051806080016040529081600082018054612e12906143e7565b80601f0160208091040260200160405190810160405280929190818152602001828054612e3e906143e7565b8015612e8b5780601f10612e6057610100808354040283529160200191612e8b565b820191906000526020600020905b815481529060010190602001808311612e6e57829003601f168201915b505050505081526020016001820160009054906101000a900473ffffffffffffffffffffffffffffffffffffffff1673ffffffffffffffffffffffffffffffffffffffff1673ffffffffffffffffffffffffffffffffffffffff1681526020016002820160009054906101000a900473ffffffffffffffffffffffffffffffffffffffff1673ffffffffffffffffffffffffffffffffffffffff1673ffffffffffffffffffffffffffffffffffffffff168152602001600382018054612f50906143e7565b80601f0160208091040260200160405190810160405280929190818152602001828054612f7c906143e7565b8015612fc95780601f10612f9e57610100808354040283529160200191612fc9565b820191906000526020600020905b815481529060010190602001808311612fac57829003601f168201915b50505050508152505081526020019060010190612ddf565b50505050905090565b612ff261353e565b84816040018190525082816060018190525081816020019073ffffffffffffffffffffffffffffffffffffffff16908173ffffffffffffffffffffffffffffffffffffffff168152505033816000019073ffffffffffffffffffffffffffffffffffffffff16908173ffffffffffffffffffffffffffffffffffffffff168152505060028460405161308491906143a1565b908152602001604051809103902081908060018154018082558091505060019003906000526020600020906005020160009091909190915060008201518160000160006101000a81548173ffffffffffffffffffffffffffffffffffffffff021916908373ffffffffffffffffffffffffffffffffffffffff16021790555060208201518160010160006101000a81548173ffffffffffffffffffffffffffffffffffffffff021916908373ffffffffffffffffffffffffffffffffffffffff160217905550604082015181600201908051906020019061316692919061359b565b50606082015181600301908051906020019061318392919061359b565b5060808201518160040160006101000a81548160ff0219169083151502179055505050836003846040516131b791906143a1565b908152602001604051809103902090805190602001906131d892919061359b565b505050505050565b6060600460003373ffffffffffffffffffffffffffffffffffffffff1673ffffffffffffffffffffffffffffffffffffffff168152602001908152602001600020805480602002602001604051908101604052809291908181526020016000905b828210156134435783829060005260206000209060040201604051806080016040529081600082018054613274906143e7565b80601f01602080910402602001604051908101604052809291908181526020018280546132a0906143e7565b80156132ed5780601f106132c2576101008083540402835291602001916132ed565b820191906000526020600020905b8154815290600101906020018083116132d057829003601f168201915b505050505081526020016001820160009054906101000a900473ffffffffffffffffffffffffffffffffffffffff1673ffffffffffffffffffffffffffffffffffffffff1673ffffffffffffffffffffffffffffffffffffffff1681526020016002820160009054906101000a900473ffffffffffffffffffffffffffffffffffffffff1673ffffffffffffffffffffffffffffffffffffffff1673ffffffffffffffffffffffffffffffffffffffff1681526020016003820180546133b2906143e7565b80601f01602080910402602001604051908101604052809291908181526020018280546133de906143e7565b801561342b5780601f106134005761010080835404028352916020019161342b565b820191906000526020600020905b81548152906001019060200180831161340e57829003601f168201915b50505050508152505081526020019060010190613241565b50505050905090565b600081604001518260600151836000015184602001516040516020016134759493929190614512565b6040516020818303038152906040528051906020012083604001518460600151856000015186602001516040516020016134b29493929190614512565b6040516020818303038152906040528051906020012014905092915050565b6000816040015182606001516040516020016134ee929190614558565b604051602081830303815290604052805190602001208360400151846060015160405160200161351f929190614558565b6040516020818303038152906040528051906020012014905092915050565b6040518060a00160405280600073ffffffffffffffffffffffffffffffffffffffff168152602001600073ffffffffffffffffffffffffffffffffffffffff16815260200160608152602001606081526020016000151581525090565b8280546135a7906143e7565b90600052602060002090601f0160209004810192826135c95760008555613610565b82601f106135e257805160ff1916838001178555613610565b82800160010185558215613610579182015b8281111561360f5782518255916020019190600101906135f4565b5b50905061361d919061373b565b5090565b50805461362d906143e7565b6000825580601f1061363f575061365e565b601f01602090049060005260206000209081019061365d919061373b565b5b50565b604051806080016040528060608152602001600073ffffffffffffffffffffffffffffffffffffffff168152602001600073ffffffffffffffffffffffffffffffffffffffff168152602001606081525090565b8280546136c1906143e7565b90600052602060002090601f0160209004810192826136e3576000855561372a565b82601f106136fc57805160ff191683800117855561372a565b8280016001018555821561372a579182015b8281111561372957825182559160200191906001019061370e565b5b509050613737919061373b565b5090565b5b8082111561375457600081600090555060010161373c565b5090565b6000604051905090565b600080fd5b600080fd5b600073ffffffffffffffffffffffffffffffffffffffff82169050919050565b60006137978261376c565b9050919050565b6137a78161378c565b81146137b257600080fd5b50565b6000813590506137c48161379e565b92915050565b600080fd5b600080fd5b6000601f19601f8301169050919050565b7f4e487b7100000000000000000000000000000000000000000000000000000000600052604160045260246000fd5b61381d826137d4565b810181811067ffffffffffffffff8211171561383c5761383b6137e5565b5b80604052505050565b600061384f613758565b905061385b8282613814565b919050565b600067ffffffffffffffff82111561387b5761387a6137e5565b5b613884826137d4565b9050602081019050919050565b82818337600083830152505050565b60006138b36138ae84613860565b613845565b9050828152602081018484840111156138cf576138ce6137cf565b5b6138da848285613891565b509392505050565b600082601f8301126138f7576138f66137ca565b5b81356139078482602086016138a0565b91505092915050565b60008060006060848603121561392957613928613762565b5b6000613937868287016137b5565b935050602084013567ffffffffffffffff81111561395857613957613767565b5b613964868287016138e2565b925050604084013567ffffffffffffffff81111561398557613984613767565b5b613991868287016138e2565b9150509250925092565b6000602082840312156139b1576139b0613762565b5b600082013567ffffffffffffffff8111156139cf576139ce613767565b5b6139db848285016138e2565b91505092915050565b600081519050919050565b600082825260208201905092915050565b60005b83811015613a1e578082015181840152602081019050613a03565b83811115613a2d576000848401525b50505050565b6000613a3e826139e4565b613a4881856139ef565b9350613a58818560208601613a00565b613a61816137d4565b840191505092915050565b60006020820190508181036000830152613a868184613a33565b905092915050565b600081519050919050565b600082825260208201905092915050565b6000819050602082019050919050565b613ac38161378c565b82525050565b600082825260208201905092915050565b6000613ae5826139e4565b613aef8185613ac9565b9350613aff818560208601613a00565b613b08816137d4565b840191505092915050565b60008115159050919050565b613b2881613b13565b82525050565b600060a083016000830151613b466000860182613aba565b506020830151613b596020860182613aba565b5060408301518482036040860152613b718282613ada565b91505060608301518482036060860152613b8b8282613ada565b9150506080830151613ba06080860182613b1f565b508091505092915050565b6000613bb78383613b2e565b905092915050565b6000602082019050919050565b6000613bd782613a8e565b613be18185613a99565b935083602082028501613bf385613aaa565b8060005b85811015613c2f5784840389528151613c108582613bab565b9450613c1b83613bbf565b925060208a01995050600181019050613bf7565b50829750879550505050505092915050565b60006020820190508181036000830152613c5b8184613bcc565b905092915050565b6000819050919050565b613c7681613c63565b8114613c8157600080fd5b50565b600081359050613c9381613c6d565b92915050565b60008060408385031215613cb057613caf613762565b5b6000613cbe858286016137b5565b9250506020613ccf85828601613c84565b9150509250929050565b600081519050919050565b600082825260208201905092915050565b6000613d0082613cd9565b613d0a8185613ce4565b9350613d1a818560208601613a00565b613d23816137d4565b840191505092915050565b613d378161378c565b82525050565b60006080820190508181036000830152613d578187613cf5565b9050613d666020830186613d2e565b613d736040830185613d2e565b8181036060830152613d858184613cf5565b905095945050505050565b600080fd5b600080fd5b613da381613b13565b8114613dae57600080fd5b50565b600081359050613dc081613d9a565b92915050565b600060a08284031215613ddc57613ddb613d90565b5b613de660a0613845565b90506000613df6848285016137b5565b6000830152506020613e0a848285016137b5565b602083015250604082013567ffffffffffffffff811115613e2e57613e2d613d95565b5b613e3a848285016138e2565b604083015250606082013567ffffffffffffffff811115613e5e57613e5d613d95565b5b613e6a848285016138e2565b6060830152506080613e7e84828501613db1565b60808301525092915050565b60008060408385031215613ea157613ea0613762565b5b6000613eaf858286016137b5565b925050602083013567ffffffffffffffff811115613ed057613ecf613767565b5b613edc85828601613dc6565b9150509250929050565b6000819050919050565b613ef981613ee6565b82525050565b6000602082019050613f146000830184613ef0565b92915050565b613f2381613b13565b82525050565b600060a082019050613f3e6000830188613d2e565b613f4b6020830187613d2e565b8181036040830152613f5d8186613a33565b90508181036060830152613f718185613a33565b9050613f806080830184613f1a565b9695505050505050565b60008060408385031215613fa157613fa0613762565b5b600083013567ffffffffffffffff811115613fbf57613fbe613767565b5b613fcb858286016138e2565b9250506020613fdc85828601613c84565b9150509250929050565b600067ffffffffffffffff821115614001576140006137e5565b5b61400a826137d4565b9050602081019050919050565b600061402a61402584613fe6565b613845565b905082815260208101848484011115614046576140456137cf565b5b614051848285613891565b509392505050565b600082601f83011261406e5761406d6137ca565b5b813561407e848260208601614017565b91505092915050565b6000806000606084860312156140a05761409f613762565b5b600084013567ffffffffffffffff8111156140be576140bd613767565b5b6140ca86828701614059565b935050602084013567ffffffffffffffff8111156140eb576140ea613767565b5b6140f786828701614059565b9250506040614108868287016137b5565b9150509250925092565b600081519050919050565b600082825260208201905092915050565b6000819050602082019050919050565b600082825260208201905092915050565b600061415a82613cd9565b614164818561413e565b9350614174818560208601613a00565b61417d816137d4565b840191505092915050565b600060808301600083015184820360008601526141a5828261414f565b91505060208301516141ba6020860182613aba565b5060408301516141cd6040860182613aba565b50606083015184820360608601526141e5828261414f565b9150508091505092915050565b60006141fe8383614188565b905092915050565b6000602082019050919050565b600061421e82614112565b614228818561411d565b93508360208202850161423a8561412e565b8060005b85811015614276578484038952815161425785826141f2565b945061426283614206565b925060208a0199505060018101905061423e565b50829750879550505050505092915050565b600060208201905081810360008301526142a28184614213565b905092915050565b600080600080608085870312156142c4576142c3613762565b5b600085013567ffffffffffffffff8111156142e2576142e1613767565b5b6142ee878288016138e2565b945050602085013567ffffffffffffffff81111561430f5761430e613767565b5b61431b878288016138e2565b935050604085013567ffffffffffffffff81111561433c5761433b613767565b5b614348878288016138e2565b9250506060614359878288016137b5565b91505092959194509250565b600081905092915050565b600061437b826139e4565b6143858185614365565b9350614395818560208601613a00565b80840191505092915050565b60006143ad8284614370565b915081905092915050565b7f4e487b7100000000000000000000000000000000000000000000000000000000600052602260045260246000fd5b600060028204905060018216806143ff57607f821691505b602082108103614412576144116143b8565b5b50919050565b7f4e487b7100000000000000000000000000000000000000000000000000000000600052603260045260246000fd5b7f4e487b7100000000000000000000000000000000000000000000000000000000600052601160045260246000fd5b600061448182613c63565b91507fffffffffffffffffffffffffffffffffffffffffffffffffffffffffffffffff82036144b3576144b2614447565b5b600182019050919050565b60006c0100000000000000000000000082029050919050565b60006144e2826144be565b9050919050565b60006144f4826144d7565b9050919050565b61450c6145078261378c565b6144e9565b82525050565b600061451e8287614370565b915061452a8286614370565b915061453682856144fb565b60148201915061454682846144fb565b60148201915081905095945050505050565b60006145648285614370565b91506145708284614370565b9150819050939250505056fea2646970667358221220310a1524ae2fcd716135822534f2ea66926005aa97b56143e59d3bf9eec0e87a64736f6c634300080d0033",
  "immutableReferences": {},
  "source": "// SPDX-License-Identifier: MIT\npragma solidity >=0.8.1;\npragma abicoder v2;\n\ncontract Decaf {\n    struct Document {\n        address from;\n        address to;\n        string fileName;\n        string ipfsHash;\n        bool access;\n    }\n\n    struct DocumentSigned {\n        bytes signature;\n        address signer;\n        address receiver;\n        bytes mssgHash;\n    }\n\n\n    function DocHash(string memory ipfsHash) public pure returns(bytes32) {\n        return keccak256(abi.encode(ipfsHash));\n    }\n\n\n    mapping(address => Document[]) public documentsIssued;\n    mapping(address => Document[]) public documentsReceived;\n\n    mapping(string=>Document[]) public documentDirectory;\n    mapping(string=>string) public documentVersionMasterLink;\n\n    mapping(address => DocumentSigned[]) public documentsSigned;\n    mapping(address => DocumentSigned[]) public documentsSignedReceived;\n\n    address[] userIssuedTo;\n\n    function issueDocument(\n        address to,\n        string memory fileName,\n        string memory ipfsHash\n    ) public {\n        Document memory document;\n        document.from = msg.sender;\n        document.to = to;\n        document.fileName = fileName;\n        document.ipfsHash = ipfsHash;\n        document.access = true;\n        documentsIssued[msg.sender].push(document);\n        documentsReceived[to].push(document);\n        if(documentDirectory[document.ipfsHash].length == 0)\n            documentDirectory[document.ipfsHash].push(document);\n    }\n\n    function issueDocumentVersion(\n        string memory fileName,\n        string memory ipfsHashMaster,\n        string memory ipfsHash,\n        address to\n    ) public {\n        Document memory document;\n        document.fileName = fileName;\n        document.ipfsHash = ipfsHash;\n        document.to = to;\n        document.from = msg.sender;\n        documentDirectory[ipfsHashMaster].push(document);\n        documentVersionMasterLink[ipfsHash]=ipfsHashMaster;\n    }\n\n    function signDocument(\n        bytes memory signature,\n        bytes memory mssgHash,\n        address receiver\n    ) public {\n        DocumentSigned memory document;\n        document.signer = msg.sender;\n        document.signature = signature;\n        document.mssgHash = mssgHash;\n        document.receiver = receiver;\n        documentsSigned[msg.sender].push(document);\n        documentsSignedReceived[receiver].push(document);\n    }\n\n    function getDocumentsIssued() public view returns (Document[] memory) {\n        return documentsIssued[msg.sender];\n    }\n\n    function getDocumentVersionsIssued(string memory ipfsHash) public view returns (Document[] memory) {\n        return documentDirectory[ipfsHash];\n    }\n\n    function getDocumentVersionLink(string memory ipfsHash) public view returns (string memory) {\n        return documentVersionMasterLink[ipfsHash];\n    }\n\n\n    function getDocumentsReceived() public view returns (Document[] memory) {\n        return documentsReceived[msg.sender];\n    }\n\n\n    function revokeDocument(address user, Document memory doc) public {\n        Document[] memory ownerDocs = documentsIssued[msg.sender];\n        Document[] memory receivedDocs = documentsReceived[user];\n        Document[] memory issuedDocs = documentsIssued[user];\n\n        for (uint256 i = 0; i < ownerDocs.length; i++) {\n            if (equalsOwner(ownerDocs[i], doc)) {\n                documentsIssued[msg.sender][i].access = false;\n        }\n    }\n\n        for (uint256 i = 0; i < receivedDocs.length; i++) {\n            if (equals(receivedDocs[i], doc)) {\n                delete documentsReceived[user][i];\n            }\n        }\n\n        for (uint256 i = 0; i < issuedDocs.length; i++) {\n            if (equals(issuedDocs[i], doc)) {\n                if (documentsIssued[user][i].to != msg.sender) {\n                    userIssuedTo.push(documentsIssued[user][i].to);\n                }\n                delete documentsIssued[user][i];\n            }\n        }\n\n        for (uint256 j = 0; j < userIssuedTo.length; j++) {\n            Document[] memory userIssuedToDocs = documentsReceived[\n                userIssuedTo[j]\n            ];\n            for (uint256 i = 0; i < userIssuedToDocs.length; i++) {\n                if (equals(userIssuedToDocs[i], doc)) {\n                    delete documentsReceived[userIssuedTo[j]][i];\n                }\n            }\n        }\n    }\n\n    function equals(Document memory _first, Document memory _second)\n        internal\n        view\n        returns (bool)\n    {\n        // Just compare the output of hashing all fields packed\n        return (keccak256(abi.encodePacked(_first.fileName, _first.ipfsHash)) ==\n            keccak256(abi.encodePacked(_second.fileName, _second.ipfsHash)));\n    }\n\n    function equalsOwner(Document memory _first, Document memory _second)\n        internal\n        view\n        returns (bool)\n    {\n        // Just compare the output of hashing all fields packed\n        return (keccak256(\n            abi.encodePacked(\n                _first.fileName,\n                _first.ipfsHash,\n                _first.from,\n                _first.to\n            )\n        ) ==\n            keccak256(\n                abi.encodePacked(\n                    _second.fileName,\n                    _second.ipfsHash,\n                    _second.from,\n                    _second.to\n                )\n            ));\n    }\n\n    function getDocumentsSigned()\n        public\n        view\n        returns (DocumentSigned[] memory)\n    {\n        return documentsSigned[msg.sender];\n    }\n\n    function getDocumentsSignedReceived()\n        public\n        view\n        returns (DocumentSigned[] memory)\n    {\n        return documentsSignedReceived[msg.sender];\n    }\n}\n\n//0x5B38Da6a701c568545dCfcB03FcB875f56beddC4\n\n//0xAb8483F64d9C6d1EcF9b849Ae677dD3315835cb2\n\n//0x4B20993Bc481177ec7E8f571ceCaE8A9e22C02db\n\n//0x78731D3Ca6b7E34aC0F824c42a7cC18A495cabaB\n\n//[\"0x5B38Da6a701c568545dCfcB03FcB875f56beddC4\",\"0xAb8483F64d9C6d1EcF9b849Ae677dD3315835cb2\",\"doc1_master\",\"doc1_master\",true]\n",
  "sourcePath": "/Users/shreyasmore/Desktop/Final_Project/DECAF/DECAF-React/contracts/Decaf.sol",
  "compiler": {
    "name": "solc",
    "version": "0.8.13+commit.abaa5c0e.Emscripten.clang"
  },
  "schemaVersion": "3.4.4",
  "updatedAt": "2022-05-07T14:43:07.593Z",
  "networkType": "ethereum",
  "devdoc": {
    "kind": "dev",
    "methods": {},
    "version": 1
  },
  "userdoc": {
    "kind": "user",
    "methods": {},
    "version": 1
  }
}