{
  "contractName": "Decaf",
  "abi": [
    {
      "inputs": [
        {
          "internalType": "address",
          "name": "to",
          "type": "address"
        },
        {
          "internalType": "string",
          "name": "fileName",
          "type": "string"
        },
        {
          "internalType": "string",
          "name": "ipfsHash",
          "type": "string"
        }
      ],
      "name": "issueDocument",
      "outputs": [],
      "stateMutability": "nonpayable",
      "type": "function"
    },
    {
      "inputs": [],
      "name": "getDocumentsIssued",
      "outputs": [
        {
          "components": [
            {
              "internalType": "address",
              "name": "from",
              "type": "address"
            },
            {
              "internalType": "address",
              "name": "to",
              "type": "address"
            },
            {
              "internalType": "string",
              "name": "fileName",
              "type": "string"
            },
            {
              "internalType": "string",
              "name": "ipfsHash",
              "type": "string"
            }
          ],
          "internalType": "struct Decaf.Document[]",
          "name": "documents",
          "type": "tuple[]"
        }
      ],
      "stateMutability": "view",
      "type": "function"
    },
    {
      "inputs": [],
      "name": "getDocumentsReceived",
      "outputs": [
        {
          "components": [
            {
              "internalType": "address",
              "name": "from",
              "type": "address"
            },
            {
              "internalType": "address",
              "name": "to",
              "type": "address"
            },
            {
              "internalType": "string",
              "name": "fileName",
              "type": "string"
            },
            {
              "internalType": "string",
              "name": "ipfsHash",
              "type": "string"
            }
          ],
          "internalType": "struct Decaf.Document[]",
          "name": "documents",
          "type": "tuple[]"
        }
      ],
      "stateMutability": "view",
      "type": "function"
    }
  ],
  "bytecode": "0x608060405234801561001057600080fd5b50610e15806100206000396000f3fe608060405234801561001057600080fd5b506004361061005e576000357c0100000000000000000000000000000000000000000000000000000000900480630de35f551461006357806343bdc07e1461007f578063ac2968341461009d575b600080fd5b61007d600480360381019061007891906109fb565b6100bb565b005b6100876103b0565b6040516100949190610bb5565b60405180910390f35b6100a561061b565b6040516100b29190610bb5565b60405180910390f35b6100c3610887565b33816000019073ffffffffffffffffffffffffffffffffffffffff16908173ffffffffffffffffffffffffffffffffffffffff168152505083816020019073ffffffffffffffffffffffffffffffffffffffff16908173ffffffffffffffffffffffffffffffffffffffff16815250508281604001819052508181606001819052506000803373ffffffffffffffffffffffffffffffffffffffff1673ffffffffffffffffffffffffffffffffffffffff16815260200190815260200160002081908060018154018082558091505060019003906000526020600020906004020160009091909190915060008201518160000160006101000a81548173ffffffffffffffffffffffffffffffffffffffff021916908373ffffffffffffffffffffffffffffffffffffffff16021790555060208201518160010160006101000a81548173ffffffffffffffffffffffffffffffffffffffff021916908373ffffffffffffffffffffffffffffffffffffffff16021790555060408201518160020190805190602001906102579291906108db565b5060608201518160030190805190602001906102749291906108db565b505050600160008573ffffffffffffffffffffffffffffffffffffffff1673ffffffffffffffffffffffffffffffffffffffff16815260200190815260200160002081908060018154018082558091505060019003906000526020600020906004020160009091909190915060008201518160000160006101000a81548173ffffffffffffffffffffffffffffffffffffffff021916908373ffffffffffffffffffffffffffffffffffffffff16021790555060208201518160010160006101000a81548173ffffffffffffffffffffffffffffffffffffffff021916908373ffffffffffffffffffffffffffffffffffffffff160217905550604082015181600201908051906020019061038a9291906108db565b5060608201518160030190805190602001906103a79291906108db565b50505050505050565b60606000803373ffffffffffffffffffffffffffffffffffffffff1673ffffffffffffffffffffffffffffffffffffffff168152602001908152602001600020805480602002602001604051908101604052809291908181526020016000905b8282101561061257838290600052602060002090600402016040518060800160405290816000820160009054906101000a900473ffffffffffffffffffffffffffffffffffffffff1673ffffffffffffffffffffffffffffffffffffffff1673ffffffffffffffffffffffffffffffffffffffff1681526020016001820160009054906101000a900473ffffffffffffffffffffffffffffffffffffffff1673ffffffffffffffffffffffffffffffffffffffff1673ffffffffffffffffffffffffffffffffffffffff1681526020016002820180546104ef90610cf6565b80601f016020809104026020016040519081016040528092919081815260200182805461051b90610cf6565b80156105685780601f1061053d57610100808354040283529160200191610568565b820191906000526020600020905b81548152906001019060200180831161054b57829003601f168201915b5050505050815260200160038201805461058190610cf6565b80601f01602080910402602001604051908101604052809291908181526020018280546105ad90610cf6565b80156105fa5780601f106105cf576101008083540402835291602001916105fa565b820191906000526020600020905b8154815290600101906020018083116105dd57829003601f168201915b50505050508152505081526020019060010190610410565b50505050905090565b6060600160003373ffffffffffffffffffffffffffffffffffffffff1673ffffffffffffffffffffffffffffffffffffffff168152602001908152602001600020805480602002602001604051908101604052809291908181526020016000905b8282101561087e57838290600052602060002090600402016040518060800160405290816000820160009054906101000a900473ffffffffffffffffffffffffffffffffffffffff1673ffffffffffffffffffffffffffffffffffffffff1673ffffffffffffffffffffffffffffffffffffffff1681526020016001820160009054906101000a900473ffffffffffffffffffffffffffffffffffffffff1673ffffffffffffffffffffffffffffffffffffffff1673ffffffffffffffffffffffffffffffffffffffff16815260200160028201805461075b90610cf6565b80601f016020809104026020016040519081016040528092919081815260200182805461078790610cf6565b80156107d45780601f106107a9576101008083540402835291602001916107d4565b820191906000526020600020905b8154815290600101906020018083116107b757829003601f168201915b505050505081526020016003820180546107ed90610cf6565b80601f016020809104026020016040519081016040528092919081815260200182805461081990610cf6565b80156108665780601f1061083b57610100808354040283529160200191610866565b820191906000526020600020905b81548152906001019060200180831161084957829003601f168201915b5050505050815250508152602001906001019061067c565b50505050905090565b6040518060800160405280600073ffffffffffffffffffffffffffffffffffffffff168152602001600073ffffffffffffffffffffffffffffffffffffffff16815260200160608152602001606081525090565b8280546108e790610cf6565b90600052602060002090601f0160209004810192826109095760008555610950565b82601f1061092257805160ff1916838001178555610950565b82800160010185558215610950579182015b8281111561094f578251825591602001919060010190610934565b5b50905061095d9190610961565b5090565b5b8082111561097a576000816000905550600101610962565b5090565b600061099161098c84610bfc565b610bd7565b9050828152602081018484840111156109a957600080fd5b6109b4848285610cb4565b509392505050565b6000813590506109cb81610dc8565b92915050565b600082601f8301126109e257600080fd5b81356109f284826020860161097e565b91505092915050565b600080600060608486031215610a1057600080fd5b6000610a1e868287016109bc565b935050602084013567ffffffffffffffff811115610a3b57600080fd5b610a47868287016109d1565b925050604084013567ffffffffffffffff811115610a6457600080fd5b610a70868287016109d1565b9150509250925092565b6000610a868383610b4b565b905092915050565b610a9781610c82565b82525050565b6000610aa882610c3d565b610ab28185610c60565b935083602082028501610ac485610c2d565b8060005b85811015610b005784840389528151610ae18582610a7a565b9450610aec83610c53565b925060208a01995050600181019050610ac8565b50829750879550505050505092915050565b6000610b1d82610c48565b610b278185610c71565b9350610b37818560208601610cc3565b610b4081610db7565b840191505092915050565b6000608083016000830151610b636000860182610a8e565b506020830151610b766020860182610a8e565b5060408301518482036040860152610b8e8282610b12565b91505060608301518482036060860152610ba88282610b12565b9150508091505092915050565b60006020820190508181036000830152610bcf8184610a9d565b905092915050565b6000610be1610bf2565b9050610bed8282610d28565b919050565b6000604051905090565b600067ffffffffffffffff821115610c1757610c16610d88565b5b610c2082610db7565b9050602081019050919050565b6000819050602082019050919050565b600081519050919050565b600081519050919050565b6000602082019050919050565b600082825260208201905092915050565b600082825260208201905092915050565b6000610c8d82610c94565b9050919050565b600073ffffffffffffffffffffffffffffffffffffffff82169050919050565b82818337600083830152505050565b60005b83811015610ce1578082015181840152602081019050610cc6565b83811115610cf0576000848401525b50505050565b60006002820490506001821680610d0e57607f821691505b60208210811415610d2257610d21610d59565b5b50919050565b610d3182610db7565b810181811067ffffffffffffffff82111715610d5057610d4f610d88565b5b80604052505050565b7f4e487b7100000000000000000000000000000000000000000000000000000000600052602260045260246000fd5b7f4e487b7100000000000000000000000000000000000000000000000000000000600052604160045260246000fd5b6000601f19601f8301169050919050565b610dd181610c82565b8114610ddc57600080fd5b5056fea26469706673582212202d91d051a66fda9addf36fbf0e889f7069e66a52a0d9c511a3e7ac9aea22fb6164736f6c63430008010033",
  "immutableReferences": {},
  "source": "// SPDX-License-Identifier: MIT\npragma solidity ^0.8.1;\n\ncontract Decaf {\n    struct Document {\n        address from;\n        address to;\n        string fileName;\n        string ipfsHash;\n    }\n\n    mapping(address => Document[]) documentsIssued;    \n    mapping(address => Document[]) documentsReceived;\n\n    function issueDocument(address to, string memory fileName, string memory ipfsHash) public {\n        Document memory document;\n        document.from = msg.sender;\n        document.to = to;\n        document.fileName = fileName;\n        document.ipfsHash = ipfsHash;\n\n        documentsIssued[msg.sender].push(document);\n        documentsReceived[to].push(document);\n    }\n\n    function getDocumentsIssued() view public returns (Document[] memory documents){\n        return documentsIssued[msg.sender];\n    }\n\n    function getDocumentsReceived() view public returns (Document[] memory documents){\n        return documentsReceived[msg.sender];\n    }\n\n}",
  "sourcePath": "/Users/shreyasmore/Desktop/Final_Project/DECAF/DECAF-React/contracts/Decaf.sol",
  "compiler": {
    "name": "solc",
    "version": "0.8.1+commit.df193b15.Emscripten.clang"
  },
  "schemaVersion": "3.4.4",
  "updatedAt": "2021-12-28T16:06:00.421Z",
  "devdoc": {
    "kind": "dev",
    "methods": {},
    "version": 1
  },
  "userdoc": {
    "kind": "user",
    "methods": {},
    "version": 1
  }
}