{
  "contractName": "Decaf",
  "abi": [
    {
      "inputs": [
        {
          "internalType": "address",
          "name": "",
          "type": "address"
        },
        {
          "internalType": "uint256",
          "name": "",
          "type": "uint256"
        }
      ],
      "name": "documentsIssued",
      "outputs": [
        {
          "internalType": "address",
          "name": "from",
          "type": "address"
        },
        {
          "internalType": "address",
          "name": "to",
          "type": "address"
        },
        {
          "internalType": "string",
          "name": "fileName",
          "type": "string"
        },
        {
          "internalType": "string",
          "name": "ipfsHash",
          "type": "string"
        }
      ],
      "stateMutability": "view",
      "type": "function",
      "constant": true
    },
    {
      "inputs": [
        {
          "internalType": "address",
          "name": "",
          "type": "address"
        },
        {
          "internalType": "uint256",
          "name": "",
          "type": "uint256"
        }
      ],
      "name": "documentsReceived",
      "outputs": [
        {
          "internalType": "address",
          "name": "from",
          "type": "address"
        },
        {
          "internalType": "address",
          "name": "to",
          "type": "address"
        },
        {
          "internalType": "string",
          "name": "fileName",
          "type": "string"
        },
        {
          "internalType": "string",
          "name": "ipfsHash",
          "type": "string"
        }
      ],
      "stateMutability": "view",
      "type": "function",
      "constant": true
    },
    {
      "inputs": [
        {
          "internalType": "address",
          "name": "",
          "type": "address"
        },
        {
          "internalType": "uint256",
          "name": "",
          "type": "uint256"
        }
      ],
      "name": "documentsSigned",
      "outputs": [
        {
          "internalType": "bytes",
          "name": "signature",
          "type": "bytes"
        },
        {
          "internalType": "address",
          "name": "signer",
          "type": "address"
        },
        {
          "internalType": "bytes",
          "name": "mssgHash",
          "type": "bytes"
        }
      ],
      "stateMutability": "view",
      "type": "function",
      "constant": true
    },
    {
      "inputs": [
        {
          "internalType": "address",
          "name": "to",
          "type": "address"
        },
        {
          "internalType": "string",
          "name": "fileName",
          "type": "string"
        },
        {
          "internalType": "string",
          "name": "ipfsHash",
          "type": "string"
        }
      ],
      "name": "issueDocument",
      "outputs": [],
      "stateMutability": "nonpayable",
      "type": "function"
    },
    {
      "inputs": [
        {
          "internalType": "bytes",
          "name": "signature",
          "type": "bytes"
        },
        {
          "internalType": "bytes",
          "name": "mssgHash",
          "type": "bytes"
        }
      ],
      "name": "signDocument",
      "outputs": [],
      "stateMutability": "nonpayable",
      "type": "function"
    },
    {
      "inputs": [],
      "name": "getDocumentsIssued",
      "outputs": [
        {
          "components": [
            {
              "internalType": "address",
              "name": "from",
              "type": "address"
            },
            {
              "internalType": "address",
              "name": "to",
              "type": "address"
            },
            {
              "internalType": "string",
              "name": "fileName",
              "type": "string"
            },
            {
              "internalType": "string",
              "name": "ipfsHash",
              "type": "string"
            }
          ],
          "internalType": "struct Decaf.Document[]",
          "name": "",
          "type": "tuple[]"
        }
      ],
      "stateMutability": "view",
      "type": "function",
      "constant": true
    },
    {
      "inputs": [],
      "name": "getDocumentsReceived",
      "outputs": [
        {
          "components": [
            {
              "internalType": "address",
              "name": "from",
              "type": "address"
            },
            {
              "internalType": "address",
              "name": "to",
              "type": "address"
            },
            {
              "internalType": "string",
              "name": "fileName",
              "type": "string"
            },
            {
              "internalType": "string",
              "name": "ipfsHash",
              "type": "string"
            }
          ],
          "internalType": "struct Decaf.Document[]",
          "name": "",
          "type": "tuple[]"
        }
      ],
      "stateMutability": "view",
      "type": "function",
      "constant": true
    },
    {
      "inputs": [],
      "name": "getDocumentsSigned",
      "outputs": [
        {
          "components": [
            {
              "internalType": "bytes",
              "name": "signature",
              "type": "bytes"
            },
            {
              "internalType": "address",
              "name": "signer",
              "type": "address"
            },
            {
              "internalType": "bytes",
              "name": "mssgHash",
              "type": "bytes"
            }
          ],
          "internalType": "struct Decaf.DocumentSigned[]",
          "name": "",
          "type": "tuple[]"
        }
      ],
      "stateMutability": "view",
      "type": "function",
      "constant": true
    }
  ],
  "bytecode": "0x608060405234801561001057600080fd5b50611c77806100206000396000f3fe608060405234801561001057600080fd5b50600436106100a5576000357c0100000000000000000000000000000000000000000000000000000000900480639dafb60a116100785780639dafb60a14610133578063ac01137014610165578063ac29683414610198578063e6ed799f146101b6576100a5565b80630de35f55146100aa57806343bdc07e146100c65780636aa09113146100e45780638a631d0c14610117575b600080fd5b6100c460048036038101906100bf9190611516565b6101d4565b005b6100ce6104c9565b6040516100db9190611764565b60405180910390f35b6100fe60048036038101906100f991906117bc565b610734565b60405161010e9493929190611855565b60405180910390f35b610131600480360381019061012c9190611949565b6108d1565b005b61014d600480360381019061014891906117bc565b610a14565b60405161015c93929190611a16565b60405180910390f35b61017f600480360381019061017a91906117bc565b610b8b565b60405161018f9493929190611855565b60405180910390f35b6101a0610d28565b6040516101ad9190611764565b60405180910390f35b6101be610f94565b6040516101cb9190611bbe565b60405180910390f35b6101dc6111aa565b33816000019073ffffffffffffffffffffffffffffffffffffffff16908173ffffffffffffffffffffffffffffffffffffffff168152505083816020019073ffffffffffffffffffffffffffffffffffffffff16908173ffffffffffffffffffffffffffffffffffffffff16815250508281604001819052508181606001819052506000803373ffffffffffffffffffffffffffffffffffffffff1673ffffffffffffffffffffffffffffffffffffffff16815260200190815260200160002081908060018154018082558091505060019003906000526020600020906004020160009091909190915060008201518160000160006101000a81548173ffffffffffffffffffffffffffffffffffffffff021916908373ffffffffffffffffffffffffffffffffffffffff16021790555060208201518160010160006101000a81548173ffffffffffffffffffffffffffffffffffffffff021916908373ffffffffffffffffffffffffffffffffffffffff16021790555060408201518160020190805190602001906103709291906111fe565b50606082015181600301908051906020019061038d9291906111fe565b505050600160008573ffffffffffffffffffffffffffffffffffffffff1673ffffffffffffffffffffffffffffffffffffffff16815260200190815260200160002081908060018154018082558091505060019003906000526020600020906004020160009091909190915060008201518160000160006101000a81548173ffffffffffffffffffffffffffffffffffffffff021916908373ffffffffffffffffffffffffffffffffffffffff16021790555060208201518160010160006101000a81548173ffffffffffffffffffffffffffffffffffffffff021916908373ffffffffffffffffffffffffffffffffffffffff16021790555060408201518160020190805190602001906104a39291906111fe565b5060608201518160030190805190602001906104c09291906111fe565b50505050505050565b60606000803373ffffffffffffffffffffffffffffffffffffffff1673ffffffffffffffffffffffffffffffffffffffff168152602001908152602001600020805480602002602001604051908101604052809291908181526020016000905b8282101561072b57838290600052602060002090600402016040518060800160405290816000820160009054906101000a900473ffffffffffffffffffffffffffffffffffffffff1673ffffffffffffffffffffffffffffffffffffffff1673ffffffffffffffffffffffffffffffffffffffff1681526020016001820160009054906101000a900473ffffffffffffffffffffffffffffffffffffffff1673ffffffffffffffffffffffffffffffffffffffff1673ffffffffffffffffffffffffffffffffffffffff16815260200160028201805461060890611c0f565b80601f016020809104026020016040519081016040528092919081815260200182805461063490611c0f565b80156106815780601f1061065657610100808354040283529160200191610681565b820191906000526020600020905b81548152906001019060200180831161066457829003601f168201915b5050505050815260200160038201805461069a90611c0f565b80601f01602080910402602001604051908101604052809291908181526020018280546106c690611c0f565b80156107135780601f106106e857610100808354040283529160200191610713565b820191906000526020600020905b8154815290600101906020018083116106f657829003601f168201915b50505050508152505081526020019060010190610529565b50505050905090565b6000602052816000526040600020818154811061075057600080fd5b9060005260206000209060040201600091509150508060000160009054906101000a900473ffffffffffffffffffffffffffffffffffffffff16908060010160009054906101000a900473ffffffffffffffffffffffffffffffffffffffff16908060020180546107c090611c0f565b80601f01602080910402602001604051908101604052809291908181526020018280546107ec90611c0f565b80156108395780601f1061080e57610100808354040283529160200191610839565b820191906000526020600020905b81548152906001019060200180831161081c57829003601f168201915b50505050509080600301805461084e90611c0f565b80601f016020809104026020016040519081016040528092919081815260200182805461087a90611c0f565b80156108c75780601f1061089c576101008083540402835291602001916108c7565b820191906000526020600020905b8154815290600101906020018083116108aa57829003601f168201915b5050505050905084565b6108d9611284565b33816020019073ffffffffffffffffffffffffffffffffffffffff16908173ffffffffffffffffffffffffffffffffffffffff1681525050828160000181905250818160400181905250600260003373ffffffffffffffffffffffffffffffffffffffff1673ffffffffffffffffffffffffffffffffffffffff16815260200190815260200160002081908060018154018082558091505060019003906000526020600020906003020160009091909190915060008201518160000190805190602001906109a89291906112bb565b5060208201518160010160006101000a81548173ffffffffffffffffffffffffffffffffffffffff021916908373ffffffffffffffffffffffffffffffffffffffff1602179055506040820151816002019080519060200190610a0c9291906112bb565b505050505050565b60026020528160005260406000208181548110610a3057600080fd5b906000526020600020906003020160009150915050806000018054610a5490611c0f565b80601f0160208091040260200160405190810160405280929190818152602001828054610a8090611c0f565b8015610acd5780601f10610aa257610100808354040283529160200191610acd565b820191906000526020600020905b815481529060010190602001808311610ab057829003601f168201915b5050505050908060010160009054906101000a900473ffffffffffffffffffffffffffffffffffffffff1690806002018054610b0890611c0f565b80601f0160208091040260200160405190810160405280929190818152602001828054610b3490611c0f565b8015610b815780601f10610b5657610100808354040283529160200191610b81565b820191906000526020600020905b815481529060010190602001808311610b6457829003601f168201915b5050505050905083565b60016020528160005260406000208181548110610ba757600080fd5b9060005260206000209060040201600091509150508060000160009054906101000a900473ffffffffffffffffffffffffffffffffffffffff16908060010160009054906101000a900473ffffffffffffffffffffffffffffffffffffffff1690806002018054610c1790611c0f565b80601f0160208091040260200160405190810160405280929190818152602001828054610c4390611c0f565b8015610c905780601f10610c6557610100808354040283529160200191610c90565b820191906000526020600020905b815481529060010190602001808311610c7357829003601f168201915b505050505090806003018054610ca590611c0f565b80601f0160208091040260200160405190810160405280929190818152602001828054610cd190611c0f565b8015610d1e5780601f10610cf357610100808354040283529160200191610d1e565b820191906000526020600020905b815481529060010190602001808311610d0157829003601f168201915b5050505050905084565b6060600160003373ffffffffffffffffffffffffffffffffffffffff1673ffffffffffffffffffffffffffffffffffffffff168152602001908152602001600020805480602002602001604051908101604052809291908181526020016000905b82821015610f8b57838290600052602060002090600402016040518060800160405290816000820160009054906101000a900473ffffffffffffffffffffffffffffffffffffffff1673ffffffffffffffffffffffffffffffffffffffff1673ffffffffffffffffffffffffffffffffffffffff1681526020016001820160009054906101000a900473ffffffffffffffffffffffffffffffffffffffff1673ffffffffffffffffffffffffffffffffffffffff1673ffffffffffffffffffffffffffffffffffffffff168152602001600282018054610e6890611c0f565b80601f0160208091040260200160405190810160405280929190818152602001828054610e9490611c0f565b8015610ee15780601f10610eb657610100808354040283529160200191610ee1565b820191906000526020600020905b815481529060010190602001808311610ec457829003601f168201915b50505050508152602001600382018054610efa90611c0f565b80601f0160208091040260200160405190810160405280929190818152602001828054610f2690611c0f565b8015610f735780601f10610f4857610100808354040283529160200191610f73565b820191906000526020600020905b815481529060010190602001808311610f5657829003601f168201915b50505050508152505081526020019060010190610d89565b50505050905090565b6060600260003373ffffffffffffffffffffffffffffffffffffffff1673ffffffffffffffffffffffffffffffffffffffff168152602001908152602001600020805480602002602001604051908101604052809291908181526020016000905b828210156111a1578382906000526020600020906003020160405180606001604052908160008201805461102890611c0f565b80601f016020809104026020016040519081016040528092919081815260200182805461105490611c0f565b80156110a15780601f10611076576101008083540402835291602001916110a1565b820191906000526020600020905b81548152906001019060200180831161108457829003601f168201915b505050505081526020016001820160009054906101000a900473ffffffffffffffffffffffffffffffffffffffff1673ffffffffffffffffffffffffffffffffffffffff1673ffffffffffffffffffffffffffffffffffffffff16815260200160028201805461111090611c0f565b80601f016020809104026020016040519081016040528092919081815260200182805461113c90611c0f565b80156111895780601f1061115e57610100808354040283529160200191611189565b820191906000526020600020905b81548152906001019060200180831161116c57829003601f168201915b50505050508152505081526020019060010190610ff5565b50505050905090565b6040518060800160405280600073ffffffffffffffffffffffffffffffffffffffff168152602001600073ffffffffffffffffffffffffffffffffffffffff16815260200160608152602001606081525090565b82805461120a90611c0f565b90600052602060002090601f01602090048101928261122c5760008555611273565b82601f1061124557805160ff1916838001178555611273565b82800160010185558215611273579182015b82811115611272578251825591602001919060010190611257565b5b5090506112809190611341565b5090565b604051806060016040528060608152602001600073ffffffffffffffffffffffffffffffffffffffff168152602001606081525090565b8280546112c790611c0f565b90600052602060002090601f0160209004810192826112e95760008555611330565b82601f1061130257805160ff1916838001178555611330565b82800160010185558215611330579182015b8281111561132f578251825591602001919060010190611314565b5b50905061133d9190611341565b5090565b5b8082111561135a576000816000905550600101611342565b5090565b6000604051905090565b600080fd5b600080fd5b600073ffffffffffffffffffffffffffffffffffffffff82169050919050565b600061139d82611372565b9050919050565b6113ad81611392565b81146113b857600080fd5b50565b6000813590506113ca816113a4565b92915050565b600080fd5b600080fd5b6000601f19601f8301169050919050565b7f4e487b7100000000000000000000000000000000000000000000000000000000600052604160045260246000fd5b611423826113da565b810181811067ffffffffffffffff82111715611442576114416113eb565b5b80604052505050565b600061145561135e565b9050611461828261141a565b919050565b600067ffffffffffffffff821115611481576114806113eb565b5b61148a826113da565b9050602081019050919050565b82818337600083830152505050565b60006114b96114b484611466565b61144b565b9050828152602081018484840111156114d5576114d46113d5565b5b6114e0848285611497565b509392505050565b600082601f8301126114fd576114fc6113d0565b5b813561150d8482602086016114a6565b91505092915050565b60008060006060848603121561152f5761152e611368565b5b600061153d868287016113bb565b935050602084013567ffffffffffffffff81111561155e5761155d61136d565b5b61156a868287016114e8565b925050604084013567ffffffffffffffff81111561158b5761158a61136d565b5b611597868287016114e8565b9150509250925092565b600081519050919050565b600082825260208201905092915050565b6000819050602082019050919050565b6115d681611392565b82525050565b600081519050919050565b600082825260208201905092915050565b60005b838110156116165780820151818401526020810190506115fb565b83811115611625576000848401525b50505050565b6000611636826115dc565b61164081856115e7565b93506116508185602086016115f8565b611659816113da565b840191505092915050565b600060808301600083015161167c60008601826115cd565b50602083015161168f60208601826115cd565b50604083015184820360408601526116a7828261162b565b915050606083015184820360608601526116c1828261162b565b9150508091505092915050565b60006116da8383611664565b905092915050565b6000602082019050919050565b60006116fa826115a1565b61170481856115ac565b935083602082028501611716856115bd565b8060005b85811015611752578484038952815161173385826116ce565b945061173e836116e2565b925060208a0199505060018101905061171a565b50829750879550505050505092915050565b6000602082019050818103600083015261177e81846116ef565b905092915050565b6000819050919050565b61179981611786565b81146117a457600080fd5b50565b6000813590506117b681611790565b92915050565b600080604083850312156117d3576117d2611368565b5b60006117e1858286016113bb565b92505060206117f2858286016117a7565b9150509250929050565b61180581611392565b82525050565b600082825260208201905092915050565b6000611827826115dc565b611831818561180b565b93506118418185602086016115f8565b61184a816113da565b840191505092915050565b600060808201905061186a60008301876117fc565b61187760208301866117fc565b8181036040830152611889818561181c565b9050818103606083015261189d818461181c565b905095945050505050565b600067ffffffffffffffff8211156118c3576118c26113eb565b5b6118cc826113da565b9050602081019050919050565b60006118ec6118e7846118a8565b61144b565b905082815260208101848484011115611908576119076113d5565b5b611913848285611497565b509392505050565b600082601f8301126119305761192f6113d0565b5b81356119408482602086016118d9565b91505092915050565b600080604083850312156119605761195f611368565b5b600083013567ffffffffffffffff81111561197e5761197d61136d565b5b61198a8582860161191b565b925050602083013567ffffffffffffffff8111156119ab576119aa61136d565b5b6119b78582860161191b565b9150509250929050565b600081519050919050565b600082825260208201905092915050565b60006119e8826119c1565b6119f281856119cc565b9350611a028185602086016115f8565b611a0b816113da565b840191505092915050565b60006060820190508181036000830152611a3081866119dd565b9050611a3f60208301856117fc565b8181036040830152611a5181846119dd565b9050949350505050565b600081519050919050565b600082825260208201905092915050565b6000819050602082019050919050565b600082825260208201905092915050565b6000611aa3826119c1565b611aad8185611a87565b9350611abd8185602086016115f8565b611ac6816113da565b840191505092915050565b60006060830160008301518482036000860152611aee8282611a98565b9150506020830151611b0360208601826115cd565b5060408301518482036040860152611b1b8282611a98565b9150508091505092915050565b6000611b348383611ad1565b905092915050565b6000602082019050919050565b6000611b5482611a5b565b611b5e8185611a66565b935083602082028501611b7085611a77565b8060005b85811015611bac5784840389528151611b8d8582611b28565b9450611b9883611b3c565b925060208a01995050600181019050611b74565b50829750879550505050505092915050565b60006020820190508181036000830152611bd88184611b49565b905092915050565b7f4e487b7100000000000000000000000000000000000000000000000000000000600052602260045260246000fd5b60006002820490506001821680611c2757607f821691505b60208210811415611c3b57611c3a611be0565b5b5091905056fea2646970667358221220d8afcc28246a62eebbf93cda94056b9a5ff6fc645f22cce785197aec049aa16264736f6c634300080b0033",
  "immutableReferences": {},
  "source": "// SPDX-License-Identifier: MIT\npragma solidity >=0.8.1;\npragma abicoder v2;\n\ncontract Decaf {\n    struct Document {\n        address from;\n        address to;\n        string fileName;\n        string ipfsHash;\n    }\n\n    struct DocumentSigned {\n        bytes signature;\n        address signer;\n        bytes mssgHash;\n    }\n\n    mapping(address => Document[]) public documentsIssued;\n    mapping(address => Document[]) public documentsReceived;\n    mapping(address => DocumentSigned[]) public documentsSigned;\n\n    function issueDocument(\n        address to,\n        string memory fileName,\n        string memory ipfsHash\n    ) public {\n        Document memory document;\n        document.from = msg.sender;\n        document.to = to;\n        document.fileName = fileName;\n        document.ipfsHash = ipfsHash;\n\n        documentsIssued[msg.sender].push(document);\n        documentsReceived[to].push(document);\n    }\n\n    function signDocument(bytes memory signature, bytes memory mssgHash)\n        public\n    {\n        DocumentSigned memory document;\n        document.signer = msg.sender;\n        document.signature = signature;\n        document.mssgHash = mssgHash;\n        documentsSigned[msg.sender].push(document);\n    }\n\n    function getDocumentsIssued() public view returns (Document[] memory) {\n        return documentsIssued[msg.sender];\n    }\n\n    function getDocumentsReceived() public view returns (Document[] memory) {\n        return documentsReceived[msg.sender];\n    }\n\n    function getDocumentsSigned()\n        public\n        view\n        returns (DocumentSigned[] memory)\n    {\n        return documentsSigned[msg.sender];\n    }\n}\n",
  "sourcePath": "/Users/shreyasmore/Desktop/Final_Project/DECAF/DECAF-React/contracts/Decaf.sol",
  "compiler": {
    "name": "solc",
    "version": "0.8.11+commit.d7f03943.Emscripten.clang"
  },
  "schemaVersion": "3.4.4",
  "updatedAt": "2022-01-23T07:51:58.080Z",
  "networkType": "ethereum",
  "devdoc": {
    "kind": "dev",
    "methods": {},
    "version": 1
  },
  "userdoc": {
    "kind": "user",
    "methods": {},
    "version": 1
  }
}