{
  "contractName": "Verification",
  "abi": [
    {
      "inputs": [
        {
          "internalType": "string",
          "name": "_message",
          "type": "string"
        }
      ],
      "name": "getMessageHash",
      "outputs": [
        {
          "internalType": "bytes32",
          "name": "",
          "type": "bytes32"
        }
      ],
      "stateMutability": "pure",
      "type": "function",
      "constant": true
    },
    {
      "inputs": [
        {
          "internalType": "bytes32",
          "name": "_messageHash",
          "type": "bytes32"
        }
      ],
      "name": "getEthSignedMessageHash",
      "outputs": [
        {
          "internalType": "bytes32",
          "name": "",
          "type": "bytes32"
        }
      ],
      "stateMutability": "pure",
      "type": "function",
      "constant": true
    },
    {
      "inputs": [
        {
          "internalType": "address",
          "name": "_signer",
          "type": "address"
        },
        {
          "internalType": "string",
          "name": "_message",
          "type": "string"
        },
        {
          "internalType": "bytes",
          "name": "signature",
          "type": "bytes"
        }
      ],
      "name": "verify",
      "outputs": [
        {
          "internalType": "bool",
          "name": "",
          "type": "bool"
        }
      ],
      "stateMutability": "pure",
      "type": "function",
      "constant": true
    },
    {
      "inputs": [
        {
          "internalType": "bytes32",
          "name": "_ethSignedMessageHash",
          "type": "bytes32"
        },
        {
          "internalType": "bytes",
          "name": "_signature",
          "type": "bytes"
        }
      ],
      "name": "recoverSigner",
      "outputs": [
        {
          "internalType": "address",
          "name": "",
          "type": "address"
        }
      ],
      "stateMutability": "pure",
      "type": "function",
      "constant": true
    },
    {
      "inputs": [
        {
          "internalType": "bytes",
          "name": "sig",
          "type": "bytes"
        }
      ],
      "name": "splitSignature",
      "outputs": [
        {
          "internalType": "bytes32",
          "name": "r",
          "type": "bytes32"
        },
        {
          "internalType": "bytes32",
          "name": "s",
          "type": "bytes32"
        },
        {
          "internalType": "uint8",
          "name": "v",
          "type": "uint8"
        }
      ],
      "stateMutability": "pure",
      "type": "function",
      "constant": true
    }
  ],
  "bytecode": "0x608060405234801561001057600080fd5b50610a2e806100206000396000f3fe608060405234801561001057600080fd5b5060043610610074576000357c0100000000000000000000000000000000000000000000000000000000900480632dd34f0f1461007957806397aba7f9146100a9578063a7bb5803146100d9578063b446f3b21461010b578063fa5408011461013b575b600080fd5b610093600480360381019061008e9190610559565b61016b565b6040516100a091906105ff565b60405180910390f35b6100c360048036038101906100be9190610650565b6101c9565b6040516100d091906106bb565b60405180910390f35b6100f360048036038101906100ee91906106d6565b610238565b6040516101029392919061074a565b60405180910390f35b61012560048036038101906101209190610781565b6102a0565b60405161013291906107ca565b60405180910390f35b610155600480360381019061015091906107e5565b6102d0565b60405161016291906107ca565b60405180910390f35b600080610177846102a0565b90506000610184826102d0565b90508573ffffffffffffffffffffffffffffffffffffffff166101a782866101c9565b73ffffffffffffffffffffffffffffffffffffffff1614925050509392505050565b6000806000806101d885610238565b925092509250600186828585604051600081526020016040526040516102019493929190610812565b6020604051602081039080840390855afa158015610223573d6000803e3d6000fd5b50505060206040510351935050505092915050565b60008060006041845114610281576040517f08c379a0000000000000000000000000000000000000000000000000000000008152600401610278906108b4565b60405180910390fd5b6020840151925060408401519150606084015160001a90509193909250565b6000816040516020016102b3919061094e565b604051602081830303815290604052805190602001209050919050565b6000816040516020016102e391906109d2565b604051602081830303815290604052805190602001209050919050565b6000604051905090565b600080fd5b600080fd5b600073ffffffffffffffffffffffffffffffffffffffff82169050919050565b600061033f82610314565b9050919050565b61034f81610334565b811461035a57600080fd5b50565b60008135905061036c81610346565b92915050565b600080fd5b600080fd5b6000601f19601f8301169050919050565b7f4e487b7100000000000000000000000000000000000000000000000000000000600052604160045260246000fd5b6103c58261037c565b810181811067ffffffffffffffff821117156103e4576103e361038d565b5b80604052505050565b60006103f7610300565b905061040382826103bc565b919050565b600067ffffffffffffffff8211156104235761042261038d565b5b61042c8261037c565b9050602081019050919050565b82818337600083830152505050565b600061045b61045684610408565b6103ed565b90508281526020810184848401111561047757610476610377565b5b610482848285610439565b509392505050565b600082601f83011261049f5761049e610372565b5b81356104af848260208601610448565b91505092915050565b600067ffffffffffffffff8211156104d3576104d261038d565b5b6104dc8261037c565b9050602081019050919050565b60006104fc6104f7846104b8565b6103ed565b90508281526020810184848401111561051857610517610377565b5b610523848285610439565b509392505050565b600082601f8301126105405761053f610372565b5b81356105508482602086016104e9565b91505092915050565b6000806000606084860312156105725761057161030a565b5b60006105808682870161035d565b935050602084013567ffffffffffffffff8111156105a1576105a061030f565b5b6105ad8682870161048a565b925050604084013567ffffffffffffffff8111156105ce576105cd61030f565b5b6105da8682870161052b565b9150509250925092565b60008115159050919050565b6105f9816105e4565b82525050565b600060208201905061061460008301846105f0565b92915050565b6000819050919050565b61062d8161061a565b811461063857600080fd5b50565b60008135905061064a81610624565b92915050565b600080604083850312156106675761066661030a565b5b60006106758582860161063b565b925050602083013567ffffffffffffffff8111156106965761069561030f565b5b6106a28582860161052b565b9150509250929050565b6106b581610334565b82525050565b60006020820190506106d060008301846106ac565b92915050565b6000602082840312156106ec576106eb61030a565b5b600082013567ffffffffffffffff81111561070a5761070961030f565b5b6107168482850161052b565b91505092915050565b6107288161061a565b82525050565b600060ff82169050919050565b6107448161072e565b82525050565b600060608201905061075f600083018661071f565b61076c602083018561071f565b610779604083018461073b565b949350505050565b6000602082840312156107975761079661030a565b5b600082013567ffffffffffffffff8111156107b5576107b461030f565b5b6107c18482850161048a565b91505092915050565b60006020820190506107df600083018461071f565b92915050565b6000602082840312156107fb576107fa61030a565b5b60006108098482850161063b565b91505092915050565b6000608082019050610827600083018761071f565b610834602083018661073b565b610841604083018561071f565b61084e606083018461071f565b95945050505050565b600082825260208201905092915050565b7f696e76616c6964207369676e6174757265206c656e6774680000000000000000600082015250565b600061089e601883610857565b91506108a982610868565b602082019050919050565b600060208201905081810360008301526108cd81610891565b9050919050565b600081519050919050565b600081905092915050565b60005b838110156109085780820151818401526020810190506108ed565b83811115610917576000848401525b50505050565b6000610928826108d4565b61093281856108df565b93506109428185602086016108ea565b80840191505092915050565b600061095a828461091d565b915081905092915050565b7f19457468657265756d205369676e6564204d6573736167653a0a333200000000600082015250565b600061099b601c836108df565b91506109a682610965565b601c82019050919050565b6000819050919050565b6109cc6109c78261061a565b6109b1565b82525050565b60006109dd8261098e565b91506109e982846109bb565b6020820191508190509291505056fea2646970667358221220081536957bae9e9cbe0da2f467b6cd55b7c71b9fd841867319b4671f4d5db43b64736f6c634300080b0033",
  "immutableReferences": {},
  "source": "// SPDX-License-Identifier: MIT\npragma solidity >=0.8.1;\n\n/* Signature Verification\n\nHow to Sign and Verify\n# Signing\n1. Create message to sign\n2. Hash the message\n3. Sign the hash (off chain, keep your private key secret)\n\n# Verify\n1. Recreate hash from the original message\n2. Recover signer from signature and hash\n3. Compare recovered signer to claimed signer\n*/\n\ncontract Verification {\n    /* 1. Unlock MetaMask account\n    ethereum.enable()\n    */\n\n    /* 2. Get message hash to sign\n    getMessageHash(\n        0x14723A09ACff6D2A60DcdF7aA4AFf308FDDC160C,\n        123,\n        \"coffee and donuts\",\n        1\n    )\n\n    hash = \"0xcf36ac4f97dc10d91fc2cbb20d718e94a8cbfe0f82eaedc6a4aa38946fb797cd\"\n    */\n    function getMessageHash(\n        //address _to,\n        // uint _amount,\n        string memory _message\n    )\n        public\n        pure\n        returns (\n            //uint _nonce\n            bytes32\n        )\n    {\n        return keccak256(abi.encodePacked(_message));\n    }\n\n    /* 3. Sign message hash\n    # using browser\n    account = \"copy paste account of signer here\"\n    ethereum.request({ method: \"personal_sign\", params: [account, hash]}).then(console.log)\n\n    # using web3\n    web3.personal.sign(hash, web3.eth.defaultAccount, console.log)\n\n    Signature will be different for different accounts\n    0x993dab3dd91f5c6dc28e17439be475478f5635c92a56e17e82349d3fb2f166196f466c0b4e0c146f285204f0dcb13e5ae67bc33f4b888ec32dfe0a063e8f3f781b\n    */\n    function getEthSignedMessageHash(bytes32 _messageHash)\n        public\n        pure\n        returns (bytes32)\n    {\n        /*\n        Signature is produced by signing a keccak256 hash with the following format:\n        \"\\x19Ethereum Signed Message\\n\" + len(msg) + msg\n        */\n        return\n            keccak256(\n                abi.encodePacked(\n                    \"\\x19Ethereum Signed Message:\\n32\",\n                    _messageHash\n                )\n            );\n    }\n\n    /* 4. Verify signature\n    signer = 0xB273216C05A8c0D4F0a4Dd0d7Bae1D2EfFE636dd\n    to = 0x14723A09ACff6D2A60DcdF7aA4AFf308FDDC160C\n    amount = 123\n    message = \"coffee and donuts\"\n    nonce = 1\n    signature =\n        0x993dab3dd91f5c6dc28e17439be475478f5635c92a56e17e82349d3fb2f166196f466c0b4e0c146f285204f0dcb13e5ae67bc33f4b888ec32dfe0a063e8f3f781b\n    */\n    function verify(\n        address _signer,\n        //address _to,\n        //uint _amount,\n        string memory _message,\n        //uint _nonce,\n        bytes memory signature\n    ) public pure returns (bool) {\n        bytes32 messageHash = getMessageHash(_message);\n        bytes32 ethSignedMessageHash = getEthSignedMessageHash(messageHash);\n\n        return recoverSigner(ethSignedMessageHash, signature) == _signer;\n    }\n\n    function recoverSigner(\n        bytes32 _ethSignedMessageHash,\n        bytes memory _signature\n    ) public pure returns (address) {\n        (bytes32 r, bytes32 s, uint8 v) = splitSignature(_signature);\n\n        return ecrecover(_ethSignedMessageHash, v, r, s);\n    }\n\n    function splitSignature(bytes memory sig)\n        public\n        pure\n        returns (\n            bytes32 r,\n            bytes32 s,\n            uint8 v\n        )\n    {\n        require(sig.length == 65, \"invalid signature length\");\n\n        assembly {\n            /*\n            First 32 bytes stores the length of the signature\n\n            add(sig, 32) = pointer of sig + 32\n            effectively, skips first 32 bytes of signature\n\n            mload(p) loads next 32 bytes starting at the memory address p into memory\n            */\n\n            // first 32 bytes, after the length prefix\n            r := mload(add(sig, 32))\n            // second 32 bytes\n            s := mload(add(sig, 64))\n            // final byte (first byte of the next 32 bytes)\n            v := byte(0, mload(add(sig, 96)))\n        }\n\n        // implicitly return (r, s, v)\n    }\n}\n",
  "sourcePath": "/Users/shreyasmore/Desktop/Final_Project/DECAF/DECAF-React/contracts/Verification.sol",
  "compiler": {
    "name": "solc",
    "version": "0.8.11+commit.d7f03943.Emscripten.clang"
  },
  "schemaVersion": "3.4.4",
  "updatedAt": "2022-01-23T07:51:58.120Z",
  "networkType": "ethereum",
  "devdoc": {
    "kind": "dev",
    "methods": {},
    "version": 1
  },
  "userdoc": {
    "kind": "user",
    "methods": {},
    "version": 1
  }
}